{
  "_format": "hh-sol-artifact-1",
  "contractName": "TestErc20",
  "sourceName": "contracts/periphery/TT.sol",
  "abi": [
    {
      "inputs": [
        {
          "internalType": "string",
          "name": "_name",
          "type": "string"
        },
        {
          "internalType": "string",
          "name": "_symbol",
          "type": "string"
        },
        {
          "internalType": "uint8",
          "name": "d",
          "type": "uint8"
        }
      ],
      "stateMutability": "nonpayable",
      "type": "constructor"
    },
    {
      "anonymous": false,
      "inputs": [
        {
          "indexed": true,
          "internalType": "address",
          "name": "owner",
          "type": "address"
        },
        {
          "indexed": true,
          "internalType": "address",
          "name": "spender",
          "type": "address"
        },
        {
          "indexed": false,
          "internalType": "uint256",
          "name": "value",
          "type": "uint256"
        }
      ],
      "name": "Approval",
      "type": "event"
    },
    {
      "anonymous": false,
      "inputs": [
        {
          "indexed": true,
          "internalType": "address",
          "name": "sender",
          "type": "address"
        },
        {
          "indexed": false,
          "internalType": "uint256",
          "name": "amount",
          "type": "uint256"
        }
      ],
      "name": "Faucet",
      "type": "event"
    },
    {
      "anonymous": false,
      "inputs": [
        {
          "indexed": true,
          "internalType": "address",
          "name": "sender",
          "type": "address"
        },
        {
          "indexed": false,
          "internalType": "uint256",
          "name": "amount",
          "type": "uint256"
        }
      ],
      "name": "Mint",
      "type": "event"
    },
    {
      "anonymous": false,
      "inputs": [
        {
          "indexed": true,
          "internalType": "address",
          "name": "from",
          "type": "address"
        },
        {
          "indexed": true,
          "internalType": "address",
          "name": "to",
          "type": "address"
        },
        {
          "indexed": false,
          "internalType": "uint256",
          "name": "value",
          "type": "uint256"
        }
      ],
      "name": "Transfer",
      "type": "event"
    },
    {
      "inputs": [
        {
          "internalType": "address",
          "name": "",
          "type": "address"
        },
        {
          "internalType": "address",
          "name": "",
          "type": "address"
        }
      ],
      "name": "allowance",
      "outputs": [
        {
          "internalType": "uint256",
          "name": "",
          "type": "uint256"
        }
      ],
      "stateMutability": "view",
      "type": "function"
    },
    {
      "inputs": [
        {
          "internalType": "address",
          "name": "spender",
          "type": "address"
        },
        {
          "internalType": "uint256",
          "name": "value",
          "type": "uint256"
        }
      ],
      "name": "approve",
      "outputs": [
        {
          "internalType": "bool",
          "name": "",
          "type": "bool"
        }
      ],
      "stateMutability": "nonpayable",
      "type": "function"
    },
    {
      "inputs": [
        {
          "internalType": "address",
          "name": "",
          "type": "address"
        }
      ],
      "name": "balanceOf",
      "outputs": [
        {
          "internalType": "uint256",
          "name": "",
          "type": "uint256"
        }
      ],
      "stateMutability": "view",
      "type": "function"
    },
    {
      "inputs": [],
      "name": "decimals",
      "outputs": [
        {
          "internalType": "uint8",
          "name": "",
          "type": "uint8"
        }
      ],
      "stateMutability": "view",
      "type": "function"
    },
    {
      "inputs": [],
      "name": "faucet",
      "outputs": [
        {
          "internalType": "bool",
          "name": "",
          "type": "bool"
        }
      ],
      "stateMutability": "nonpayable",
      "type": "function"
    },
    {
      "inputs": [],
      "name": "faucetAmount",
      "outputs": [
        {
          "internalType": "uint256",
          "name": "",
          "type": "uint256"
        }
      ],
      "stateMutability": "view",
      "type": "function"
    },
    {
      "inputs": [],
      "name": "getReceivers",
      "outputs": [
        {
          "internalType": "address[]",
          "name": "",
          "type": "address[]"
        }
      ],
      "stateMutability": "view",
      "type": "function"
    },
    {
      "inputs": [
        {
          "internalType": "address",
          "name": "",
          "type": "address"
        }
      ],
      "name": "isFauceted",
      "outputs": [
        {
          "internalType": "bool",
          "name": "",
          "type": "bool"
        }
      ],
      "stateMutability": "view",
      "type": "function"
    },
    {
      "inputs": [
        {
          "internalType": "uint256",
          "name": "amount",
          "type": "uint256"
        }
      ],
      "name": "mint",
      "outputs": [],
      "stateMutability": "nonpayable",
      "type": "function"
    },
    {
      "inputs": [],
      "name": "minter",
      "outputs": [
        {
          "internalType": "address",
          "name": "",
          "type": "address"
        }
      ],
      "stateMutability": "view",
      "type": "function"
    },
    {
      "inputs": [],
      "name": "name",
      "outputs": [
        {
          "internalType": "string",
          "name": "",
          "type": "string"
        }
      ],
      "stateMutability": "view",
      "type": "function"
    },
    {
      "inputs": [
        {
          "internalType": "uint256",
          "name": "amount",
          "type": "uint256"
        }
      ],
      "name": "setFaucetAmount",
      "outputs": [
        {
          "internalType": "bool",
          "name": "",
          "type": "bool"
        }
      ],
      "stateMutability": "nonpayable",
      "type": "function"
    },
    {
      "inputs": [],
      "name": "symbol",
      "outputs": [
        {
          "internalType": "string",
          "name": "",
          "type": "string"
        }
      ],
      "stateMutability": "view",
      "type": "function"
    },
    {
      "inputs": [],
      "name": "totalSupply",
      "outputs": [
        {
          "internalType": "uint256",
          "name": "",
          "type": "uint256"
        }
      ],
      "stateMutability": "view",
      "type": "function"
    },
    {
      "inputs": [
        {
          "internalType": "address",
          "name": "to",
          "type": "address"
        },
        {
          "internalType": "uint256",
          "name": "value",
          "type": "uint256"
        }
      ],
      "name": "transfer",
      "outputs": [
        {
          "internalType": "bool",
          "name": "",
          "type": "bool"
        }
      ],
      "stateMutability": "nonpayable",
      "type": "function"
    },
    {
      "inputs": [
        {
          "internalType": "address",
          "name": "from",
          "type": "address"
        },
        {
          "internalType": "address",
          "name": "to",
          "type": "address"
        },
        {
          "internalType": "uint256",
          "name": "value",
          "type": "uint256"
        }
      ],
      "name": "transferFrom",
      "outputs": [
        {
          "internalType": "bool",
          "name": "",
          "type": "bool"
        }
      ],
      "stateMutability": "nonpayable",
      "type": "function"
    }
  ],
  "bytecode": "0x60a06040526103e86008553480156200001757600080fd5b5060405162000f6838038062000f688339810160408190526200003a9162000176565b6200004a60ff8216600a62000310565b6200005b906402540be40062000325565b600281905533600081815260046020526040812092909255600380546001600160a01b0319169091179055620000928482620003ce565b506001620000a18382620003ce565b5060ff16608052506200049a9050565b634e487b7160e01b600052604160045260246000fd5b600082601f830112620000d957600080fd5b81516001600160401b0380821115620000f657620000f6620000b1565b604051601f8301601f19908116603f01168101908282118183101715620001215762000121620000b1565b816040528381526020925086838588010111156200013e57600080fd5b600091505b8382101562000162578582018301518183018401529082019062000143565b600093810190920192909252949350505050565b6000806000606084860312156200018c57600080fd5b83516001600160401b0380821115620001a457600080fd5b620001b287838801620000c7565b94506020860151915080821115620001c957600080fd5b50620001d886828701620000c7565b925050604084015160ff81168114620001f057600080fd5b809150509250925092565b634e487b7160e01b600052601160045260246000fd5b600181815b8085111562000252578160001904821115620002365762000236620001fb565b808516156200024457918102915b93841c939080029062000216565b509250929050565b6000826200026b575060016200030a565b816200027a575060006200030a565b81600181146200029357600281146200029e57620002be565b60019150506200030a565b60ff841115620002b257620002b2620001fb565b50506001821b6200030a565b5060208310610133831016604e8410600b8410161715620002e3575081810a6200030a565b620002ef838362000211565b8060001904821115620003065762000306620001fb565b0290505b92915050565b60006200031e83836200025a565b9392505050565b80820281158282048414176200030a576200030a620001fb565b600181811c908216806200035457607f821691505b6020821081036200037557634e487b7160e01b600052602260045260246000fd5b50919050565b601f821115620003c957600081815260208120601f850160051c81016020861015620003a45750805b601f850160051c820191505b81811015620003c557828155600101620003b0565b5050505b505050565b81516001600160401b03811115620003ea57620003ea620000b1565b6200040281620003fb84546200033f565b846200037b565b602080601f8311600181146200043a5760008415620004215750858301515b600019600386901b1c1916600185901b178555620003c5565b600085815260208120601f198616915b828110156200046b578886015182559484019460019091019084016200044a565b50858210156200048a5787850151600019600388901b60f8161c191681555b5050505050600190811b01905550565b608051610aab620004bd600039600081816101c301526104f20152610aab6000f3fe608060405234801561001057600080fd5b50600436106101005760003560e01c806381d2fd9c11610097578063a9059cbb11610066578063a9059cbb14610250578063dd62ed3e14610263578063de5f72fd1461028e578063e061646b1461029657600080fd5b806381d2fd9c1461021757806395d89b411461022a5780639c28143014610232578063a0712d681461023b57600080fd5b806323b872dd116100d357806323b872dd146101885780632d2c3edf1461019b578063313ce567146101be57806370a08231146101f757600080fd5b806306fdde03146101055780630754617214610123578063095ea7b31461014e57806318160ddd14610171575b600080fd5b61010d6102ab565b60405161011a919061076a565b60405180910390f35b600354610136906001600160a01b031681565b6040516001600160a01b03909116815260200161011a565b61016161015c3660046107d4565b610339565b604051901515815260200161011a565b61017a60025481565b60405190815260200161011a565b6101616101963660046107fe565b610350565b6101616101a936600461083a565b60076020526000908152604090205460ff1681565b6101e57f000000000000000000000000000000000000000000000000000000000000000081565b60405160ff909116815260200161011a565b61017a61020536600461083a565b60046020526000908152604090205481565b61016161022536600461085c565b6103ca565b61010d6103ed565b61017a60085481565b61024e61024936600461085c565b6103fa565b005b61016161025e3660046107d4565b61048f565b61017a610271366004610875565b600560209081526000928352604080842090915290825290205481565b61016161049c565b61029e610605565b60405161011a91906108a8565b600080546102b8906108f5565b80601f01602080910402602001604051908101604052809291908181526020018280546102e4906108f5565b80156103315780601f1061030657610100808354040283529160200191610331565b820191906000526020600020905b81548152906001019060200180831161031457829003601f168201915b505050505081565b6000610346338484610667565b5060015b92915050565b6001600160a01b0383166000908152600560209081526040808320338452909152812054600019146103b5576001600160a01b0384166000908152600560209081526040808320338452909152812080548492906103af908490610945565b90915550505b6103c08484846106c9565b5060019392505050565b6003546000906001600160a01b031633146103e457600080fd5b50600855600190565b600180546102b8906108f5565b6003546001600160a01b0316331461041157600080fd5b80600260008282546104239190610958565b90915550506003546001600160a01b031660009081526004602052604081208054839290610452908490610958565b909155505060405181815233907f0f6798a560793a54c3bcfe86a93cde1e73087d944c0ea20544137d41213968859060200160405180910390a250565b60006103463384846106c9565b3360009081526007602052604081205460ff16156104eb5760405162461bcd60e51b815260206004820152600860248201526719985d58d95d195960c21b604482015260640160405180910390fd5b60006105187f0000000000000000000000000000000000000000000000000000000000000000600a610a4f565b6008546105259190610a5e565b33600090815260046020526040812080549293508392909190610549908490610958565b9250508190555080600260008282546105629190610958565b909155505033600081815260076020526040808220805460ff191660019081179091556006805491820181559092527ff652222313e28459528d920b65115c16c04f3efc82aaedc97be59f3f377c0d3f90910180546001600160a01b03191683179055517f1c5347d1e37925b93058518c26d7daabe45f0a3227e8d058aaf3682960eb2b94906105f59084815260200190565b60405180910390a2600191505090565b6060600680548060200260200160405190810160405280929190818152602001828054801561065d57602002820191906000526020600020905b81546001600160a01b0316815260019091019060200180831161063f575b5050505050905090565b6001600160a01b0383811660008181526005602090815260408083209487168084529482529182902085905590518481527f8c5be1e5ebec7d5bd14f71427d1e84f3dd0314c0f7b2291e5b200ac8c7c3b92591015b60405180910390a3505050565b6001600160a01b038316600090815260046020526040812080548392906106f1908490610945565b90915550506001600160a01b0382166000908152600460205260408120805483929061071e908490610958565b92505081905550816001600160a01b0316836001600160a01b03167fddf252ad1be2c89b69c2b068fc378daa952ba7f163c4a11628f55a4df523b3ef836040516106bc91815260200190565b600060208083528351808285015260005b818110156107975785810183015185820160400152820161077b565b506000604082860101526040601f19601f8301168501019250505092915050565b80356001600160a01b03811681146107cf57600080fd5b919050565b600080604083850312156107e757600080fd5b6107f0836107b8565b946020939093013593505050565b60008060006060848603121561081357600080fd5b61081c846107b8565b925061082a602085016107b8565b9150604084013590509250925092565b60006020828403121561084c57600080fd5b610855826107b8565b9392505050565b60006020828403121561086e57600080fd5b5035919050565b6000806040838503121561088857600080fd5b610891836107b8565b915061089f602084016107b8565b90509250929050565b6020808252825182820181905260009190848201906040850190845b818110156108e95783516001600160a01b0316835292840192918401916001016108c4565b50909695505050505050565b600181811c9082168061090957607f821691505b60208210810361092957634e487b7160e01b600052602260045260246000fd5b50919050565b634e487b7160e01b600052601160045260246000fd5b8181038181111561034a5761034a61092f565b8082018082111561034a5761034a61092f565b600181815b808511156109a657816000190482111561098c5761098c61092f565b8085161561099957918102915b93841c9390800290610970565b509250929050565b6000826109bd5750600161034a565b816109ca5750600061034a565b81600181146109e057600281146109ea57610a06565b600191505061034a565b60ff8411156109fb576109fb61092f565b50506001821b61034a565b5060208310610133831016604e8410600b8410161715610a29575081810a61034a565b610a33838361096b565b8060001904821115610a4757610a4761092f565b029392505050565b600061085560ff8416836109ae565b808202811582820484141761034a5761034a61092f56fea26469706673582212209b6c019cde8ef1b4d9cf366678ca431e4d43a2c469db1d41aa0b87183221be3c64736f6c63430008110033",
  "linkReferences": {},
  "deployedLinkReferences": {}
}