{
    "contractName": "IotaBeeSwapFactory",
    "abi": [
        {
            "inputs": [],
            "stateMutability": "nonpayable",
            "type": "constructor"
        },
        {
            "anonymous": false,
            "inputs": [
                {
                    "indexed": true,
                    "internalType": "address",
                    "name": "token0",
                    "type": "address"
                },
                {
                    "indexed": true,
                    "internalType": "address",
                    "name": "token1",
                    "type": "address"
                },
                {
                    "indexed": true,
                    "internalType": "uint24",
                    "name": "feeRate",
                    "type": "uint24"
                },
                {
                    "indexed": false,
                    "internalType": "address",
                    "name": "pool",
                    "type": "address"
                }
            ],
            "name": "PoolCreated",
            "type": "event"
        },
        {
            "inputs": [],
            "name": "acceptFeeToSetter",
            "outputs": [],
            "stateMutability": "nonpayable",
            "type": "function"
        },
        {
            "inputs": [
                {
                    "internalType": "uint256",
                    "name": "",
                    "type": "uint256"
                }
            ],
            "name": "allPools",
            "outputs": [
                {
                    "internalType": "address",
                    "name": "",
                    "type": "address"
                }
            ],
            "stateMutability": "view",
            "type": "function"
        },
        {
            "inputs": [],
            "name": "allPoolsLength",
            "outputs": [
                {
                    "internalType": "uint256",
                    "name": "",
                    "type": "uint256"
                }
            ],
            "stateMutability": "view",
            "type": "function"
        },
        {
            "inputs": [
                {
                    "internalType": "address",
                    "name": "tokenA",
                    "type": "address"
                },
                {
                    "internalType": "address",
                    "name": "tokenB",
                    "type": "address"
                },
                {
                    "internalType": "uint24",
                    "name": "feeRate",
                    "type": "uint24"
                }
            ],
            "name": "createPool",
            "outputs": [
                {
                    "internalType": "address",
                    "name": "pool",
                    "type": "address"
                }
            ],
            "stateMutability": "nonpayable",
            "type": "function"
        },
        {
            "inputs": [
                {
                    "internalType": "uint24",
                    "name": "feeRate",
                    "type": "uint24"
                }
            ],
            "name": "enableFeeAmount",
            "outputs": [],
            "stateMutability": "nonpayable",
            "type": "function"
        },
        {
            "inputs": [
                {
                    "internalType": "uint24",
                    "name": "",
                    "type": "uint24"
                }
            ],
            "name": "feeRateAmount",
            "outputs": [
                {
                    "internalType": "int24",
                    "name": "",
                    "type": "int24"
                }
            ],
            "stateMutability": "view",
            "type": "function"
        },
        {
            "inputs": [],
            "name": "feeTo",
            "outputs": [
                {
                    "internalType": "address",
                    "name": "",
                    "type": "address"
                }
            ],
            "stateMutability": "view",
            "type": "function"
        },
        {
            "inputs": [
                {
                    "internalType": "address",
                    "name": "",
                    "type": "address"
                },
                {
                    "internalType": "address",
                    "name": "",
                    "type": "address"
                },
                {
                    "internalType": "uint24",
                    "name": "",
                    "type": "uint24"
                }
            ],
            "name": "getPool",
            "outputs": [
                {
                    "internalType": "address",
                    "name": "",
                    "type": "address"
                }
            ],
            "stateMutability": "view",
            "type": "function"
        },
        {
            "inputs": [],
            "name": "owner",
            "outputs": [
                {
                    "internalType": "address",
                    "name": "",
                    "type": "address"
                }
            ],
            "stateMutability": "view",
            "type": "function"
        },
        {
            "inputs": [],
            "name": "parameters",
            "outputs": [
                {
                    "internalType": "address",
                    "name": "factory",
                    "type": "address"
                },
                {
                    "internalType": "address",
                    "name": "token0",
                    "type": "address"
                },
                {
                    "internalType": "address",
                    "name": "token1",
                    "type": "address"
                },
                {
                    "internalType": "uint24",
                    "name": "feeRate",
                    "type": "uint24"
                }
            ],
            "stateMutability": "view",
            "type": "function"
        },
        {
            "inputs": [
                {
                    "internalType": "address",
                    "name": "_feeTo",
                    "type": "address"
                }
            ],
            "name": "setFeeTo",
            "outputs": [],
            "stateMutability": "nonpayable",
            "type": "function"
        },
        {
            "inputs": [
                {
                    "internalType": "address",
                    "name": "_owner",
                    "type": "address"
                }
            ],
            "name": "setOwner",
            "outputs": [],
            "stateMutability": "nonpayable",
            "type": "function"
        }
    ],
    "bytecode": "608060405234801561001057600080fd5b50600480546001600160a01b0319163317905560066020527f8f94715c41861ded0243bcaee4debf8662069dc9307ad8ab30990ab1367ddaec805462ffffff1990811660019081179092557f0c66e4c1acddeaadf5f4093a4594d83c4abb173ad5cf31b5aea410f6f7b8abcf80548216831790556127106000527f7cc6e6a69fdccd9a512548af6cc366582a2a1f9e85de09363d1589052c40e5f680549091169091179055612f93806100c46000396000f3fe608060405234801561001057600080fd5b50600436106100b45760003560e01c80638da5cb5b116100715780638da5cb5b146101b7578063a1671295146101ca578063bcb928ec146101dd578063e3210474146101f0578063efde4e6414610226578063f46901ed1461023757600080fd5b8063017e7e58146100b957806313af4035146100e95780631698ee82146100fe5780632dd072a01461013857806341d1de97146101405780638903573014610153575b600080fd5b6003546100cc906001600160a01b031681565b6040516001600160a01b0390911681526020015b60405180910390f35b6100fc6100f73660046107a1565b61024a565b005b6100cc61010c3660046107d6565b60076020908152600093845260408085208252928452828420905282529020546001600160a01b031681565b6100fc61029f565b6100cc61014e366004610819565b6102f0565b600054600154600254610182926001600160a01b039081169281169190811690600160a01b900462ffffff1684565b604080516001600160a01b0395861681529385166020850152919093169082015262ffffff90911660608201526080016100e0565b6004546100cc906001600160a01b031681565b6100cc6101d83660046107d6565b61031a565b6100fc6101eb366004610832565b6105d7565b6102136101fe366004610832565b60066020526000908152604090205460020b81565b60405160029190910b81526020016100e0565b6008546040519081526020016100e0565b6100fc6102453660046107a1565b610624565b6004546001600160a01b0316331461027d5760405162461bcd60e51b81526004016102749061084d565b60405180910390fd5b600580546001600160a01b0319166001600160a01b0392909216919091179055565b6005546001600160a01b031633146102c95760405162461bcd60e51b81526004016102749061084d565b60058054600480546001600160a01b03199081166001600160a01b03841617909155169055565b6008818154811061030057600080fd5b6000918252602090912001546001600160a01b0316905081565b6000826001600160a01b0316846001600160a01b03160361037d5760405162461bcd60e51b815260206004820181905260248201527f496f7461426565537761703a204944454e544943414c5f4144445245535345536044820152606401610274565b600080846001600160a01b0316866001600160a01b0316106103a05784866103a3565b85855b90925090506001600160a01b0382166103fe5760405162461bcd60e51b815260206004820152601960248201527f496f7461426565537761703a205a45524f5f41444452455353000000000000006044820152606401610274565b62ffffff841660009081526006602052604081205460020b90036104645760405162461bcd60e51b815260206004820152601c60248201527f496f7461426565537761703a20494e56414c49445f46454552415445000000006044820152606401610274565b6001600160a01b0382811660009081526007602090815260408083208585168452825280832062ffffff8916845290915290205416156104e65760405162461bcd60e51b815260206004820152601860248201527f496f7461426565537761703a20504f4f4c5f45584953545300000000000000006044820152606401610274565b6104f230838387610670565b6001600160a01b03838116600081815260076020818152604080842088871680865290835281852062ffffff8d168087529084528286208054988a166001600160a01b0319998a1681179091558287529484528286208787528452828620818752845282862080548916861790556008805460018101825596527ff3f7a9fe364faab93b216da50a3214154f22a0a2b415b23a84c8169e8b636ee3909501805490971684179096555191825294975090937f97d23878912fda7f82bd5a8502f2c6e9086f5a4728f9054627788b3162f86ced910160405180910390a450509392505050565b6004546001600160a01b031633146105ee57600080fd5b620186a08162ffffff161061060257600080fd5b62ffffff166000908152600660205260409020805462ffffff19166001179055565b6004546001600160a01b0316331461064e5760405162461bcd60e51b81526004016102749061084d565b600380546001600160a01b0319166001600160a01b0392909216919091179055565b60408051608080820183526001600160a01b03878116808452878216602080860182905292881685870181905262ffffff88166060968701819052600080546001600160a01b03199081169095178155600180549095168417909455600280546001600160b81b0319168317600160a01b830217905587519485019290925295830195909552928101939093529091016040516020818303038152906040528051906020012060405161072290610778565b8190604051809103906000f5905080158015610742573d6000803e3d6000fd5b50600080546001600160a01b0319908116909155600180549091169055600280546001600160b81b031916905595945050505050565b6126e08061087e83390190565b80356001600160a01b038116811461079c57600080fd5b919050565b6000602082840312156107b357600080fd5b6107bc82610785565b9392505050565b803562ffffff8116811461079c57600080fd5b6000806000606084860312156107eb57600080fd5b6107f484610785565b925061080260208501610785565b9150610810604085016107c3565b90509250925092565b60006020828403121561082b57600080fd5b5035919050565b60006020828403121561084457600080fd5b6107bc826107c3565b60208082526016908201527524b7ba30a132b2a9bbb0b81d102327a92124a22222a760511b60408201526060019056fe61012060405260016008553480156200001757600080fd5b506040805180820182526007815266496f746142656560c81b6020918201528151808301835260018152603160f81b9082015281517f8b73c3c69bb8fe3d512ecc4cf759cc79239f7b179b0ffacaa9a75d522b39400f918101919091527f1400fd436c862c1e2397d25e81fbf58527caddf48e52a5167bc274920f40698e918101919091527fc89efdaa54c0f20c7adf612882df0950f5a951637e0307cdcb4c672f298b8bc660608201524660808201523060a082015260c00160408051601f1981840301815282825280516020909101206080908152630890357360e41b83529051339263890357309260048083019391928290030181865afa15801562000124573d6000803e3d6000fd5b505050506040513d601f19601f820116820180604052508101906200014a91906200018e565b62ffffff16610100526001600160a01b0390811660e05290811660c0521660a052620001f4565b80516001600160a01b03811681146200018957600080fd5b919050565b60008060008060808587031215620001a557600080fd5b620001b08562000171565b9350620001c06020860162000171565b9250620001d06040860162000171565b9150606085015162ffffff81168114620001e957600080fd5b939692955090935050565b60805160a05160c05160e05161010051612429620002b7600039600081816103dd015281816109a301526109ed01526000818161047801528181610641015281816106fe0152818161083f01528181610cc001528181610f5a0152818161138b01526116d501526000818161027601528181610604015281816106cd015281816107a901528181610c3201528181610f38015281816112d9015261164d0152600081816104510152611b78015260008181610320015261143f01526124296000f3fe608060405234801561001057600080fd5b50600436106101c45760003560e01c80637464fc3d116100f9578063ba9a7a5611610097578063d21220a711610071578063d21220a714610473578063d505accf1461049a578063dd62ed3e146104ad578063fff6cae9146104d857600080fd5b8063ba9a7a5614610430578063bc25cf7714610439578063c45a01551461044c57600080fd5b806395d89b41116100d357806395d89b41146101de578063978bbdb9146103d85780639ca6ce1214610413578063a9059cbb1461041d57600080fd5b80637464fc3d146103875780637ecebe001461039057806389afcb44146103b057600080fd5b806330adf81f116101665780635909c0d5116101405780635909c0d5146103425780635a3d54931461034b5780636a6278421461035457806370a082311461036757600080fd5b806330adf81f146102da578063313ce567146103015780633644e5151461031b57600080fd5b8063095ea7b3116101a2578063095ea7b31461024e5780630dfe16811461027157806318160ddd146102b057806323b872dd146102c757600080fd5b8063022c0d9f146101c957806306fdde03146101de5780630902f1ac1461021a575b600080fd5b6101dc6101d7366004611e99565b6104e0565b005b61020460405180604001604052806007815260200166496f746142656560c81b81525081565b6040516102119190611f53565b60405180910390f35b610222610b1d565b604080516001600160701b03948516815293909216602084015263ffffffff1690820152606001610211565b61026161025c366004611f86565b610b47565b6040519015158152602001610211565b6102987f000000000000000000000000000000000000000000000000000000000000000081565b6040516001600160a01b039091168152602001610211565b6102b960005481565b604051908152602001610211565b6102616102d5366004611fb2565b610b5e565b6102b97f6e71edae12b1b97f4d1f60370fef10105fa2faae0126114a169c64845d6126c981565b610309601281565b60405160ff9091168152602001610211565b6102b97f000000000000000000000000000000000000000000000000000000000000000081565b6102b960055481565b6102b960065481565b6102b9610362366004611ff3565b610bd8565b6102b9610375366004611ff3565b60016020526000908152604090205481565b6102b960075481565b6102b961039e366004611ff3565b60036020526000908152604090205481565b6103c36103be366004611ff3565b610ee8565b60408051928352602083019190915201610211565b6103ff7f000000000000000000000000000000000000000000000000000000000000000081565b60405162ffffff9091168152602001610211565b6103ff620186a081565b61026161042b366004611f86565b611286565b6102b96103e881565b6101dc610447366004611ff3565b611293565b6102987f000000000000000000000000000000000000000000000000000000000000000081565b6102987f000000000000000000000000000000000000000000000000000000000000000081565b6101dc6104a8366004612010565b6113e0565b6102b96104bb366004612087565b600260209081526000928352604080842090915290825290205481565b6101dc61160d565b60085460011461050b5760405162461bcd60e51b8152600401610502906120c0565b60405180910390fd5b60006008558415158061051e5750600084115b61057a5760405162461bcd60e51b815260206004820152602760248201527f496f7461426565537761703a20494e53554646494349454e545f4f555450555460448201526617d05353d5539560ca1b6064820152608401610502565b600080610585610b1d565b5091509150816001600160701b0316871080156105aa5750806001600160701b031686105b6106025760405162461bcd60e51b815260206004820152602360248201527f496f7461426565537761703a20494e53554646494349454e545f4c495155494460448201526249545960e81b6064820152608401610502565b7f00000000000000000000000000000000000000000000000000000000000000006001600160a01b0316856001600160a01b03161415801561067657507f00000000000000000000000000000000000000000000000000000000000000006001600160a01b0316856001600160a01b031614155b6106c25760405162461bcd60e51b815260206004820152601760248201527f496f7461426565537761703a20494e56414c49445f544f0000000000000000006044820152606401610502565b86156106f3576106f37f0000000000000000000000000000000000000000000000000000000000000000868961176b565b8515610724576107247f0000000000000000000000000000000000000000000000000000000000000000868861176b565b82156107915760405163d843a2d360e01b81526001600160a01b0386169063d843a2d39061075e9033908b908b908a908a906004016120ed565b600060405180830381600087803b15801561077857600080fd5b505af115801561078c573d6000803e3d6000fd5b505050505b6040516370a0823160e01b81523060048201526000907f00000000000000000000000000000000000000000000000000000000000000006001600160a01b0316906370a0823190602401602060405180830381865afa1580156107f8573d6000803e3d6000fd5b505050506040513d601f19601f8201168201806040525081019061081c9190612139565b6040516370a0823160e01b81523060048201529091506000906001600160a01b037f000000000000000000000000000000000000000000000000000000000000000016906370a0823190602401602060405180830381865afa158015610886573d6000803e3d6000fd5b505050506040513d601f19601f820116820180604052508101906108aa9190612139565b905060006108c18a6001600160701b038716612168565b83116108ce5760006108eb565b6108e18a6001600160701b038716612168565b6108eb9084612168565b905060006109028a6001600160701b038716612168565b831161090f57600061092c565b6109228a6001600160701b038716612168565b61092c9084612168565b9050600082118061093d5750600081115b6109985760405162461bcd60e51b815260206004820152602660248201527f496f7461426565537761703a20494e53554646494349454e545f494e5055545f604482015265105353d5539560d21b6064820152608401610502565b60006109c962ffffff7f0000000000000000000000000000000000000000000000000000000000000000168461217b565b6109d6620186a08761217b565b6109e09190612168565b90506000610a1362ffffff7f0000000000000000000000000000000000000000000000000000000000000000168461217b565b610a20620186a08761217b565b610a2a9190612168565b9050610a3a6002620186a061229f565b62ffffff16610a556001600160701b03808a16908b1661217b565b610a5f919061217b565b610a69828461217b565b1015610aa85760405162461bcd60e51b815260206004820152600e60248201526d496f7461426565537761703a204b60901b6044820152606401610502565b5050610ab6848488886118b6565b60408051838152602081018390529081018c9052606081018b90526001600160a01b038a169033907fd78ad95fa46c994b6551d0da85fc275fe613ce37657fb8d5e3d130840159d8229060800160405180910390a350506001600855505050505050505050565b6004546001600160701b0380821692600160701b830490911691600160e01b900463ffffffff1690565b6000610b54338484611a70565b5060015b92915050565b6001600160a01b038316600090815260026020908152604080832033845290915281205460001914610bc3576001600160a01b038416600090815260026020908152604080832033845290915281208054849290610bbd908490612168565b90915550505b610bce848484611ad2565b5060019392505050565b6000600854600114610bfc5760405162461bcd60e51b8152600401610502906120c0565b6000600881905580610c0c610b1d565b506040516370a0823160e01b815230600482015291935091506000906001600160a01b037f000000000000000000000000000000000000000000000000000000000000000016906370a0823190602401602060405180830381865afa158015610c79573d6000803e3d6000fd5b505050506040513d601f19601f82011682018060405250810190610c9d9190612139565b6040516370a0823160e01b81523060048201529091506000906001600160a01b037f000000000000000000000000000000000000000000000000000000000000000016906370a0823190602401602060405180830381865afa158015610d07573d6000803e3d6000fd5b505050506040513d601f19601f82011682018060405250810190610d2b9190612139565b90506000610d426001600160701b03861684612168565b90506000610d596001600160701b03861684612168565b90506000610d678787611b73565b60008054919250819003610da8576103e8610d8a610d85858761217b565b611cbf565b610d949190612168565b9850610da360006103e8611d2f565b610def565b610dec6001600160701b038916610dbf838761217b565b610dc991906122c9565b6001600160701b038916610ddd848761217b565b610de791906122c9565b611db8565b98505b60008911610e525760405162461bcd60e51b815260206004820152602a60248201527f496f7461426565537761703a20494e53554646494349454e545f4c495155494460448201526912551657d3525395115160b21b6064820152608401610502565b610e5c8a8a611d2f565b610e6886868a8a6118b6565b8115610e9a57600454610e8d906001600160701b03600160701b8204811691166122dd565b6001600160701b03166007555b604080518581526020810185905233917f4c209b5fc8ad50758f13e2e1088ba56a560dff690a1c6fef26394f4c03821c4f910160405180910390a25050600160085550949695505050505050565b600080600854600114610f0d5760405162461bcd60e51b8152600401610502906120c0565b6000600881905580610f1d610b1d565b506040516370a0823160e01b815230600482015291935091507f0000000000000000000000000000000000000000000000000000000000000000907f0000000000000000000000000000000000000000000000000000000000000000906000906001600160a01b038416906370a0823190602401602060405180830381865afa158015610fae573d6000803e3d6000fd5b505050506040513d601f19601f82011682018060405250810190610fd29190612139565b6040516370a0823160e01b81523060048201529091506000906001600160a01b038416906370a0823190602401602060405180830381865afa15801561101c573d6000803e3d6000fd5b505050506040513d601f19601f820116820180604052508101906110409190612139565b3060009081526001602052604081205491925061105d8888611b73565b6000549091508061106e868561217b565b61107891906122c9565b9a5080611085858561217b565b61108f91906122c9565b995060008b1180156110a1575060008a115b6111005760405162461bcd60e51b815260206004820152602a60248201527f496f7461426565537761703a20494e53554646494349454e545f4c495155494460448201526912551657d0955493915160b21b6064820152608401610502565b61110a3084611dd0565b611115878d8d61176b565b611120868d8c61176b565b6040516370a0823160e01b81523060048201526001600160a01b038816906370a0823190602401602060405180830381865afa158015611164573d6000803e3d6000fd5b505050506040513d601f19601f820116820180604052508101906111889190612139565b6040516370a0823160e01b81523060048201529095506001600160a01b038716906370a0823190602401602060405180830381865afa1580156111cf573d6000803e3d6000fd5b505050506040513d601f19601f820116820180604052508101906111f39190612139565b935061120185858b8b6118b6565b811561122a57600454611226906001600160701b03600160701b82048116911661217b565b6007555b604080518c8152602081018c90526001600160a01b038e169133917fdccd412f0b1252819cb1fd330b93224ca42612892bb3f4f789976e6d81936496910160405180910390a35050505050505050506001600881905550915091565b6000610b54338484611ad2565b6008546001146112b55760405162461bcd60e51b8152600401610502906120c0565b6000600855600480546040516370a0823160e01b8152309281019290925261136c917f00000000000000000000000000000000000000000000000000000000000000009184916001600160701b03909116906001600160a01b038416906370a08231906024015b602060405180830381865afa158015611339573d6000803e3d6000fd5b505050506040513d601f19601f8201168201806040525081019061135d9190612139565b6113679190612168565b61176b565b600480546040516370a0823160e01b815230928101929092526113d8917f0000000000000000000000000000000000000000000000000000000000000000918491600160701b9091046001600160701b0316906001600160a01b038416906370a082319060240161131c565b506001600855565b428410156114235760405162461bcd60e51b815260206004820152601060248201526f125bdd185099594e88115e1c1a5c995960821b6044820152606401610502565b6001600160a01b038716600090815260036020526040812080547f0000000000000000000000000000000000000000000000000000000000000000917f6e71edae12b1b97f4d1f60370fef10105fa2faae0126114a169c64845d6126c9918b918b918b918761149183612300565b909155506040805160208101969096526001600160a01b0394851690860152929091166060840152608083015260a082015260c0810187905260e0016040516020818303038152906040528051906020012060405160200161150a92919061190160f01b81526002810192909252602282015260420190565b60408051601f198184030181528282528051602091820120600080855291840180845281905260ff88169284019290925260608301869052608083018590529092509060019060a0016020604051602081039080840390855afa158015611575573d6000803e3d6000fd5b5050604051601f1901519150506001600160a01b038116158015906115ab5750886001600160a01b0316816001600160a01b0316145b6115f75760405162461bcd60e51b815260206004820152601a60248201527f496f74614265653a20494e56414c49445f5349474e41545552450000000000006044820152606401610502565b611602898989611a70565b505050505050505050565b60085460011461162f5760405162461bcd60e51b8152600401610502906120c0565b60006008556040516370a0823160e01b8152306004820152611764907f00000000000000000000000000000000000000000000000000000000000000006001600160a01b0316906370a0823190602401602060405180830381865afa15801561169c573d6000803e3d6000fd5b505050506040513d601f19601f820116820180604052508101906116c09190612139565b6040516370a0823160e01b81523060048201527f00000000000000000000000000000000000000000000000000000000000000006001600160a01b0316906370a0823190602401602060405180830381865afa158015611724573d6000803e3d6000fd5b505050506040513d601f19601f820116820180604052508101906117489190612139565b6004546001600160701b0380821691600160701b9004166118b6565b6001600855565b604080518082018252601981527f7472616e7366657228616464726573732c75696e74323536290000000000000060209182015281516001600160a01b0385811660248301526044808301869052845180840390910181526064909201845291810180516001600160e01b031663a9059cbb60e01b179052915160009283928716916117f79190612319565b6000604051808303816000865af19150503d8060008114611834576040519150601f19603f3d011682016040523d82523d6000602084013e611839565b606091505b50915091508180156118635750805115806118635750808060200190518101906118639190612335565b6118af5760405162461bcd60e51b815260206004820152601c60248201527f496f7461426565537761703a205452414e534645525f4641494c4544000000006044820152606401610502565b5050505050565b6001600160701b0384118015906118d457506001600160701b038311155b6119185760405162461bcd60e51b8152602060048201526015602482015274496f7461426565537761703a204f766572666c6f7760581b6044820152606401610502565b600061192964010000000042612357565b60045490915063ffffffff600160e01b909104811682039081161580159061195957506001600160701b03841615155b801561196d57506001600160701b03831615155b156119d8578063ffffffff166119958561198686611e53565b6001600160e01b031690611e6c565b600580546001600160e01b03929092169290920201905563ffffffff81166119c08461198687611e53565b600680546001600160e01b0392909216929092020190555b6004805463ffffffff8416600160e01b026001600160e01b036001600160701b03898116600160701b9081026001600160e01b03199095168c83161794909417918216831794859055604080519382169282169290921783529290930490911660208201527f1c411e9a96e071241c2f21f7726b17ae89e3cab4c78be50e062b03a9fffbbad1910160405180910390a1505050505050565b6001600160a01b0383811660008181526002602090815260408083209487168084529482529182902085905590518481527f8c5be1e5ebec7d5bd14f71427d1e84f3dd0314c0f7b2291e5b200ac8c7c3b92591015b60405180910390a3505050565b6001600160a01b03831660009081526001602052604081208054839290611afa908490612168565b90915550506001600160a01b03821660009081526001602052604081208054839290611b2790849061236b565b92505081905550816001600160a01b0316836001600160a01b03167fddf252ad1be2c89b69c2b068fc378daa952ba7f163c4a11628f55a4df523b3ef83604051611ac591815260200190565b6000807f00000000000000000000000000000000000000000000000000000000000000006001600160a01b031663017e7e586040518163ffffffff1660e01b8152600401602060405180830381865afa158015611bd4573d6000803e3d6000fd5b505050506040513d601f19601f82011682018060405250810190611bf8919061237e565b6007546001600160a01b038216158015945091925090611cab578015611ca6576000611c35611c2786886122dd565b6001600160701b0316611cbf565b90506000611c4283611cbf565b905080821115611ca3576000611c588284612168565b600054611c65919061217b565b9050600082611c7585600561217b565b611c7f919061236b565b90506000611c8d82846122c9565b90508015611c9f57611c9f8782611d2f565b5050505b50505b611cb7565b8015611cb75760006007555b505092915050565b60006003821115611d205750806000611cd96002836122c9565b611ce490600161236b565b90505b81811015611d1a57905080600281611cff81866122c9565b611d09919061236b565b611d1391906122c9565b9050611ce7565b50919050565b8115611d2a575060015b919050565b80600080828254611d40919061236b565b90915550506001600160a01b03821660009081526001602052604081208054839290611d6d90849061236b565b90915550506040518181526001600160a01b038316906000907fddf252ad1be2c89b69c2b068fc378daa952ba7f163c4a11628f55a4df523b3ef906020015b60405180910390a35050565b6000818310611dc75781611dc9565b825b9392505050565b6001600160a01b03821660009081526001602052604081208054839290611df8908490612168565b9250508190555080600080828254611e109190612168565b90915550506040518181526000906001600160a01b038416907fddf252ad1be2c89b69c2b068fc378daa952ba7f163c4a11628f55a4df523b3ef90602001611dac565b6000610b58600160701b6001600160701b03841661239b565b6000611dc96001600160701b038316846123cd565b6001600160a01b0381168114611e9657600080fd5b50565b600080600080600060808688031215611eb157600080fd5b85359450602086013593506040860135611eca81611e81565b9250606086013567ffffffffffffffff80821115611ee757600080fd5b818801915088601f830112611efb57600080fd5b813581811115611f0a57600080fd5b896020828501011115611f1c57600080fd5b9699959850939650602001949392505050565b60005b83811015611f4a578181015183820152602001611f32565b50506000910152565b6020815260008251806020840152611f72816040850160208701611f2f565b601f01601f19169190910160400192915050565b60008060408385031215611f9957600080fd5b8235611fa481611e81565b946020939093013593505050565b600080600060608486031215611fc757600080fd5b8335611fd281611e81565b92506020840135611fe281611e81565b929592945050506040919091013590565b60006020828403121561200557600080fd5b8135611dc981611e81565b600080600080600080600060e0888a03121561202b57600080fd5b873561203681611e81565b9650602088013561204681611e81565b95506040880135945060608801359350608088013560ff8116811461206a57600080fd5b9699959850939692959460a0840135945060c09093013592915050565b6000806040838503121561209a57600080fd5b82356120a581611e81565b915060208301356120b581611e81565b809150509250929050565b602080825260139082015272125bdd1850995954ddd85c0e881313d0d2d151606a1b604082015260600190565b60018060a01b038616815284602082015283604082015260806060820152816080820152818360a0830137600081830160a090810191909152601f909201601f19160101949350505050565b60006020828403121561214b57600080fd5b5051919050565b634e487b7160e01b600052601160045260246000fd5b81810381811115610b5857610b58612152565b8082028115828204841417610b5857610b58612152565b600181815b808511156121ce578162ffffff048211156121b4576121b4612152565b808516156121c157918102915b93841c9390800290612197565b509250929050565b6000826121e557506001610b58565b816121f257506000610b58565b8160018114612208576002811461221257612242565b6001915050610b58565b60ff84111561222357612223612152565b6001841b915062ffffff82111561223c5761223c612152565b50610b58565b5060208310610133831016604e8410600b8410161715612278575081810a62ffffff81111561227357612273612152565b610b58565b6122828383612192565b8062ffffff0482111561229757612297612152565b029392505050565b6000611dc960ff841662ffffff84166121d6565b634e487b7160e01b600052601260045260246000fd5b6000826122d8576122d86122b3565b500490565b6001600160701b03818116838216028082169190828114611cb757611cb7612152565b60006001820161231257612312612152565b5060010190565b6000825161232b818460208701611f2f565b9190910192915050565b60006020828403121561234757600080fd5b81518015158114611dc957600080fd5b600082612366576123666122b3565b500690565b80820180821115610b5857610b58612152565b60006020828403121561239057600080fd5b8151611dc981611e81565b6001600160e01b038281168282168181028316929181158285048214176123c4576123c4612152565b50505092915050565b60006001600160e01b03838116806123e7576123e76122b3565b9216919091049291505056fea26469706673582212208fc2926e2a4b491329a4de6b938e7e4d607d8793f495574f052eec35f7a9d6b564736f6c63430008110033a2646970667358221220fe1784569ffb82e8184ff597a7bad2bd862cd56edda1aabee9eecc7fa57c62d964736f6c63430008110033",
    "sourcePath": "d:/contract/iotabee/core/IotaBeeFactory.sol",
    "compiler": {
        "name": "solc",
        "version": "0.8.17+commit.8df45f5f"
    },
    "functionHashes": {
        "acceptFeeToSetter()": "2dd072a0",
        "allPools(uint256)": "41d1de97",
        "allPoolsLength()": "efde4e64",
        "createPool(address,address,uint24)": "a1671295",
        "enableFeeAmount(uint24)": "bcb928ec",
        "feeRateAmount(uint24)": "e3210474",
        "feeTo()": "017e7e58",
        "getPool(address,address,uint24)": "1698ee82",
        "owner()": "8da5cb5b",
        "parameters()": "89035730",
        "setFeeTo(address)": "f46901ed",
        "setOwner(address)": "13af4035"
    },
    "gasEstimates": {
        "creation": {
            "codeDepositCost": "2435800",
            "executionCost": "99560",
            "totalCost": "2535360"
        },
        "external": {
            "acceptFeeToSetter()": "50826",
            "allPools(uint256)": "4692",
            "allPoolsLength()": "2368",
            "createPool(address,address,uint24)": "infinite",
            "enableFeeAmount(uint24)": "26799",
            "feeRateAmount(uint24)": "2595",
            "feeTo()": "2327",
            "getPool(address,address,uint24)": "infinite",
            "owner()": "2326",
            "parameters()": "6788",
            "setFeeTo(address)": "26821",
            "setOwner(address)": "26734"
        }
    }
}