{
    "contractName": "IotaBeeSwapPool",
    "abi": [
        {
            "inputs": [],
            "stateMutability": "nonpayable",
            "type": "constructor"
        },
        {
            "anonymous": false,
            "inputs": [
                {
                    "indexed": true,
                    "internalType": "address",
                    "name": "owner",
                    "type": "address"
                },
                {
                    "indexed": true,
                    "internalType": "address",
                    "name": "spender",
                    "type": "address"
                },
                {
                    "indexed": false,
                    "internalType": "uint256",
                    "name": "value",
                    "type": "uint256"
                }
            ],
            "name": "Approval",
            "type": "event"
        },
        {
            "anonymous": false,
            "inputs": [
                {
                    "indexed": true,
                    "internalType": "address",
                    "name": "sender",
                    "type": "address"
                },
                {
                    "indexed": false,
                    "internalType": "uint256",
                    "name": "amount0",
                    "type": "uint256"
                },
                {
                    "indexed": false,
                    "internalType": "uint256",
                    "name": "amount1",
                    "type": "uint256"
                },
                {
                    "indexed": true,
                    "internalType": "address",
                    "name": "to",
                    "type": "address"
                }
            ],
            "name": "Burn",
            "type": "event"
        },
        {
            "anonymous": false,
            "inputs": [
                {
                    "indexed": true,
                    "internalType": "address",
                    "name": "sender",
                    "type": "address"
                },
                {
                    "indexed": false,
                    "internalType": "uint256",
                    "name": "amount0",
                    "type": "uint256"
                },
                {
                    "indexed": false,
                    "internalType": "uint256",
                    "name": "amount1",
                    "type": "uint256"
                }
            ],
            "name": "Mint",
            "type": "event"
        },
        {
            "anonymous": false,
            "inputs": [
                {
                    "indexed": true,
                    "internalType": "address",
                    "name": "sender",
                    "type": "address"
                },
                {
                    "indexed": false,
                    "internalType": "uint256",
                    "name": "amount0In",
                    "type": "uint256"
                },
                {
                    "indexed": false,
                    "internalType": "uint256",
                    "name": "amount1In",
                    "type": "uint256"
                },
                {
                    "indexed": false,
                    "internalType": "uint256",
                    "name": "amount0Out",
                    "type": "uint256"
                },
                {
                    "indexed": false,
                    "internalType": "uint256",
                    "name": "amount1Out",
                    "type": "uint256"
                },
                {
                    "indexed": true,
                    "internalType": "address",
                    "name": "to",
                    "type": "address"
                }
            ],
            "name": "Swap",
            "type": "event"
        },
        {
            "anonymous": false,
            "inputs": [
                {
                    "indexed": false,
                    "internalType": "uint112",
                    "name": "reserve0",
                    "type": "uint112"
                },
                {
                    "indexed": false,
                    "internalType": "uint112",
                    "name": "reserve1",
                    "type": "uint112"
                }
            ],
            "name": "Sync",
            "type": "event"
        },
        {
            "anonymous": false,
            "inputs": [
                {
                    "indexed": true,
                    "internalType": "address",
                    "name": "from",
                    "type": "address"
                },
                {
                    "indexed": true,
                    "internalType": "address",
                    "name": "to",
                    "type": "address"
                },
                {
                    "indexed": false,
                    "internalType": "uint256",
                    "name": "value",
                    "type": "uint256"
                }
            ],
            "name": "Transfer",
            "type": "event"
        },
        {
            "inputs": [],
            "name": "DOMAIN_SEPARATOR",
            "outputs": [
                {
                    "internalType": "bytes32",
                    "name": "",
                    "type": "bytes32"
                }
            ],
            "stateMutability": "view",
            "type": "function"
        },
        {
            "inputs": [],
            "name": "FEE_DIV_CONST",
            "outputs": [
                {
                    "internalType": "uint24",
                    "name": "",
                    "type": "uint24"
                }
            ],
            "stateMutability": "view",
            "type": "function"
        },
        {
            "inputs": [],
            "name": "MINIMUM_LIQUIDITY",
            "outputs": [
                {
                    "internalType": "uint256",
                    "name": "",
                    "type": "uint256"
                }
            ],
            "stateMutability": "view",
            "type": "function"
        },
        {
            "inputs": [],
            "name": "PERMIT_TYPEHASH",
            "outputs": [
                {
                    "internalType": "bytes32",
                    "name": "",
                    "type": "bytes32"
                }
            ],
            "stateMutability": "view",
            "type": "function"
        },
        {
            "inputs": [
                {
                    "internalType": "address",
                    "name": "",
                    "type": "address"
                },
                {
                    "internalType": "address",
                    "name": "",
                    "type": "address"
                }
            ],
            "name": "allowance",
            "outputs": [
                {
                    "internalType": "uint256",
                    "name": "",
                    "type": "uint256"
                }
            ],
            "stateMutability": "view",
            "type": "function"
        },
        {
            "inputs": [
                {
                    "internalType": "address",
                    "name": "spender",
                    "type": "address"
                },
                {
                    "internalType": "uint256",
                    "name": "value",
                    "type": "uint256"
                }
            ],
            "name": "approve",
            "outputs": [
                {
                    "internalType": "bool",
                    "name": "",
                    "type": "bool"
                }
            ],
            "stateMutability": "nonpayable",
            "type": "function"
        },
        {
            "inputs": [
                {
                    "internalType": "address",
                    "name": "",
                    "type": "address"
                }
            ],
            "name": "balanceOf",
            "outputs": [
                {
                    "internalType": "uint256",
                    "name": "",
                    "type": "uint256"
                }
            ],
            "stateMutability": "view",
            "type": "function"
        },
        {
            "inputs": [
                {
                    "internalType": "address",
                    "name": "to",
                    "type": "address"
                }
            ],
            "name": "burn",
            "outputs": [
                {
                    "internalType": "uint256",
                    "name": "amount0",
                    "type": "uint256"
                },
                {
                    "internalType": "uint256",
                    "name": "amount1",
                    "type": "uint256"
                }
            ],
            "stateMutability": "nonpayable",
            "type": "function"
        },
        {
            "inputs": [],
            "name": "decimals",
            "outputs": [
                {
                    "internalType": "uint8",
                    "name": "",
                    "type": "uint8"
                }
            ],
            "stateMutability": "view",
            "type": "function"
        },
        {
            "inputs": [],
            "name": "factory",
            "outputs": [
                {
                    "internalType": "address",
                    "name": "",
                    "type": "address"
                }
            ],
            "stateMutability": "view",
            "type": "function"
        },
        {
            "inputs": [],
            "name": "feeRate",
            "outputs": [
                {
                    "internalType": "uint24",
                    "name": "",
                    "type": "uint24"
                }
            ],
            "stateMutability": "view",
            "type": "function"
        },
        {
            "inputs": [],
            "name": "getReserves",
            "outputs": [
                {
                    "internalType": "uint112",
                    "name": "_reserve0",
                    "type": "uint112"
                },
                {
                    "internalType": "uint112",
                    "name": "_reserve1",
                    "type": "uint112"
                },
                {
                    "internalType": "uint32",
                    "name": "_blockTimestampLast",
                    "type": "uint32"
                }
            ],
            "stateMutability": "view",
            "type": "function"
        },
        {
            "inputs": [],
            "name": "kLast",
            "outputs": [
                {
                    "internalType": "uint256",
                    "name": "",
                    "type": "uint256"
                }
            ],
            "stateMutability": "view",
            "type": "function"
        },
        {
            "inputs": [
                {
                    "internalType": "address",
                    "name": "to",
                    "type": "address"
                }
            ],
            "name": "mint",
            "outputs": [
                {
                    "internalType": "uint256",
                    "name": "liquidity",
                    "type": "uint256"
                }
            ],
            "stateMutability": "nonpayable",
            "type": "function"
        },
        {
            "inputs": [],
            "name": "name",
            "outputs": [
                {
                    "internalType": "string",
                    "name": "",
                    "type": "string"
                }
            ],
            "stateMutability": "view",
            "type": "function"
        },
        {
            "inputs": [
                {
                    "internalType": "address",
                    "name": "",
                    "type": "address"
                }
            ],
            "name": "nonces",
            "outputs": [
                {
                    "internalType": "uint256",
                    "name": "",
                    "type": "uint256"
                }
            ],
            "stateMutability": "view",
            "type": "function"
        },
        {
            "inputs": [
                {
                    "internalType": "address",
                    "name": "owner",
                    "type": "address"
                },
                {
                    "internalType": "address",
                    "name": "spender",
                    "type": "address"
                },
                {
                    "internalType": "uint256",
                    "name": "value",
                    "type": "uint256"
                },
                {
                    "internalType": "uint256",
                    "name": "deadline",
                    "type": "uint256"
                },
                {
                    "internalType": "uint8",
                    "name": "v",
                    "type": "uint8"
                },
                {
                    "internalType": "bytes32",
                    "name": "r",
                    "type": "bytes32"
                },
                {
                    "internalType": "bytes32",
                    "name": "s",
                    "type": "bytes32"
                }
            ],
            "name": "permit",
            "outputs": [],
            "stateMutability": "nonpayable",
            "type": "function"
        },
        {
            "inputs": [],
            "name": "price0CumulativeLast",
            "outputs": [
                {
                    "internalType": "uint256",
                    "name": "",
                    "type": "uint256"
                }
            ],
            "stateMutability": "view",
            "type": "function"
        },
        {
            "inputs": [],
            "name": "price1CumulativeLast",
            "outputs": [
                {
                    "internalType": "uint256",
                    "name": "",
                    "type": "uint256"
                }
            ],
            "stateMutability": "view",
            "type": "function"
        },
        {
            "inputs": [
                {
                    "internalType": "address",
                    "name": "to",
                    "type": "address"
                }
            ],
            "name": "skim",
            "outputs": [],
            "stateMutability": "nonpayable",
            "type": "function"
        },
        {
            "inputs": [
                {
                    "internalType": "uint256",
                    "name": "amount0Out",
                    "type": "uint256"
                },
                {
                    "internalType": "uint256",
                    "name": "amount1Out",
                    "type": "uint256"
                },
                {
                    "internalType": "address",
                    "name": "to",
                    "type": "address"
                },
                {
                    "internalType": "bytes",
                    "name": "data",
                    "type": "bytes"
                }
            ],
            "name": "swap",
            "outputs": [],
            "stateMutability": "nonpayable",
            "type": "function"
        },
        {
            "inputs": [],
            "name": "symbol",
            "outputs": [
                {
                    "internalType": "string",
                    "name": "",
                    "type": "string"
                }
            ],
            "stateMutability": "view",
            "type": "function"
        },
        {
            "inputs": [],
            "name": "sync",
            "outputs": [],
            "stateMutability": "nonpayable",
            "type": "function"
        },
        {
            "inputs": [],
            "name": "token0",
            "outputs": [
                {
                    "internalType": "address",
                    "name": "",
                    "type": "address"
                }
            ],
            "stateMutability": "view",
            "type": "function"
        },
        {
            "inputs": [],
            "name": "token1",
            "outputs": [
                {
                    "internalType": "address",
                    "name": "",
                    "type": "address"
                }
            ],
            "stateMutability": "view",
            "type": "function"
        },
        {
            "inputs": [],
            "name": "totalSupply",
            "outputs": [
                {
                    "internalType": "uint256",
                    "name": "",
                    "type": "uint256"
                }
            ],
            "stateMutability": "view",
            "type": "function"
        },
        {
            "inputs": [
                {
                    "internalType": "address",
                    "name": "to",
                    "type": "address"
                },
                {
                    "internalType": "uint256",
                    "name": "value",
                    "type": "uint256"
                }
            ],
            "name": "transfer",
            "outputs": [
                {
                    "internalType": "bool",
                    "name": "",
                    "type": "bool"
                }
            ],
            "stateMutability": "nonpayable",
            "type": "function"
        },
        {
            "inputs": [
                {
                    "internalType": "address",
                    "name": "from",
                    "type": "address"
                },
                {
                    "internalType": "address",
                    "name": "to",
                    "type": "address"
                },
                {
                    "internalType": "uint256",
                    "name": "value",
                    "type": "uint256"
                }
            ],
            "name": "transferFrom",
            "outputs": [
                {
                    "internalType": "bool",
                    "name": "",
                    "type": "bool"
                }
            ],
            "stateMutability": "nonpayable",
            "type": "function"
        }
    ],
    "bytecode": "61012060405260016008553480156200001757600080fd5b506040805180820182526007815266496f746142656560c81b6020918201528151808301835260018152603160f81b9082015281517f8b73c3c69bb8fe3d512ecc4cf759cc79239f7b179b0ffacaa9a75d522b39400f918101919091527f1400fd436c862c1e2397d25e81fbf58527caddf48e52a5167bc274920f40698e918101919091527fc89efdaa54c0f20c7adf612882df0950f5a951637e0307cdcb4c672f298b8bc660608201524660808201523060a082015260c00160408051601f1981840301815282825280516020909101206080908152630890357360e41b83529051339263890357309260048083019391928290030181865afa15801562000124573d6000803e3d6000fd5b505050506040513d601f19601f820116820180604052508101906200014a91906200018e565b62ffffff16610100526001600160a01b0390811660e05290811660c0521660a052620001f4565b80516001600160a01b03811681146200018957600080fd5b919050565b60008060008060808587031215620001a557600080fd5b620001b08562000171565b9350620001c06020860162000171565b9250620001d06040860162000171565b9150606085015162ffffff81168114620001e957600080fd5b939692955090935050565b60805160a05160c05160e05161010051612426620002b7600039600081816103dd015281816109a301526109ed01526000818161047801528181610641015281816106fe0152818161083f01528181610cbd01528181610f570152818161138801526116d201526000818161027601528181610604015281816106cd015281816107a901528181610c2f01528181610f35015281816112d6015261164a0152600081816104510152611b75015260008181610320015261143c01526124266000f3fe608060405234801561001057600080fd5b50600436106101c45760003560e01c80637464fc3d116100f9578063ba9a7a5611610097578063d21220a711610071578063d21220a714610473578063d505accf1461049a578063dd62ed3e146104ad578063fff6cae9146104d857600080fd5b8063ba9a7a5614610430578063bc25cf7714610439578063c45a01551461044c57600080fd5b806395d89b41116100d357806395d89b41146101de578063978bbdb9146103d85780639ca6ce1214610413578063a9059cbb1461041d57600080fd5b80637464fc3d146103875780637ecebe001461039057806389afcb44146103b057600080fd5b806330adf81f116101665780635909c0d5116101405780635909c0d5146103425780635a3d54931461034b5780636a6278421461035457806370a082311461036757600080fd5b806330adf81f146102da578063313ce567146103015780633644e5151461031b57600080fd5b8063095ea7b3116101a2578063095ea7b31461024e5780630dfe16811461027157806318160ddd146102b057806323b872dd146102c757600080fd5b8063022c0d9f146101c957806306fdde03146101de5780630902f1ac1461021a575b600080fd5b6101dc6101d7366004611e96565b6104e0565b005b61020460405180604001604052806007815260200166496f746142656560c81b81525081565b6040516102119190611f50565b60405180910390f35b610222610b1a565b604080516001600160701b03948516815293909216602084015263ffffffff1690820152606001610211565b61026161025c366004611f83565b610b44565b6040519015158152602001610211565b6102987f000000000000000000000000000000000000000000000000000000000000000081565b6040516001600160a01b039091168152602001610211565b6102b960005481565b604051908152602001610211565b6102616102d5366004611faf565b610b5b565b6102b97f6e71edae12b1b97f4d1f60370fef10105fa2faae0126114a169c64845d6126c981565b610309601281565b60405160ff9091168152602001610211565b6102b97f000000000000000000000000000000000000000000000000000000000000000081565b6102b960055481565b6102b960065481565b6102b9610362366004611ff0565b610bd5565b6102b9610375366004611ff0565b60016020526000908152604090205481565b6102b960075481565b6102b961039e366004611ff0565b60036020526000908152604090205481565b6103c36103be366004611ff0565b610ee5565b60408051928352602083019190915201610211565b6103ff7f000000000000000000000000000000000000000000000000000000000000000081565b60405162ffffff9091168152602001610211565b6103ff620186a081565b61026161042b366004611f83565b611283565b6102b96103e881565b6101dc610447366004611ff0565b611290565b6102987f000000000000000000000000000000000000000000000000000000000000000081565b6102987f000000000000000000000000000000000000000000000000000000000000000081565b6101dc6104a836600461200d565b6113dd565b6102b96104bb366004612084565b600260209081526000928352604080842090915290825290205481565b6101dc61160a565b60085460011461050b5760405162461bcd60e51b8152600401610502906120bd565b60405180910390fd5b60006008558415158061051e5750600084115b61057a5760405162461bcd60e51b815260206004820152602760248201527f496f7461426565537761703a20494e53554646494349454e545f4f555450555460448201526617d05353d5539560ca1b6064820152608401610502565b600080610585610b1a565b5091509150816001600160701b0316871080156105aa5750806001600160701b031686105b6106025760405162461bcd60e51b815260206004820152602360248201527f496f7461426565537761703a20494e53554646494349454e545f4c495155494460448201526249545960e81b6064820152608401610502565b7f00000000000000000000000000000000000000000000000000000000000000006001600160a01b0316856001600160a01b03161415801561067657507f00000000000000000000000000000000000000000000000000000000000000006001600160a01b0316856001600160a01b031614155b6106c25760405162461bcd60e51b815260206004820152601760248201527f496f7461426565537761703a20494e56414c49445f544f0000000000000000006044820152606401610502565b86156106f3576106f37f00000000000000000000000000000000000000000000000000000000000000008689611768565b8515610724576107247f00000000000000000000000000000000000000000000000000000000000000008688611768565b82156107915760405163d843a2d360e01b81526001600160a01b0386169063d843a2d39061075e9033908b908b908a908a906004016120ea565b600060405180830381600087803b15801561077857600080fd5b505af115801561078c573d6000803e3d6000fd5b505050505b6040516370a0823160e01b81523060048201526000907f00000000000000000000000000000000000000000000000000000000000000006001600160a01b0316906370a0823190602401602060405180830381865afa1580156107f8573d6000803e3d6000fd5b505050506040513d601f19601f8201168201806040525081019061081c9190612136565b6040516370a0823160e01b81523060048201529091506000906001600160a01b037f000000000000000000000000000000000000000000000000000000000000000016906370a0823190602401602060405180830381865afa158015610886573d6000803e3d6000fd5b505050506040513d601f19601f820116820180604052508101906108aa9190612136565b905060006108c18a6001600160701b038716612165565b83116108ce5760006108eb565b6108e18a6001600160701b038716612165565b6108eb9084612165565b905060006109028a6001600160701b038716612165565b831161090f57600061092c565b6109228a6001600160701b038716612165565b61092c9084612165565b9050600082118061093d5750600081115b6109985760405162461bcd60e51b815260206004820152602660248201527f496f7461426565537761703a20494e53554646494349454e545f494e5055545f604482015265105353d5539560d21b6064820152608401610502565b60006109c962ffffff7f00000000000000000000000000000000000000000000000000000000000000001684612178565b6109d6620186a087612178565b6109e09190612165565b90506000610a1362ffffff7f00000000000000000000000000000000000000000000000000000000000000001684612178565b610a20620186a087612178565b610a2a9190612165565b9050610a3a6002620186a061229c565b62ffffff16610a49888a6122b0565b610a5391906122b0565b6001600160701b0316610a668284612178565b1015610aa55760405162461bcd60e51b815260206004820152600e60248201526d496f7461426565537761703a204b60901b6044820152606401610502565b5050610ab3848488886118b3565b60408051838152602081018390529081018c9052606081018b90526001600160a01b038a169033907fd78ad95fa46c994b6551d0da85fc275fe613ce37657fb8d5e3d130840159d8229060800160405180910390a350506001600855505050505050505050565b6004546001600160701b0380821692600160701b830490911691600160e01b900463ffffffff1690565b6000610b51338484611a6d565b5060015b92915050565b6001600160a01b038316600090815260026020908152604080832033845290915281205460001914610bc0576001600160a01b038416600090815260026020908152604080832033845290915281208054849290610bba908490612165565b90915550505b610bcb848484611acf565b5060019392505050565b6000600854600114610bf95760405162461bcd60e51b8152600401610502906120bd565b6000600881905580610c09610b1a565b506040516370a0823160e01b815230600482015291935091506000906001600160a01b037f000000000000000000000000000000000000000000000000000000000000000016906370a0823190602401602060405180830381865afa158015610c76573d6000803e3d6000fd5b505050506040513d601f19601f82011682018060405250810190610c9a9190612136565b6040516370a0823160e01b81523060048201529091506000906001600160a01b037f000000000000000000000000000000000000000000000000000000000000000016906370a0823190602401602060405180830381865afa158015610d04573d6000803e3d6000fd5b505050506040513d601f19601f82011682018060405250810190610d289190612136565b90506000610d3f6001600160701b03861684612165565b90506000610d566001600160701b03861684612165565b90506000610d648787611b70565b60008054919250819003610da5576103e8610d87610d828587612178565b611cbc565b610d919190612165565b9850610da060006103e8611d2c565b610dec565b610de96001600160701b038916610dbc8387612178565b610dc691906122e9565b6001600160701b038916610dda8487612178565b610de491906122e9565b611db5565b98505b60008911610e4f5760405162461bcd60e51b815260206004820152602a60248201527f496f7461426565537761703a20494e53554646494349454e545f4c495155494460448201526912551657d3525395115160b21b6064820152608401610502565b610e598a8a611d2c565b610e6586868a8a6118b3565b8115610e9757600454610e8a906001600160701b03600160701b8204811691166122b0565b6001600160701b03166007555b604080518581526020810185905233917f4c209b5fc8ad50758f13e2e1088ba56a560dff690a1c6fef26394f4c03821c4f910160405180910390a25050600160085550949695505050505050565b600080600854600114610f0a5760405162461bcd60e51b8152600401610502906120bd565b6000600881905580610f1a610b1a565b506040516370a0823160e01b815230600482015291935091507f0000000000000000000000000000000000000000000000000000000000000000907f0000000000000000000000000000000000000000000000000000000000000000906000906001600160a01b038416906370a0823190602401602060405180830381865afa158015610fab573d6000803e3d6000fd5b505050506040513d601f19601f82011682018060405250810190610fcf9190612136565b6040516370a0823160e01b81523060048201529091506000906001600160a01b038416906370a0823190602401602060405180830381865afa158015611019573d6000803e3d6000fd5b505050506040513d601f19601f8201168201806040525081019061103d9190612136565b3060009081526001602052604081205491925061105a8888611b70565b6000549091508061106b8685612178565b61107591906122e9565b9a50806110828585612178565b61108c91906122e9565b995060008b11801561109e575060008a115b6110fd5760405162461bcd60e51b815260206004820152602a60248201527f496f7461426565537761703a20494e53554646494349454e545f4c495155494460448201526912551657d0955493915160b21b6064820152608401610502565b6111073084611dcd565b611112878d8d611768565b61111d868d8c611768565b6040516370a0823160e01b81523060048201526001600160a01b038816906370a0823190602401602060405180830381865afa158015611161573d6000803e3d6000fd5b505050506040513d601f19601f820116820180604052508101906111859190612136565b6040516370a0823160e01b81523060048201529095506001600160a01b038716906370a0823190602401602060405180830381865afa1580156111cc573d6000803e3d6000fd5b505050506040513d601f19601f820116820180604052508101906111f09190612136565b93506111fe85858b8b6118b3565b811561122757600454611223906001600160701b03600160701b820481169116612178565b6007555b604080518c8152602081018c90526001600160a01b038e169133917fdccd412f0b1252819cb1fd330b93224ca42612892bb3f4f789976e6d81936496910160405180910390a35050505050505050506001600881905550915091565b6000610b51338484611acf565b6008546001146112b25760405162461bcd60e51b8152600401610502906120bd565b6000600855600480546040516370a0823160e01b81523092810192909252611369917f00000000000000000000000000000000000000000000000000000000000000009184916001600160701b03909116906001600160a01b038416906370a08231906024015b602060405180830381865afa158015611336573d6000803e3d6000fd5b505050506040513d601f19601f8201168201806040525081019061135a9190612136565b6113649190612165565b611768565b600480546040516370a0823160e01b815230928101929092526113d5917f0000000000000000000000000000000000000000000000000000000000000000918491600160701b9091046001600160701b0316906001600160a01b038416906370a0823190602401611319565b506001600855565b428410156114205760405162461bcd60e51b815260206004820152601060248201526f125bdd185099594e88115e1c1a5c995960821b6044820152606401610502565b6001600160a01b038716600090815260036020526040812080547f0000000000000000000000000000000000000000000000000000000000000000917f6e71edae12b1b97f4d1f60370fef10105fa2faae0126114a169c64845d6126c9918b918b918b918761148e836122fd565b909155506040805160208101969096526001600160a01b0394851690860152929091166060840152608083015260a082015260c0810187905260e0016040516020818303038152906040528051906020012060405160200161150792919061190160f01b81526002810192909252602282015260420190565b60408051601f198184030181528282528051602091820120600080855291840180845281905260ff88169284019290925260608301869052608083018590529092509060019060a0016020604051602081039080840390855afa158015611572573d6000803e3d6000fd5b5050604051601f1901519150506001600160a01b038116158015906115a85750886001600160a01b0316816001600160a01b0316145b6115f45760405162461bcd60e51b815260206004820152601a60248201527f496f74614265653a20494e56414c49445f5349474e41545552450000000000006044820152606401610502565b6115ff898989611a6d565b505050505050505050565b60085460011461162c5760405162461bcd60e51b8152600401610502906120bd565b60006008556040516370a0823160e01b8152306004820152611761907f00000000000000000000000000000000000000000000000000000000000000006001600160a01b0316906370a0823190602401602060405180830381865afa158015611699573d6000803e3d6000fd5b505050506040513d601f19601f820116820180604052508101906116bd9190612136565b6040516370a0823160e01b81523060048201527f00000000000000000000000000000000000000000000000000000000000000006001600160a01b0316906370a0823190602401602060405180830381865afa158015611721573d6000803e3d6000fd5b505050506040513d601f19601f820116820180604052508101906117459190612136565b6004546001600160701b0380821691600160701b9004166118b3565b6001600855565b604080518082018252601981527f7472616e7366657228616464726573732c75696e74323536290000000000000060209182015281516001600160a01b0385811660248301526044808301869052845180840390910181526064909201845291810180516001600160e01b031663a9059cbb60e01b179052915160009283928716916117f49190612316565b6000604051808303816000865af19150503d8060008114611831576040519150601f19603f3d011682016040523d82523d6000602084013e611836565b606091505b50915091508180156118605750805115806118605750808060200190518101906118609190612332565b6118ac5760405162461bcd60e51b815260206004820152601c60248201527f496f7461426565537761703a205452414e534645525f4641494c4544000000006044820152606401610502565b5050505050565b6001600160701b0384118015906118d157506001600160701b038311155b6119155760405162461bcd60e51b8152602060048201526015602482015274496f7461426565537761703a204f766572666c6f7760581b6044820152606401610502565b600061192664010000000042612354565b60045490915063ffffffff600160e01b909104811682039081161580159061195657506001600160701b03841615155b801561196a57506001600160701b03831615155b156119d5578063ffffffff166119928561198386611e50565b6001600160e01b031690611e69565b600580546001600160e01b03929092169290920201905563ffffffff81166119bd8461198387611e50565b600680546001600160e01b0392909216929092020190555b6004805463ffffffff8416600160e01b026001600160e01b036001600160701b03898116600160701b9081026001600160e01b03199095168c83161794909417918216831794859055604080519382169282169290921783529290930490911660208201527f1c411e9a96e071241c2f21f7726b17ae89e3cab4c78be50e062b03a9fffbbad1910160405180910390a1505050505050565b6001600160a01b0383811660008181526002602090815260408083209487168084529482529182902085905590518481527f8c5be1e5ebec7d5bd14f71427d1e84f3dd0314c0f7b2291e5b200ac8c7c3b92591015b60405180910390a3505050565b6001600160a01b03831660009081526001602052604081208054839290611af7908490612165565b90915550506001600160a01b03821660009081526001602052604081208054839290611b24908490612368565b92505081905550816001600160a01b0316836001600160a01b03167fddf252ad1be2c89b69c2b068fc378daa952ba7f163c4a11628f55a4df523b3ef83604051611ac291815260200190565b6000807f00000000000000000000000000000000000000000000000000000000000000006001600160a01b031663017e7e586040518163ffffffff1660e01b8152600401602060405180830381865afa158015611bd1573d6000803e3d6000fd5b505050506040513d601f19601f82011682018060405250810190611bf5919061237b565b6007546001600160a01b038216158015945091925090611ca8578015611ca3576000611c32611c2486886122b0565b6001600160701b0316611cbc565b90506000611c3f83611cbc565b905080821115611ca0576000611c558284612165565b600054611c629190612178565b9050600082611c72856005612178565b611c7c9190612368565b90506000611c8a82846122e9565b90508015611c9c57611c9c8782611d2c565b5050505b50505b611cb4565b8015611cb45760006007555b505092915050565b60006003821115611d1d5750806000611cd66002836122e9565b611ce1906001612368565b90505b81811015611d1757905080600281611cfc81866122e9565b611d069190612368565b611d1091906122e9565b9050611ce4565b50919050565b8115611d27575060015b919050565b80600080828254611d3d9190612368565b90915550506001600160a01b03821660009081526001602052604081208054839290611d6a908490612368565b90915550506040518181526001600160a01b038316906000907fddf252ad1be2c89b69c2b068fc378daa952ba7f163c4a11628f55a4df523b3ef906020015b60405180910390a35050565b6000818310611dc45781611dc6565b825b9392505050565b6001600160a01b03821660009081526001602052604081208054839290611df5908490612165565b9250508190555080600080828254611e0d9190612165565b90915550506040518181526000906001600160a01b038416907fddf252ad1be2c89b69c2b068fc378daa952ba7f163c4a11628f55a4df523b3ef90602001611da9565b6000610b55600160701b6001600160701b038416612398565b6000611dc66001600160701b038316846123ca565b6001600160a01b0381168114611e9357600080fd5b50565b600080600080600060808688031215611eae57600080fd5b85359450602086013593506040860135611ec781611e7e565b9250606086013567ffffffffffffffff80821115611ee457600080fd5b818801915088601f830112611ef857600080fd5b813581811115611f0757600080fd5b896020828501011115611f1957600080fd5b9699959850939650602001949392505050565b60005b83811015611f47578181015183820152602001611f2f565b50506000910152565b6020815260008251806020840152611f6f816040850160208701611f2c565b601f01601f19169190910160400192915050565b60008060408385031215611f9657600080fd5b8235611fa181611e7e565b946020939093013593505050565b600080600060608486031215611fc457600080fd5b8335611fcf81611e7e565b92506020840135611fdf81611e7e565b929592945050506040919091013590565b60006020828403121561200257600080fd5b8135611dc681611e7e565b600080600080600080600060e0888a03121561202857600080fd5b873561203381611e7e565b9650602088013561204381611e7e565b95506040880135945060608801359350608088013560ff8116811461206757600080fd5b9699959850939692959460a0840135945060c09093013592915050565b6000806040838503121561209757600080fd5b82356120a281611e7e565b915060208301356120b281611e7e565b809150509250929050565b602080825260139082015272125bdd1850995954ddd85c0e881313d0d2d151606a1b604082015260600190565b60018060a01b038616815284602082015283604082015260806060820152816080820152818360a0830137600081830160a090810191909152601f909201601f19160101949350505050565b60006020828403121561214857600080fd5b5051919050565b634e487b7160e01b600052601160045260246000fd5b81810381811115610b5557610b5561214f565b8082028115828204841417610b5557610b5561214f565b600181815b808511156121cb578162ffffff048211156121b1576121b161214f565b808516156121be57918102915b93841c9390800290612194565b509250929050565b6000826121e257506001610b55565b816121ef57506000610b55565b8160018114612205576002811461220f5761223f565b6001915050610b55565b60ff8411156122205761222061214f565b6001841b915062ffffff8211156122395761223961214f565b50610b55565b5060208310610133831016604e8410600b8410161715612275575081810a62ffffff8111156122705761227061214f565b610b55565b61227f838361218f565b8062ffffff048211156122945761229461214f565b029392505050565b6000611dc660ff841662ffffff84166121d3565b6001600160701b03818116838216028082169190828114611cb457611cb461214f565b634e487b7160e01b600052601260045260246000fd5b6000826122f8576122f86122d3565b500490565b60006001820161230f5761230f61214f565b5060010190565b60008251612328818460208701611f2c565b9190910192915050565b60006020828403121561234457600080fd5b81518015158114611dc657600080fd5b600082612363576123636122d3565b500690565b80820180821115610b5557610b5561214f565b60006020828403121561238d57600080fd5b8151611dc681611e7e565b6001600160e01b038281168282168181028316929181158285048214176123c1576123c161214f565b50505092915050565b60006001600160e01b03838116806123e4576123e46122d3565b9216919091049291505056fea264697066735822122070bf8e0b9163a88739745b9dc0a7e6a0bf28334bfecf0acb65c083165ea14a7364736f6c63430008110033",
    "sourcePath": "d:/contract/iotabee/core/IotaBeeSwapPool.sol",
    "compiler": {
        "name": "solc",
        "version": "0.8.17+commit.8df45f5f"
    },
    "functionHashes": {
        "DOMAIN_SEPARATOR()": "3644e515",
        "FEE_DIV_CONST()": "9ca6ce12",
        "MINIMUM_LIQUIDITY()": "ba9a7a56",
        "PERMIT_TYPEHASH()": "30adf81f",
        "allowance(address,address)": "dd62ed3e",
        "approve(address,uint256)": "095ea7b3",
        "balanceOf(address)": "70a08231",
        "burn(address)": "89afcb44",
        "decimals()": "313ce567",
        "factory()": "c45a0155",
        "feeRate()": "978bbdb9",
        "getReserves()": "0902f1ac",
        "kLast()": "7464fc3d",
        "mint(address)": "6a627842",
        "name()": "06fdde03",
        "nonces(address)": "7ecebe00",
        "permit(address,address,uint256,uint256,uint8,bytes32,bytes32)": "d505accf",
        "price0CumulativeLast()": "5909c0d5",
        "price1CumulativeLast()": "5a3d5493",
        "skim(address)": "bc25cf77",
        "swap(uint256,uint256,address,bytes)": "022c0d9f",
        "symbol()": "95d89b41",
        "sync()": "fff6cae9",
        "token0()": "0dfe1681",
        "token1()": "d21220a7",
        "totalSupply()": "18160ddd",
        "transfer(address,uint256)": "a9059cbb",
        "transferFrom(address,address,uint256)": "23b872dd"
    },
    "gasEstimates": {
        "creation": {
            "codeDepositCost": "1850800",
            "executionCost": "infinite",
            "totalCost": "infinite"
        },
        "external": {
            "DOMAIN_SEPARATOR()": "infinite",
            "FEE_DIV_CONST()": "293",
            "MINIMUM_LIQUIDITY()": "240",
            "PERMIT_TYPEHASH()": "241",
            "allowance(address,address)": "infinite",
            "approve(address,uint256)": "24568",
            "balanceOf(address)": "2624",
            "burn(address)": "infinite",
            "decimals()": "272",
            "factory()": "infinite",
            "feeRate()": "infinite",
            "getReserves()": "2549",
            "kLast()": "2341",
            "mint(address)": "infinite",
            "name()": "infinite",
            "nonces(address)": "2581",
            "permit(address,address,uint256,uint256,uint8,bytes32,bytes32)": "infinite",
            "price0CumulativeLast()": "2340",
            "price1CumulativeLast()": "2362",
            "skim(address)": "infinite",
            "swap(uint256,uint256,address,bytes)": "infinite",
            "symbol()": "infinite",
            "sync()": "infinite",
            "token0()": "infinite",
            "token1()": "infinite",
            "totalSupply()": "2385",
            "transfer(address,uint256)": "infinite",
            "transferFrom(address,address,uint256)": "infinite"
        },
        "internal": {
            "_mintFee(uint112,uint112)": "infinite",
            "_safeTransfer(address,address,uint256)": "infinite",
            "_update(uint256,uint256,uint112,uint112)": "infinite"
        }
    }
}