{
    "contractName": "IotaBeeSwapPoolDeployer",
    "abi": [
        {
            "inputs": [],
            "name": "parameters",
            "outputs": [
                {
                    "internalType": "address",
                    "name": "factory",
                    "type": "address"
                },
                {
                    "internalType": "address",
                    "name": "token0",
                    "type": "address"
                },
                {
                    "internalType": "address",
                    "name": "token1",
                    "type": "address"
                },
                {
                    "internalType": "uint24",
                    "name": "feeRate",
                    "type": "uint24"
                }
            ],
            "stateMutability": "view",
            "type": "function"
        }
    ],
    "bytecode": "6080604052348015600f57600080fd5b5060ca8061001e6000396000f3fe6080604052348015600f57600080fd5b506004361060285760003560e01c80638903573014602d575b600080fd5b600054600154600254605b926001600160a01b039081169281169190811690600160a01b900462ffffff1684565b604080516001600160a01b0395861681529385166020850152919093169082015262ffffff909116606082015260800160405180910390f3fea2646970667358221220cb691ddc2d11b96f0ed9fcc7ed821988e5c2dd6dcf55ea0b6004831c5fc6f25764736f6c63430008110033",
    "sourcePath": "d:/contract/iotabee/core/IotaBeeSwapPoolDeployer.sol",
    "compiler": {
        "name": "solc",
        "version": "0.8.17+commit.8df45f5f"
    },
    "functionHashes": {
        "parameters()": "89035730"
    },
    "gasEstimates": {
        "creation": {
            "codeDepositCost": "40400",
            "executionCost": "93",
            "totalCost": "40493"
        },
        "external": {
            "parameters()": "6643"
        },
        "internal": {
            "deploy(address,address,address,uint24)": "infinite"
        }
    }
}