{
    "contractName": "IotaBeeSwapPool",
    "abi": [
        {
            "inputs": [],
            "stateMutability": "nonpayable",
            "type": "constructor"
        },
        {
            "anonymous": false,
            "inputs": [
                {
                    "indexed": true,
                    "internalType": "address",
                    "name": "owner",
                    "type": "address"
                },
                {
                    "indexed": true,
                    "internalType": "address",
                    "name": "spender",
                    "type": "address"
                },
                {
                    "indexed": false,
                    "internalType": "uint256",
                    "name": "value",
                    "type": "uint256"
                }
            ],
            "name": "Approval",
            "type": "event"
        },
        {
            "anonymous": false,
            "inputs": [
                {
                    "indexed": true,
                    "internalType": "address",
                    "name": "sender",
                    "type": "address"
                },
                {
                    "indexed": false,
                    "internalType": "uint256",
                    "name": "amount0",
                    "type": "uint256"
                },
                {
                    "indexed": false,
                    "internalType": "uint256",
                    "name": "amount1",
                    "type": "uint256"
                },
                {
                    "indexed": true,
                    "internalType": "address",
                    "name": "to",
                    "type": "address"
                }
            ],
            "name": "Burn",
            "type": "event"
        },
        {
            "anonymous": false,
            "inputs": [
                {
                    "indexed": true,
                    "internalType": "address",
                    "name": "sender",
                    "type": "address"
                },
                {
                    "indexed": false,
                    "internalType": "uint256",
                    "name": "amount0",
                    "type": "uint256"
                },
                {
                    "indexed": false,
                    "internalType": "uint256",
                    "name": "amount1",
                    "type": "uint256"
                }
            ],
            "name": "Mint",
            "type": "event"
        },
        {
            "anonymous": false,
            "inputs": [
                {
                    "indexed": true,
                    "internalType": "address",
                    "name": "sender",
                    "type": "address"
                },
                {
                    "indexed": false,
                    "internalType": "uint256",
                    "name": "amount0In",
                    "type": "uint256"
                },
                {
                    "indexed": false,
                    "internalType": "uint256",
                    "name": "amount1In",
                    "type": "uint256"
                },
                {
                    "indexed": false,
                    "internalType": "uint256",
                    "name": "amount0Out",
                    "type": "uint256"
                },
                {
                    "indexed": false,
                    "internalType": "uint256",
                    "name": "amount1Out",
                    "type": "uint256"
                },
                {
                    "indexed": true,
                    "internalType": "address",
                    "name": "to",
                    "type": "address"
                }
            ],
            "name": "Swap",
            "type": "event"
        },
        {
            "anonymous": false,
            "inputs": [
                {
                    "indexed": false,
                    "internalType": "uint112",
                    "name": "reserve0",
                    "type": "uint112"
                },
                {
                    "indexed": false,
                    "internalType": "uint112",
                    "name": "reserve1",
                    "type": "uint112"
                }
            ],
            "name": "Sync",
            "type": "event"
        },
        {
            "anonymous": false,
            "inputs": [
                {
                    "indexed": true,
                    "internalType": "address",
                    "name": "from",
                    "type": "address"
                },
                {
                    "indexed": true,
                    "internalType": "address",
                    "name": "to",
                    "type": "address"
                },
                {
                    "indexed": false,
                    "internalType": "uint256",
                    "name": "value",
                    "type": "uint256"
                }
            ],
            "name": "Transfer",
            "type": "event"
        },
        {
            "inputs": [],
            "name": "DOMAIN_SEPARATOR",
            "outputs": [
                {
                    "internalType": "bytes32",
                    "name": "",
                    "type": "bytes32"
                }
            ],
            "stateMutability": "view",
            "type": "function"
        },
        {
            "inputs": [],
            "name": "FEE_DIV_CONST",
            "outputs": [
                {
                    "internalType": "uint40",
                    "name": "",
                    "type": "uint40"
                }
            ],
            "stateMutability": "view",
            "type": "function"
        },
        {
            "inputs": [],
            "name": "MINIMUM_LIQUIDITY",
            "outputs": [
                {
                    "internalType": "uint256",
                    "name": "",
                    "type": "uint256"
                }
            ],
            "stateMutability": "view",
            "type": "function"
        },
        {
            "inputs": [],
            "name": "PERMIT_TYPEHASH",
            "outputs": [
                {
                    "internalType": "bytes32",
                    "name": "",
                    "type": "bytes32"
                }
            ],
            "stateMutability": "view",
            "type": "function"
        },
        {
            "inputs": [
                {
                    "internalType": "address",
                    "name": "",
                    "type": "address"
                },
                {
                    "internalType": "address",
                    "name": "",
                    "type": "address"
                }
            ],
            "name": "allowance",
            "outputs": [
                {
                    "internalType": "uint256",
                    "name": "",
                    "type": "uint256"
                }
            ],
            "stateMutability": "view",
            "type": "function"
        },
        {
            "inputs": [
                {
                    "internalType": "address",
                    "name": "spender",
                    "type": "address"
                },
                {
                    "internalType": "uint256",
                    "name": "value",
                    "type": "uint256"
                }
            ],
            "name": "approve",
            "outputs": [
                {
                    "internalType": "bool",
                    "name": "",
                    "type": "bool"
                }
            ],
            "stateMutability": "nonpayable",
            "type": "function"
        },
        {
            "inputs": [
                {
                    "internalType": "address",
                    "name": "",
                    "type": "address"
                }
            ],
            "name": "balanceOf",
            "outputs": [
                {
                    "internalType": "uint256",
                    "name": "",
                    "type": "uint256"
                }
            ],
            "stateMutability": "view",
            "type": "function"
        },
        {
            "inputs": [
                {
                    "internalType": "address",
                    "name": "to",
                    "type": "address"
                }
            ],
            "name": "burn",
            "outputs": [
                {
                    "internalType": "uint256",
                    "name": "amount0",
                    "type": "uint256"
                },
                {
                    "internalType": "uint256",
                    "name": "amount1",
                    "type": "uint256"
                }
            ],
            "stateMutability": "nonpayable",
            "type": "function"
        },
        {
            "inputs": [],
            "name": "decimals",
            "outputs": [
                {
                    "internalType": "uint8",
                    "name": "",
                    "type": "uint8"
                }
            ],
            "stateMutability": "view",
            "type": "function"
        },
        {
            "inputs": [],
            "name": "factory",
            "outputs": [
                {
                    "internalType": "address",
                    "name": "",
                    "type": "address"
                }
            ],
            "stateMutability": "view",
            "type": "function"
        },
        {
            "inputs": [],
            "name": "feeRate",
            "outputs": [
                {
                    "internalType": "uint24",
                    "name": "",
                    "type": "uint24"
                }
            ],
            "stateMutability": "view",
            "type": "function"
        },
        {
            "inputs": [],
            "name": "getReserves",
            "outputs": [
                {
                    "internalType": "uint112",
                    "name": "_reserve0",
                    "type": "uint112"
                },
                {
                    "internalType": "uint112",
                    "name": "_reserve1",
                    "type": "uint112"
                },
                {
                    "internalType": "uint32",
                    "name": "_blockTimestampLast",
                    "type": "uint32"
                }
            ],
            "stateMutability": "view",
            "type": "function"
        },
        {
            "inputs": [],
            "name": "kLast",
            "outputs": [
                {
                    "internalType": "uint256",
                    "name": "",
                    "type": "uint256"
                }
            ],
            "stateMutability": "view",
            "type": "function"
        },
        {
            "inputs": [
                {
                    "internalType": "address",
                    "name": "to",
                    "type": "address"
                }
            ],
            "name": "mint",
            "outputs": [
                {
                    "internalType": "uint256",
                    "name": "liquidity",
                    "type": "uint256"
                }
            ],
            "stateMutability": "nonpayable",
            "type": "function"
        },
        {
            "inputs": [],
            "name": "name",
            "outputs": [
                {
                    "internalType": "string",
                    "name": "",
                    "type": "string"
                }
            ],
            "stateMutability": "view",
            "type": "function"
        },
        {
            "inputs": [
                {
                    "internalType": "address",
                    "name": "",
                    "type": "address"
                }
            ],
            "name": "nonces",
            "outputs": [
                {
                    "internalType": "uint256",
                    "name": "",
                    "type": "uint256"
                }
            ],
            "stateMutability": "view",
            "type": "function"
        },
        {
            "inputs": [
                {
                    "internalType": "address",
                    "name": "owner",
                    "type": "address"
                },
                {
                    "internalType": "address",
                    "name": "spender",
                    "type": "address"
                },
                {
                    "internalType": "uint256",
                    "name": "value",
                    "type": "uint256"
                },
                {
                    "internalType": "uint256",
                    "name": "deadline",
                    "type": "uint256"
                },
                {
                    "internalType": "uint8",
                    "name": "v",
                    "type": "uint8"
                },
                {
                    "internalType": "bytes32",
                    "name": "r",
                    "type": "bytes32"
                },
                {
                    "internalType": "bytes32",
                    "name": "s",
                    "type": "bytes32"
                }
            ],
            "name": "permit",
            "outputs": [],
            "stateMutability": "nonpayable",
            "type": "function"
        },
        {
            "inputs": [],
            "name": "price0CumulativeLast",
            "outputs": [
                {
                    "internalType": "uint256",
                    "name": "",
                    "type": "uint256"
                }
            ],
            "stateMutability": "view",
            "type": "function"
        },
        {
            "inputs": [],
            "name": "price1CumulativeLast",
            "outputs": [
                {
                    "internalType": "uint256",
                    "name": "",
                    "type": "uint256"
                }
            ],
            "stateMutability": "view",
            "type": "function"
        },
        {
            "inputs": [
                {
                    "internalType": "address",
                    "name": "to",
                    "type": "address"
                }
            ],
            "name": "skim",
            "outputs": [],
            "stateMutability": "nonpayable",
            "type": "function"
        },
        {
            "inputs": [
                {
                    "internalType": "uint256",
                    "name": "amount0Out",
                    "type": "uint256"
                },
                {
                    "internalType": "uint256",
                    "name": "amount1Out",
                    "type": "uint256"
                },
                {
                    "internalType": "address",
                    "name": "to",
                    "type": "address"
                },
                {
                    "internalType": "bytes",
                    "name": "data",
                    "type": "bytes"
                }
            ],
            "name": "swap",
            "outputs": [],
            "stateMutability": "nonpayable",
            "type": "function"
        },
        {
            "inputs": [],
            "name": "symbol",
            "outputs": [
                {
                    "internalType": "string",
                    "name": "",
                    "type": "string"
                }
            ],
            "stateMutability": "view",
            "type": "function"
        },
        {
            "inputs": [],
            "name": "sync",
            "outputs": [],
            "stateMutability": "nonpayable",
            "type": "function"
        },
        {
            "inputs": [],
            "name": "token0",
            "outputs": [
                {
                    "internalType": "address",
                    "name": "",
                    "type": "address"
                }
            ],
            "stateMutability": "view",
            "type": "function"
        },
        {
            "inputs": [],
            "name": "token1",
            "outputs": [
                {
                    "internalType": "address",
                    "name": "",
                    "type": "address"
                }
            ],
            "stateMutability": "view",
            "type": "function"
        },
        {
            "inputs": [],
            "name": "totalSupply",
            "outputs": [
                {
                    "internalType": "uint256",
                    "name": "",
                    "type": "uint256"
                }
            ],
            "stateMutability": "view",
            "type": "function"
        },
        {
            "inputs": [
                {
                    "internalType": "address",
                    "name": "to",
                    "type": "address"
                },
                {
                    "internalType": "uint256",
                    "name": "value",
                    "type": "uint256"
                }
            ],
            "name": "transfer",
            "outputs": [
                {
                    "internalType": "bool",
                    "name": "",
                    "type": "bool"
                }
            ],
            "stateMutability": "nonpayable",
            "type": "function"
        },
        {
            "inputs": [
                {
                    "internalType": "address",
                    "name": "from",
                    "type": "address"
                },
                {
                    "internalType": "address",
                    "name": "to",
                    "type": "address"
                },
                {
                    "internalType": "uint256",
                    "name": "value",
                    "type": "uint256"
                }
            ],
            "name": "transferFrom",
            "outputs": [
                {
                    "internalType": "bool",
                    "name": "",
                    "type": "bool"
                }
            ],
            "stateMutability": "nonpayable",
            "type": "function"
        }
    ],
    "bytecode": "61012060405260016008553480156200001757600080fd5b506040805180820182526007815266496f746142656560c81b6020918201528151808301835260018152603160f81b9082015281517f8b73c3c69bb8fe3d512ecc4cf759cc79239f7b179b0ffacaa9a75d522b39400f918101919091527f1400fd436c862c1e2397d25e81fbf58527caddf48e52a5167bc274920f40698e918101919091527fc89efdaa54c0f20c7adf612882df0950f5a951637e0307cdcb4c672f298b8bc660608201524660808201523060a082015260c00160408051601f1981840301815282825280516020909101206080908152630890357360e41b83529051339263890357309260048083019391928290030181865afa15801562000124573d6000803e3d6000fd5b505050506040513d601f19601f820116820180604052508101906200014a91906200018e565b62ffffff16610100526001600160a01b0390811660e05290811660c0521660a052620001f4565b80516001600160a01b03811681146200018957600080fd5b919050565b60008060008060808587031215620001a557600080fd5b620001b08562000171565b9350620001c06020860162000171565b9250620001d06040860162000171565b9150606085015162ffffff81168114620001e957600080fd5b939692955090935050565b60805160a05160c05160e05161010051612442620002b7600039600081816103dd015281816109b90152610a0301526000818161048e01528181610657015281816107140152818161085501528181610cd801528181610f690152818161139a01526116e40152600081816102760152818161061a015281816106e3015281816107bf01528181610c4a01528181610f47015281816112e8015261165c0152600081816104670152611b87015260008181610320015261144e01526124426000f3fe608060405234801561001057600080fd5b50600436106101c45760003560e01c80637464fc3d116100f9578063ba9a7a5611610097578063d21220a711610071578063d21220a714610489578063d505accf146104b0578063dd62ed3e146104c3578063fff6cae9146104ee57600080fd5b8063ba9a7a5614610446578063bc25cf771461044f578063c45a01551461046257600080fd5b806395d89b41116100d357806395d89b41146101de578063978bbdb9146103d85780639ca6ce1214610413578063a9059cbb1461043357600080fd5b80637464fc3d146103875780637ecebe001461039057806389afcb44146103b057600080fd5b806330adf81f116101665780635909c0d5116101405780635909c0d5146103425780635a3d54931461034b5780636a6278421461035457806370a082311461036757600080fd5b806330adf81f146102da578063313ce567146103015780633644e5151461031b57600080fd5b8063095ea7b3116101a2578063095ea7b31461024e5780630dfe16811461027157806318160ddd146102b057806323b872dd146102c757600080fd5b8063022c0d9f146101c957806306fdde03146101de5780630902f1ac1461021a575b600080fd5b6101dc6101d7366004611ea8565b6104f6565b005b61020460405180604001604052806007815260200166496f746142656560c81b81525081565b6040516102119190611f62565b60405180910390f35b610222610b35565b604080516001600160701b03948516815293909216602084015263ffffffff1690820152606001610211565b61026161025c366004611f95565b610b5f565b6040519015158152602001610211565b6102987f000000000000000000000000000000000000000000000000000000000000000081565b6040516001600160a01b039091168152602001610211565b6102b960005481565b604051908152602001610211565b6102616102d5366004611fc1565b610b76565b6102b97f6e71edae12b1b97f4d1f60370fef10105fa2faae0126114a169c64845d6126c981565b610309601281565b60405160ff9091168152602001610211565b6102b97f000000000000000000000000000000000000000000000000000000000000000081565b6102b960055481565b6102b960065481565b6102b9610362366004612002565b610bf0565b6102b9610375366004612002565b60016020526000908152604090205481565b6102b960075481565b6102b961039e366004612002565b60036020526000908152604090205481565b6103c36103be366004612002565b610ef7565b60408051928352602083019190915201610211565b6103ff7f000000000000000000000000000000000000000000000000000000000000000081565b60405162ffffff9091168152602001610211565b61041d620186a081565b60405164ffffffffff9091168152602001610211565b610261610441366004611f95565b611295565b6102b96103e881565b6101dc61045d366004612002565b6112a2565b6102987f000000000000000000000000000000000000000000000000000000000000000081565b6102987f000000000000000000000000000000000000000000000000000000000000000081565b6101dc6104be36600461201f565b6113ef565b6102b96104d1366004612096565b600260209081526000928352604080842090915290825290205481565b6101dc61161c565b6008546001146105215760405162461bcd60e51b8152600401610518906120cf565b60405180910390fd5b6000600855841515806105345750600084115b6105905760405162461bcd60e51b815260206004820152602760248201527f496f7461426565537761703a20494e53554646494349454e545f4f555450555460448201526617d05353d5539560ca1b6064820152608401610518565b60008061059b610b35565b5091509150816001600160701b0316871080156105c05750806001600160701b031686105b6106185760405162461bcd60e51b815260206004820152602360248201527f496f7461426565537761703a20494e53554646494349454e545f4c495155494460448201526249545960e81b6064820152608401610518565b7f00000000000000000000000000000000000000000000000000000000000000006001600160a01b0316856001600160a01b03161415801561068c57507f00000000000000000000000000000000000000000000000000000000000000006001600160a01b0316856001600160a01b031614155b6106d85760405162461bcd60e51b815260206004820152601760248201527f496f7461426565537761703a20494e56414c49445f544f0000000000000000006044820152606401610518565b8615610709576107097f0000000000000000000000000000000000000000000000000000000000000000868961177a565b851561073a5761073a7f0000000000000000000000000000000000000000000000000000000000000000868861177a565b82156107a75760405163d843a2d360e01b81526001600160a01b0386169063d843a2d3906107749033908b908b908a908a906004016120fc565b600060405180830381600087803b15801561078e57600080fd5b505af11580156107a2573d6000803e3d6000fd5b505050505b6040516370a0823160e01b81523060048201526000907f00000000000000000000000000000000000000000000000000000000000000006001600160a01b0316906370a0823190602401602060405180830381865afa15801561080e573d6000803e3d6000fd5b505050506040513d601f19601f820116820180604052508101906108329190612148565b6040516370a0823160e01b81523060048201529091506000906001600160a01b037f000000000000000000000000000000000000000000000000000000000000000016906370a0823190602401602060405180830381865afa15801561089c573d6000803e3d6000fd5b505050506040513d601f19601f820116820180604052508101906108c09190612148565b905060006108d78a6001600160701b038716612177565b83116108e4576000610901565b6108f78a6001600160701b038716612177565b6109019084612177565b905060006109188a6001600160701b038716612177565b8311610925576000610942565b6109388a6001600160701b038716612177565b6109429084612177565b905060008211806109535750600081115b6109ae5760405162461bcd60e51b815260206004820152602660248201527f496f7461426565537761703a20494e53554646494349454e545f494e5055545f604482015265105353d5539560d21b6064820152608401610518565b60006109df62ffffff7f0000000000000000000000000000000000000000000000000000000000000000168461218a565b6109ec620186a08761218a565b6109f69190612177565b90506000610a2962ffffff7f0000000000000000000000000000000000000000000000000000000000000000168461218a565b610a36620186a08761218a565b610a409190612177565b9050610a506002620186a06122b6565b64ffffffffff16610a6d6001600160701b03808a16908b1661218a565b610a77919061218a565b610a81828461218a565b1015610ac05760405162461bcd60e51b815260206004820152600e60248201526d496f7461426565537761703a204b60901b6044820152606401610518565b5050610ace848488886118c5565b60408051838152602081018390529081018c9052606081018b90526001600160a01b038a169033907fd78ad95fa46c994b6551d0da85fc275fe613ce37657fb8d5e3d130840159d8229060800160405180910390a350506001600855505050505050505050565b6004546001600160701b0380821692600160701b830490911691600160e01b900463ffffffff1690565b6000610b6c338484611a7f565b5060015b92915050565b6001600160a01b038316600090815260026020908152604080832033845290915281205460001914610bdb576001600160a01b038416600090815260026020908152604080832033845290915281208054849290610bd5908490612177565b90915550505b610be6848484611ae1565b5060019392505050565b6000600854600114610c145760405162461bcd60e51b8152600401610518906120cf565b6000600881905580610c24610b35565b506040516370a0823160e01b815230600482015291935091506000906001600160a01b037f000000000000000000000000000000000000000000000000000000000000000016906370a0823190602401602060405180830381865afa158015610c91573d6000803e3d6000fd5b505050506040513d601f19601f82011682018060405250810190610cb59190612148565b6040516370a0823160e01b81523060048201529091506000906001600160a01b037f000000000000000000000000000000000000000000000000000000000000000016906370a0823190602401602060405180830381865afa158015610d1f573d6000803e3d6000fd5b505050506040513d601f19601f82011682018060405250810190610d439190612148565b90506000610d5a6001600160701b03861684612177565b90506000610d716001600160701b03861684612177565b90506000610d7f8787611b82565b60008054919250819003610dc0576103e8610da2610d9d858761218a565b611cce565b610dac9190612177565b9850610dbb60006103e8611d3e565b610e07565b610e046001600160701b038916610dd7838761218a565b610de191906122e2565b6001600160701b038916610df5848761218a565b610dff91906122e2565b611dc7565b98505b60008911610e6a5760405162461bcd60e51b815260206004820152602a60248201527f496f7461426565537761703a20494e53554646494349454e545f4c495155494460448201526912551657d3525395115160b21b6064820152608401610518565b610e748a8a611d3e565b610e8086868a8a6118c5565b8115610ea957600454610ea5906001600160701b03600160701b82048116911661218a565b6007555b604080518581526020810185905233917f4c209b5fc8ad50758f13e2e1088ba56a560dff690a1c6fef26394f4c03821c4f910160405180910390a25050600160085550949695505050505050565b600080600854600114610f1c5760405162461bcd60e51b8152600401610518906120cf565b6000600881905580610f2c610b35565b506040516370a0823160e01b815230600482015291935091507f0000000000000000000000000000000000000000000000000000000000000000907f0000000000000000000000000000000000000000000000000000000000000000906000906001600160a01b038416906370a0823190602401602060405180830381865afa158015610fbd573d6000803e3d6000fd5b505050506040513d601f19601f82011682018060405250810190610fe19190612148565b6040516370a0823160e01b81523060048201529091506000906001600160a01b038416906370a0823190602401602060405180830381865afa15801561102b573d6000803e3d6000fd5b505050506040513d601f19601f8201168201806040525081019061104f9190612148565b3060009081526001602052604081205491925061106c8888611b82565b6000549091508061107d868561218a565b61108791906122e2565b9a5080611094858561218a565b61109e91906122e2565b995060008b1180156110b0575060008a115b61110f5760405162461bcd60e51b815260206004820152602a60248201527f496f7461426565537761703a20494e53554646494349454e545f4c495155494460448201526912551657d0955493915160b21b6064820152608401610518565b6111193084611ddf565b611124878d8d61177a565b61112f868d8c61177a565b6040516370a0823160e01b81523060048201526001600160a01b038816906370a0823190602401602060405180830381865afa158015611173573d6000803e3d6000fd5b505050506040513d601f19601f820116820180604052508101906111979190612148565b6040516370a0823160e01b81523060048201529095506001600160a01b038716906370a0823190602401602060405180830381865afa1580156111de573d6000803e3d6000fd5b505050506040513d601f19601f820116820180604052508101906112029190612148565b935061121085858b8b6118c5565b811561123957600454611235906001600160701b03600160701b82048116911661218a565b6007555b604080518c8152602081018c90526001600160a01b038e169133917fdccd412f0b1252819cb1fd330b93224ca42612892bb3f4f789976e6d81936496910160405180910390a35050505050505050506001600881905550915091565b6000610b6c338484611ae1565b6008546001146112c45760405162461bcd60e51b8152600401610518906120cf565b6000600855600480546040516370a0823160e01b8152309281019290925261137b917f00000000000000000000000000000000000000000000000000000000000000009184916001600160701b03909116906001600160a01b038416906370a08231906024015b602060405180830381865afa158015611348573d6000803e3d6000fd5b505050506040513d601f19601f8201168201806040525081019061136c9190612148565b6113769190612177565b61177a565b600480546040516370a0823160e01b815230928101929092526113e7917f0000000000000000000000000000000000000000000000000000000000000000918491600160701b9091046001600160701b0316906001600160a01b038416906370a082319060240161132b565b506001600855565b428410156114325760405162461bcd60e51b815260206004820152601060248201526f125bdd185099594e88115e1c1a5c995960821b6044820152606401610518565b6001600160a01b038716600090815260036020526040812080547f0000000000000000000000000000000000000000000000000000000000000000917f6e71edae12b1b97f4d1f60370fef10105fa2faae0126114a169c64845d6126c9918b918b918b91876114a0836122f6565b909155506040805160208101969096526001600160a01b0394851690860152929091166060840152608083015260a082015260c0810187905260e0016040516020818303038152906040528051906020012060405160200161151992919061190160f01b81526002810192909252602282015260420190565b60408051601f198184030181528282528051602091820120600080855291840180845281905260ff88169284019290925260608301869052608083018590529092509060019060a0016020604051602081039080840390855afa158015611584573d6000803e3d6000fd5b5050604051601f1901519150506001600160a01b038116158015906115ba5750886001600160a01b0316816001600160a01b0316145b6116065760405162461bcd60e51b815260206004820152601a60248201527f496f74614265653a20494e56414c49445f5349474e41545552450000000000006044820152606401610518565b611611898989611a7f565b505050505050505050565b60085460011461163e5760405162461bcd60e51b8152600401610518906120cf565b60006008556040516370a0823160e01b8152306004820152611773907f00000000000000000000000000000000000000000000000000000000000000006001600160a01b0316906370a0823190602401602060405180830381865afa1580156116ab573d6000803e3d6000fd5b505050506040513d601f19601f820116820180604052508101906116cf9190612148565b6040516370a0823160e01b81523060048201527f00000000000000000000000000000000000000000000000000000000000000006001600160a01b0316906370a0823190602401602060405180830381865afa158015611733573d6000803e3d6000fd5b505050506040513d601f19601f820116820180604052508101906117579190612148565b6004546001600160701b0380821691600160701b9004166118c5565b6001600855565b604080518082018252601981527f7472616e7366657228616464726573732c75696e74323536290000000000000060209182015281516001600160a01b0385811660248301526044808301869052845180840390910181526064909201845291810180516001600160e01b031663a9059cbb60e01b17905291516000928392871691611806919061230f565b6000604051808303816000865af19150503d8060008114611843576040519150601f19603f3d011682016040523d82523d6000602084013e611848565b606091505b5091509150818015611872575080511580611872575080806020019051810190611872919061232b565b6118be5760405162461bcd60e51b815260206004820152601c60248201527f496f7461426565537761703a205452414e534645525f4641494c4544000000006044820152606401610518565b5050505050565b6001600160701b0384118015906118e357506001600160701b038311155b6119275760405162461bcd60e51b8152602060048201526015602482015274496f7461426565537761703a204f766572666c6f7760581b6044820152606401610518565b60006119386401000000004261234d565b60045490915063ffffffff600160e01b909104811682039081161580159061196857506001600160701b03841615155b801561197c57506001600160701b03831615155b156119e7578063ffffffff166119a48561199586611e62565b6001600160e01b031690611e7b565b600580546001600160e01b03929092169290920201905563ffffffff81166119cf8461199587611e62565b600680546001600160e01b0392909216929092020190555b6004805463ffffffff8416600160e01b026001600160e01b036001600160701b03898116600160701b9081026001600160e01b03199095168c83161794909417918216831794859055604080519382169282169290921783529290930490911660208201527f1c411e9a96e071241c2f21f7726b17ae89e3cab4c78be50e062b03a9fffbbad1910160405180910390a1505050505050565b6001600160a01b0383811660008181526002602090815260408083209487168084529482529182902085905590518481527f8c5be1e5ebec7d5bd14f71427d1e84f3dd0314c0f7b2291e5b200ac8c7c3b92591015b60405180910390a3505050565b6001600160a01b03831660009081526001602052604081208054839290611b09908490612177565b90915550506001600160a01b03821660009081526001602052604081208054839290611b36908490612361565b92505081905550816001600160a01b0316836001600160a01b03167fddf252ad1be2c89b69c2b068fc378daa952ba7f163c4a11628f55a4df523b3ef83604051611ad491815260200190565b6000807f00000000000000000000000000000000000000000000000000000000000000006001600160a01b031663017e7e586040518163ffffffff1660e01b8152600401602060405180830381865afa158015611be3573d6000803e3d6000fd5b505050506040513d601f19601f82011682018060405250810190611c079190612374565b6007546001600160a01b038216158015945091925090611cba578015611cb5576000611c44611c368688612391565b6001600160701b0316611cce565b90506000611c5183611cce565b905080821115611cb2576000611c678284612177565b600054611c74919061218a565b9050600082611c8485600561218a565b611c8e9190612361565b90506000611c9c82846122e2565b90508015611cae57611cae8782611d3e565b5050505b50505b611cc6565b8015611cc65760006007555b505092915050565b60006003821115611d2f5750806000611ce86002836122e2565b611cf3906001612361565b90505b81811015611d2957905080600281611d0e81866122e2565b611d189190612361565b611d2291906122e2565b9050611cf6565b50919050565b8115611d39575060015b919050565b80600080828254611d4f9190612361565b90915550506001600160a01b03821660009081526001602052604081208054839290611d7c908490612361565b90915550506040518181526001600160a01b038316906000907fddf252ad1be2c89b69c2b068fc378daa952ba7f163c4a11628f55a4df523b3ef906020015b60405180910390a35050565b6000818310611dd65781611dd8565b825b9392505050565b6001600160a01b03821660009081526001602052604081208054839290611e07908490612177565b9250508190555080600080828254611e1f9190612177565b90915550506040518181526000906001600160a01b038416907fddf252ad1be2c89b69c2b068fc378daa952ba7f163c4a11628f55a4df523b3ef90602001611dbb565b6000610b70600160701b6001600160701b0384166123b4565b6000611dd86001600160701b038316846123e6565b6001600160a01b0381168114611ea557600080fd5b50565b600080600080600060808688031215611ec057600080fd5b85359450602086013593506040860135611ed981611e90565b9250606086013567ffffffffffffffff80821115611ef657600080fd5b818801915088601f830112611f0a57600080fd5b813581811115611f1957600080fd5b896020828501011115611f2b57600080fd5b9699959850939650602001949392505050565b60005b83811015611f59578181015183820152602001611f41565b50506000910152565b6020815260008251806020840152611f81816040850160208701611f3e565b601f01601f19169190910160400192915050565b60008060408385031215611fa857600080fd5b8235611fb381611e90565b946020939093013593505050565b600080600060608486031215611fd657600080fd5b8335611fe181611e90565b92506020840135611ff181611e90565b929592945050506040919091013590565b60006020828403121561201457600080fd5b8135611dd881611e90565b600080600080600080600060e0888a03121561203a57600080fd5b873561204581611e90565b9650602088013561205581611e90565b95506040880135945060608801359350608088013560ff8116811461207957600080fd5b9699959850939692959460a0840135945060c09093013592915050565b600080604083850312156120a957600080fd5b82356120b481611e90565b915060208301356120c481611e90565b809150509250929050565b602080825260139082015272125bdd1850995954ddd85c0e881313d0d2d151606a1b604082015260600190565b60018060a01b038616815284602082015283604082015260806060820152816080820152818360a0830137600081830160a090810191909152601f909201601f19160101949350505050565b60006020828403121561215a57600080fd5b5051919050565b634e487b7160e01b600052601160045260246000fd5b81810381811115610b7057610b70612161565b8082028115828204841417610b7057610b70612161565b600181815b808511156121df578164ffffffffff048211156121c5576121c5612161565b808516156121d257918102915b93841c93908002906121a6565b509250929050565b6000826121f657506001610b70565b8161220357506000610b70565b8160018114612219576002811461222357612255565b6001915050610b70565b60ff84111561223457612234612161565b6001841b915064ffffffffff82111561224f5761224f612161565b50610b70565b5060208310610133831016604e8410600b841016171561228d575081810a64ffffffffff81111561228857612288612161565b610b70565b61229783836121a1565b8064ffffffffff048211156122ae576122ae612161565b029392505050565b6000611dd860ff841664ffffffffff84166121e7565b634e487b7160e01b600052601260045260246000fd5b6000826122f1576122f16122cc565b500490565b60006001820161230857612308612161565b5060010190565b60008251612321818460208701611f3e565b9190910192915050565b60006020828403121561233d57600080fd5b81518015158114611dd857600080fd5b60008261235c5761235c6122cc565b500690565b80820180821115610b7057610b70612161565b60006020828403121561238657600080fd5b8151611dd881611e90565b6001600160701b03818116838216028082169190828114611cc657611cc6612161565b6001600160e01b038281168282168181028316929181158285048214176123dd576123dd612161565b50505092915050565b60006001600160e01b0383811680612400576124006122cc565b9216919091049291505056fea2646970667358221220ab537f9a99dcb5fcb67061ee22e0b6563d1d9e898c7a73bf680920a68b33c99c64736f6c63430008110033",
    "sourcePath": "d:/contract/iotabee/core/IotaBeeSwapPool.sol",
    "compiler": {
        "name": "solc",
        "version": "0.8.17+commit.8df45f5f"
    },
    "functionHashes": {
        "DOMAIN_SEPARATOR()": "3644e515",
        "FEE_DIV_CONST()": "9ca6ce12",
        "MINIMUM_LIQUIDITY()": "ba9a7a56",
        "PERMIT_TYPEHASH()": "30adf81f",
        "allowance(address,address)": "dd62ed3e",
        "approve(address,uint256)": "095ea7b3",
        "balanceOf(address)": "70a08231",
        "burn(address)": "89afcb44",
        "decimals()": "313ce567",
        "factory()": "c45a0155",
        "feeRate()": "978bbdb9",
        "getReserves()": "0902f1ac",
        "kLast()": "7464fc3d",
        "mint(address)": "6a627842",
        "name()": "06fdde03",
        "nonces(address)": "7ecebe00",
        "permit(address,address,uint256,uint256,uint8,bytes32,bytes32)": "d505accf",
        "price0CumulativeLast()": "5909c0d5",
        "price1CumulativeLast()": "5a3d5493",
        "skim(address)": "bc25cf77",
        "swap(uint256,uint256,address,bytes)": "022c0d9f",
        "symbol()": "95d89b41",
        "sync()": "fff6cae9",
        "token0()": "0dfe1681",
        "token1()": "d21220a7",
        "totalSupply()": "18160ddd",
        "transfer(address,uint256)": "a9059cbb",
        "transferFrom(address,address,uint256)": "23b872dd"
    },
    "gasEstimates": {
        "creation": {
            "codeDepositCost": "1856400",
            "executionCost": "infinite",
            "totalCost": "infinite"
        },
        "external": {
            "DOMAIN_SEPARATOR()": "infinite",
            "FEE_DIV_CONST()": "293",
            "MINIMUM_LIQUIDITY()": "240",
            "PERMIT_TYPEHASH()": "241",
            "allowance(address,address)": "infinite",
            "approve(address,uint256)": "24568",
            "balanceOf(address)": "2624",
            "burn(address)": "infinite",
            "decimals()": "272",
            "factory()": "infinite",
            "feeRate()": "infinite",
            "getReserves()": "2549",
            "kLast()": "2341",
            "mint(address)": "infinite",
            "name()": "infinite",
            "nonces(address)": "2581",
            "permit(address,address,uint256,uint256,uint8,bytes32,bytes32)": "infinite",
            "price0CumulativeLast()": "2340",
            "price1CumulativeLast()": "2362",
            "skim(address)": "infinite",
            "swap(uint256,uint256,address,bytes)": "infinite",
            "symbol()": "infinite",
            "sync()": "infinite",
            "token0()": "infinite",
            "token1()": "infinite",
            "totalSupply()": "2385",
            "transfer(address,uint256)": "infinite",
            "transferFrom(address,address,uint256)": "infinite"
        },
        "internal": {
            "_mintFee(uint112,uint112)": "infinite",
            "_safeTransfer(address,address,uint256)": "infinite",
            "_update(uint256,uint256,uint112,uint112)": "infinite"
        }
    }
}