{
    "contractName": "FixedPoint",
    "abi": [
        {
            "inputs": [],
            "name": "Q112",
            "outputs": [
                {
                    "internalType": "uint256",
                    "name": "",
                    "type": "uint256"
                }
            ],
            "stateMutability": "view",
            "type": "function"
        },
        {
            "inputs": [],
            "name": "RESOLUTION",
            "outputs": [
                {
                    "internalType": "uint8",
                    "name": "",
                    "type": "uint8"
                }
            ],
            "stateMutability": "view",
            "type": "function"
        }
    ],
    "bytecode": "60ad610039600b82828239805160001a60731461002c57634e487b7160e01b600052600060045260246000fd5b30600052607381538281f3fe7300000000000000000000000000000000000000003014608060405260043610603d5760003560e01c80633bf7a83e146042578063552f888a14605f575b600080fd5b604c600160701b81565b6040519081526020015b60405180910390f35b6066607081565b60405160ff9091168152602001605656fea2646970667358221220b516801e047e99cc5007d34a1520d508aa71e84c8b13c34178bffb5a9a5d96ab64736f6c63430008110033",
    "sourcePath": "d:/contract/iotabee/periphery/libraries/FixedPoint.sol",
    "compiler": {
        "name": "solc",
        "version": "0.8.17+commit.8df45f5f"
    },
    "functionHashes": {
        "Q112()": "3bf7a83e",
        "RESOLUTION()": "552f888a"
    },
    "gasEstimates": {
        "creation": {
            "codeDepositCost": "34600",
            "executionCost": "118",
            "totalCost": "34718"
        },
        "external": {
            "Q112()": "152",
            "RESOLUTION()": "188"
        },
        "internal": {
            "decode(struct FixedPoint.uq112x112 memory)": "infinite",
            "decode144(struct FixedPoint.uq144x112 memory)": "infinite",
            "divuq(struct FixedPoint.uq112x112 memory,struct FixedPoint.uq112x112 memory)": "infinite",
            "encode(uint112)": "infinite",
            "encode144(uint144)": "infinite",
            "fraction(uint256,uint256)": "infinite",
            "mul(struct FixedPoint.uq112x112 memory,uint256)": "infinite",
            "muli(struct FixedPoint.uq112x112 memory,int256)": "infinite",
            "muluq(struct FixedPoint.uq112x112 memory,struct FixedPoint.uq112x112 memory)": "infinite",
            "reciprocal(struct FixedPoint.uq112x112 memory)": "infinite",
            "sqrt(struct FixedPoint.uq112x112 memory)": "infinite"
        }
    }
}