{
    "contractName": "IotaBeeSwapLibrary",
    "abi": [
        {
            "inputs": [],
            "name": "FEE_DIV_CONST",
            "outputs": [
                {
                    "internalType": "uint24",
                    "name": "",
                    "type": "uint24"
                }
            ],
            "stateMutability": "view",
            "type": "function"
        }
    ],
    "bytecode": "608f610038600b82828239805160001a607314602b57634e487b7160e01b600052600060045260246000fd5b30600052607381538281f3fe730000000000000000000000000000000000000000301460806040526004361060335760003560e01c80639ca6ce12146038575b600080fd5b6041620186a081565b60405162ffffff909116815260200160405180910390f3fea26469706673582212203af27332526a6597cd8762d529b77f5d99266231d7efb33fdb06b0276febe50d64736f6c63430008110033",
    "sourcePath": "d:/contract/iotabee/periphery/libraries/IotaBeeSwapLibrary.sol",
    "compiler": {
        "name": "solc",
        "version": "0.8.17+commit.8df45f5f"
    },
    "functionHashes": {
        "FEE_DIV_CONST()": "9ca6ce12"
    },
    "gasEstimates": {
        "creation": {
            "codeDepositCost": "28600",
            "executionCost": "112",
            "totalCost": "28712"
        },
        "external": {
            "FEE_DIV_CONST()": "154"
        },
        "internal": {
            "getAmountIn(uint256,uint256,uint256,uint24)": "infinite",
            "getAmountOut(uint256,uint256,uint256,uint24)": "infinite",
            "getAmountsIn(address,uint256,address[] memory,uint24[] memory)": "infinite",
            "getAmountsOut(address,uint256,address[] memory,uint24[] memory)": "infinite",
            "getReserves(address,address,address,uint24)": "infinite",
            "poolFor(address,address,address,uint24)": "infinite",
            "quote(uint256,uint256,uint256)": "infinite",
            "sortTokens(address,address)": "infinite"
        }
    }
}