{
    "contractName": "IotaBeeSwapLpRouter",
    "abi": [
        {
            "inputs": [
                {
                    "internalType": "address",
                    "name": "_factory",
                    "type": "address"
                },
                {
                    "internalType": "address",
                    "name": "_WETH",
                    "type": "address"
                }
            ],
            "stateMutability": "nonpayable",
            "type": "constructor"
        },
        {
            "inputs": [],
            "name": "WETH",
            "outputs": [
                {
                    "internalType": "address",
                    "name": "",
                    "type": "address"
                }
            ],
            "stateMutability": "view",
            "type": "function"
        },
        {
            "inputs": [
                {
                    "internalType": "address",
                    "name": "tokenA",
                    "type": "address"
                },
                {
                    "internalType": "address",
                    "name": "tokenB",
                    "type": "address"
                },
                {
                    "internalType": "uint24",
                    "name": "feeRate",
                    "type": "uint24"
                },
                {
                    "internalType": "uint256",
                    "name": "amountADesired",
                    "type": "uint256"
                },
                {
                    "internalType": "uint256",
                    "name": "amountBDesired",
                    "type": "uint256"
                },
                {
                    "internalType": "uint256",
                    "name": "amountAMin",
                    "type": "uint256"
                },
                {
                    "internalType": "uint256",
                    "name": "amountBMin",
                    "type": "uint256"
                },
                {
                    "internalType": "address",
                    "name": "to",
                    "type": "address"
                },
                {
                    "internalType": "uint256",
                    "name": "deadline",
                    "type": "uint256"
                }
            ],
            "name": "addLiquidity",
            "outputs": [
                {
                    "internalType": "uint256",
                    "name": "amountA",
                    "type": "uint256"
                },
                {
                    "internalType": "uint256",
                    "name": "amountB",
                    "type": "uint256"
                },
                {
                    "internalType": "uint256",
                    "name": "liquidity",
                    "type": "uint256"
                }
            ],
            "stateMutability": "nonpayable",
            "type": "function"
        },
        {
            "inputs": [
                {
                    "internalType": "address",
                    "name": "token",
                    "type": "address"
                },
                {
                    "internalType": "uint24",
                    "name": "feeRate",
                    "type": "uint24"
                },
                {
                    "internalType": "uint256",
                    "name": "amountTokenDesired",
                    "type": "uint256"
                },
                {
                    "internalType": "uint256",
                    "name": "amountTokenMin",
                    "type": "uint256"
                },
                {
                    "internalType": "uint256",
                    "name": "amountETHMin",
                    "type": "uint256"
                },
                {
                    "internalType": "address",
                    "name": "to",
                    "type": "address"
                },
                {
                    "internalType": "uint256",
                    "name": "deadline",
                    "type": "uint256"
                }
            ],
            "name": "addLiquidityETH",
            "outputs": [
                {
                    "internalType": "uint256",
                    "name": "amountToken",
                    "type": "uint256"
                },
                {
                    "internalType": "uint256",
                    "name": "amountETH",
                    "type": "uint256"
                },
                {
                    "internalType": "uint256",
                    "name": "liquidity",
                    "type": "uint256"
                }
            ],
            "stateMutability": "payable",
            "type": "function"
        },
        {
            "inputs": [],
            "name": "factory",
            "outputs": [
                {
                    "internalType": "address",
                    "name": "",
                    "type": "address"
                }
            ],
            "stateMutability": "view",
            "type": "function"
        },
        {
            "inputs": [
                {
                    "internalType": "uint256",
                    "name": "amountOut",
                    "type": "uint256"
                },
                {
                    "internalType": "uint256",
                    "name": "reserveIn",
                    "type": "uint256"
                },
                {
                    "internalType": "uint256",
                    "name": "reserveOut",
                    "type": "uint256"
                },
                {
                    "internalType": "uint24",
                    "name": "feeRate",
                    "type": "uint24"
                }
            ],
            "name": "getAmountIn",
            "outputs": [
                {
                    "internalType": "uint256",
                    "name": "amountIn",
                    "type": "uint256"
                }
            ],
            "stateMutability": "pure",
            "type": "function"
        },
        {
            "inputs": [
                {
                    "internalType": "uint256",
                    "name": "amountIn",
                    "type": "uint256"
                },
                {
                    "internalType": "uint256",
                    "name": "reserveIn",
                    "type": "uint256"
                },
                {
                    "internalType": "uint256",
                    "name": "reserveOut",
                    "type": "uint256"
                },
                {
                    "internalType": "uint24",
                    "name": "feeRate",
                    "type": "uint24"
                }
            ],
            "name": "getAmountOut",
            "outputs": [
                {
                    "internalType": "uint256",
                    "name": "amountOut",
                    "type": "uint256"
                }
            ],
            "stateMutability": "pure",
            "type": "function"
        },
        {
            "inputs": [
                {
                    "internalType": "uint256",
                    "name": "amountOut",
                    "type": "uint256"
                },
                {
                    "internalType": "address[]",
                    "name": "path",
                    "type": "address[]"
                },
                {
                    "internalType": "uint24[]",
                    "name": "feeRates",
                    "type": "uint24[]"
                }
            ],
            "name": "getAmountsIn",
            "outputs": [
                {
                    "internalType": "uint256[]",
                    "name": "amounts",
                    "type": "uint256[]"
                }
            ],
            "stateMutability": "view",
            "type": "function"
        },
        {
            "inputs": [
                {
                    "internalType": "uint256",
                    "name": "amountIn",
                    "type": "uint256"
                },
                {
                    "internalType": "address[]",
                    "name": "path",
                    "type": "address[]"
                },
                {
                    "internalType": "uint24[]",
                    "name": "feeRates",
                    "type": "uint24[]"
                }
            ],
            "name": "getAmountsOut",
            "outputs": [
                {
                    "internalType": "uint256[]",
                    "name": "amounts",
                    "type": "uint256[]"
                }
            ],
            "stateMutability": "view",
            "type": "function"
        },
        {
            "inputs": [
                {
                    "internalType": "uint256",
                    "name": "amountA",
                    "type": "uint256"
                },
                {
                    "internalType": "uint256",
                    "name": "reserveA",
                    "type": "uint256"
                },
                {
                    "internalType": "uint256",
                    "name": "reserveB",
                    "type": "uint256"
                }
            ],
            "name": "quote",
            "outputs": [
                {
                    "internalType": "uint256",
                    "name": "amountB",
                    "type": "uint256"
                }
            ],
            "stateMutability": "pure",
            "type": "function"
        },
        {
            "inputs": [
                {
                    "internalType": "address",
                    "name": "tokenA",
                    "type": "address"
                },
                {
                    "internalType": "address",
                    "name": "tokenB",
                    "type": "address"
                },
                {
                    "internalType": "uint24",
                    "name": "feeRate",
                    "type": "uint24"
                },
                {
                    "internalType": "uint256",
                    "name": "liquidity",
                    "type": "uint256"
                },
                {
                    "internalType": "uint256",
                    "name": "amountAMin",
                    "type": "uint256"
                },
                {
                    "internalType": "uint256",
                    "name": "amountBMin",
                    "type": "uint256"
                },
                {
                    "internalType": "address",
                    "name": "to",
                    "type": "address"
                },
                {
                    "internalType": "uint256",
                    "name": "deadline",
                    "type": "uint256"
                }
            ],
            "name": "removeLiquidity",
            "outputs": [
                {
                    "internalType": "uint256",
                    "name": "amountA",
                    "type": "uint256"
                },
                {
                    "internalType": "uint256",
                    "name": "amountB",
                    "type": "uint256"
                }
            ],
            "stateMutability": "nonpayable",
            "type": "function"
        },
        {
            "inputs": [
                {
                    "internalType": "address",
                    "name": "token",
                    "type": "address"
                },
                {
                    "internalType": "uint24",
                    "name": "feeRate",
                    "type": "uint24"
                },
                {
                    "internalType": "uint256",
                    "name": "liquidity",
                    "type": "uint256"
                },
                {
                    "internalType": "uint256",
                    "name": "amountTokenMin",
                    "type": "uint256"
                },
                {
                    "internalType": "uint256",
                    "name": "amountETHMin",
                    "type": "uint256"
                },
                {
                    "internalType": "address",
                    "name": "to",
                    "type": "address"
                },
                {
                    "internalType": "uint256",
                    "name": "deadline",
                    "type": "uint256"
                }
            ],
            "name": "removeLiquidityETH",
            "outputs": [
                {
                    "internalType": "uint256",
                    "name": "amountToken",
                    "type": "uint256"
                },
                {
                    "internalType": "uint256",
                    "name": "amountETH",
                    "type": "uint256"
                }
            ],
            "stateMutability": "nonpayable",
            "type": "function"
        },
        {
            "inputs": [
                {
                    "internalType": "address",
                    "name": "token",
                    "type": "address"
                },
                {
                    "internalType": "uint24",
                    "name": "feeRate",
                    "type": "uint24"
                },
                {
                    "internalType": "uint256",
                    "name": "liquidity",
                    "type": "uint256"
                },
                {
                    "internalType": "uint256",
                    "name": "amountTokenMin",
                    "type": "uint256"
                },
                {
                    "internalType": "uint256",
                    "name": "amountETHMin",
                    "type": "uint256"
                },
                {
                    "internalType": "address",
                    "name": "to",
                    "type": "address"
                },
                {
                    "internalType": "uint256",
                    "name": "deadline",
                    "type": "uint256"
                }
            ],
            "name": "removeLiquidityETHSupportingFeeOnTransferTokens",
            "outputs": [
                {
                    "internalType": "uint256",
                    "name": "amountETH",
                    "type": "uint256"
                }
            ],
            "stateMutability": "nonpayable",
            "type": "function"
        },
        {
            "inputs": [
                {
                    "internalType": "address",
                    "name": "token",
                    "type": "address"
                },
                {
                    "internalType": "uint24",
                    "name": "feeRate",
                    "type": "uint24"
                },
                {
                    "internalType": "uint256",
                    "name": "liquidity",
                    "type": "uint256"
                },
                {
                    "internalType": "uint256",
                    "name": "amountTokenMin",
                    "type": "uint256"
                },
                {
                    "internalType": "uint256",
                    "name": "amountETHMin",
                    "type": "uint256"
                },
                {
                    "internalType": "address",
                    "name": "to",
                    "type": "address"
                },
                {
                    "internalType": "uint256",
                    "name": "deadline",
                    "type": "uint256"
                },
                {
                    "components": [
                        {
                            "internalType": "bool",
                            "name": "approveMax",
                            "type": "bool"
                        },
                        {
                            "internalType": "uint8",
                            "name": "v",
                            "type": "uint8"
                        },
                        {
                            "internalType": "bytes32",
                            "name": "r",
                            "type": "bytes32"
                        },
                        {
                            "internalType": "bytes32",
                            "name": "s",
                            "type": "bytes32"
                        }
                    ],
                    "internalType": "struct IIotaBeeSwapLpRouter.PermitData",
                    "name": "pd",
                    "type": "tuple"
                }
            ],
            "name": "removeLiquidityETHWithPermit",
            "outputs": [
                {
                    "internalType": "uint256",
                    "name": "amountToken",
                    "type": "uint256"
                },
                {
                    "internalType": "uint256",
                    "name": "amountETH",
                    "type": "uint256"
                }
            ],
            "stateMutability": "nonpayable",
            "type": "function"
        },
        {
            "inputs": [
                {
                    "internalType": "address",
                    "name": "token",
                    "type": "address"
                },
                {
                    "internalType": "uint24",
                    "name": "feeRate",
                    "type": "uint24"
                },
                {
                    "internalType": "uint256",
                    "name": "liquidity",
                    "type": "uint256"
                },
                {
                    "internalType": "uint256",
                    "name": "amountTokenMin",
                    "type": "uint256"
                },
                {
                    "internalType": "uint256",
                    "name": "amountETHMin",
                    "type": "uint256"
                },
                {
                    "internalType": "address",
                    "name": "to",
                    "type": "address"
                },
                {
                    "internalType": "uint256",
                    "name": "deadline",
                    "type": "uint256"
                },
                {
                    "components": [
                        {
                            "internalType": "bool",
                            "name": "approveMax",
                            "type": "bool"
                        },
                        {
                            "internalType": "uint8",
                            "name": "v",
                            "type": "uint8"
                        },
                        {
                            "internalType": "bytes32",
                            "name": "r",
                            "type": "bytes32"
                        },
                        {
                            "internalType": "bytes32",
                            "name": "s",
                            "type": "bytes32"
                        }
                    ],
                    "internalType": "struct IIotaBeeSwapLpRouter.PermitData",
                    "name": "pd",
                    "type": "tuple"
                }
            ],
            "name": "removeLiquidityETHWithPermitSupportingFeeOnTransferTokens",
            "outputs": [
                {
                    "internalType": "uint256",
                    "name": "amountETH",
                    "type": "uint256"
                }
            ],
            "stateMutability": "nonpayable",
            "type": "function"
        },
        {
            "inputs": [
                {
                    "internalType": "address",
                    "name": "tokenA",
                    "type": "address"
                },
                {
                    "internalType": "address",
                    "name": "tokenB",
                    "type": "address"
                },
                {
                    "internalType": "uint24",
                    "name": "feeRate",
                    "type": "uint24"
                },
                {
                    "internalType": "uint256",
                    "name": "liquidity",
                    "type": "uint256"
                },
                {
                    "internalType": "uint256",
                    "name": "amountAMin",
                    "type": "uint256"
                },
                {
                    "internalType": "uint256",
                    "name": "amountBMin",
                    "type": "uint256"
                },
                {
                    "internalType": "address",
                    "name": "to",
                    "type": "address"
                },
                {
                    "internalType": "uint256",
                    "name": "deadline",
                    "type": "uint256"
                },
                {
                    "components": [
                        {
                            "internalType": "bool",
                            "name": "approveMax",
                            "type": "bool"
                        },
                        {
                            "internalType": "uint8",
                            "name": "v",
                            "type": "uint8"
                        },
                        {
                            "internalType": "bytes32",
                            "name": "r",
                            "type": "bytes32"
                        },
                        {
                            "internalType": "bytes32",
                            "name": "s",
                            "type": "bytes32"
                        }
                    ],
                    "internalType": "struct IIotaBeeSwapLpRouter.PermitData",
                    "name": "pd",
                    "type": "tuple"
                }
            ],
            "name": "removeLiquidityWithPermit",
            "outputs": [
                {
                    "internalType": "uint256",
                    "name": "amountA",
                    "type": "uint256"
                },
                {
                    "internalType": "uint256",
                    "name": "amountB",
                    "type": "uint256"
                }
            ],
            "stateMutability": "nonpayable",
            "type": "function"
        },
        {
            "stateMutability": "payable",
            "type": "receive"
        }
    ],
    "bytecode": "60c06040523480156200001157600080fd5b506040516200512638038062005126833981016040819052620000349162000069565b6001600160a01b039182166080521660a052620000a1565b80516001600160a01b03811681146200006457600080fd5b919050565b600080604083850312156200007d57600080fd5b62000088836200004c565b915062000098602084016200004c565b90509250929050565b60805160a051614fc562000161600039600081816101100152818161032101528181610404015281816104c30152818161065c01528181610ab201528181610bd401528181610c2701528181610db301528181610e0c01528181610e440152610edb0152600081816103950152818161054c0152818161063a0152818161076a015281816109bf01528181610a9001528181610cae01528181610d1101528181610dea015281816114760152818161152701526115a20152614fc56000f3fe608060405260043610620000ff5760003560e01c8063886ee7b51162000095578063ad5c46481162000060578063ad5c4648146200030d578063ad615dec146200035c578063c45a01551462000381578063f0b54b0914620003b757600080fd5b8063886ee7b5146200026a5780638df94767146200028f5780639ec505b514620002b45780639f48b43914620002e857600080fd5b8063337141b111620000d6578063337141b114620001df5780634a60791e14620002045780634e1ae772146200024557806367a86300146200026a57600080fd5b8063076e4b6d14620001475780631d58730b146200017f5780631e82f87b14620001ba57600080fd5b366200014257336001600160a01b037f0000000000000000000000000000000000000000000000000000000000000000161462000140576200014062001fb8565b005b600080fd5b3480156200015457600080fd5b506200016c6200016636600462002000565b620003ce565b6040519081526020015b60405180910390f35b3480156200018c57600080fd5b50620001a46200019e36600462002155565b62000541565b6040805192835260208301919091520162000176565b348015620001c757600080fd5b50620001a4620001d9366004620021f3565b6200062f565b348015620001ec57600080fd5b50620001a4620001fe3660046200227c565b6200073b565b3480156200021157600080fd5b50620002296200022336600462002308565b62000978565b6040805193845260208401929092529082015260600162000176565b3480156200025257600080fd5b506200016c62000264366004620021f3565b62000a87565b3480156200027757600080fd5b506200016c620002893660046200239e565b62000b8d565b3480156200029c57600080fd5b50620001a4620002ae36600462002000565b62000ba6565b348015620002c157600080fd5b50620002d9620002d336600462002428565b62000ca6565b6040516200017691906200251a565b348015620002f557600080fd5b50620002d96200030736600462002428565b62000d09565b3480156200031a57600080fd5b50620003437f000000000000000000000000000000000000000000000000000000000000000081565b6040516001600160a01b03909116815260200162000176565b3480156200036957600080fd5b506200016c6200037b36600462002560565b62000d6c565b3480156200038e57600080fd5b50620003437f000000000000000000000000000000000000000000000000000000000000000081565b62000229620003c836600462002000565b62000d83565b60008142811015620003fd5760405162461bcd60e51b8152600401620003f4906200258d565b60405180910390fd5b6200042f897f00000000000000000000000000000000000000000000000000000000000000008a8a8a8a308a6200073b565b6040516370a0823160e01b8152306004820152909350620004ad91508a9086906001600160a01b038316906370a0823190602401602060405180830381865afa15801562000481573d6000803e3d6000fd5b505050506040513d601f19601f82011682018060405250810190620004a79190620025b9565b62000ffe565b604051632e1a7d4d60e01b8152600481018390527f00000000000000000000000000000000000000000000000000000000000000006001600160a01b031690632e1a7d4d90602401600060405180830381600087803b1580156200051057600080fd5b505af115801562000525573d6000803e3d6000fd5b5050505062000535848362001139565b50979650505050505050565b6000806000620005747f00000000000000000000000000000000000000000000000000000000000000008d8d8d6200121e565b9050600084600001516200058957896200058d565b6000195b9050816001600160a01b031663d505accf3330848a8a602001518b604001518c606001516040518863ffffffff1660e01b8152600401620005d59796959493929190620025d3565b600060405180830381600087803b158015620005f057600080fd5b505af115801562000605573d6000803e3d6000fd5b505050506200061b8d8d8d8d8d8d8d8d6200073b565b909e909d509b505050505050505050505050565b6000806000620006827f00000000000000000000000000000000000000000000000000000000000000008c7f00000000000000000000000000000000000000000000000000000000000000008d6200121e565b9050600084600001516200069757896200069b565b6000195b9050816001600160a01b031663d505accf3330848a8a602001518b604001518c606001516040518863ffffffff1660e01b8152600401620006e39796959493929190620025d3565b600060405180830381600087803b158015620006fe57600080fd5b505af115801562000713573d6000803e3d6000fd5b50505050620007288c8c8c8c8c8c8c62000ba6565b909d909c509a5050505050505050505050565b6000808242811015620007625760405162461bcd60e51b8152600401620003f4906200258d565b6000620007927f00000000000000000000000000000000000000000000000000000000000000008d8d8d6200121e565b6040516323b872dd60e01b81523360048201526001600160a01b03821660248201819052604482018c90529192506323b872dd906064016020604051808303816000875af1158015620007e9573d6000803e3d6000fd5b505050506040513d601f19601f820116820180604052508101906200080f919062002614565b5060405163226bf2d160e21b81526001600160a01b03878116600483015260009182918416906389afcb449060240160408051808303816000875af11580156200085d573d6000803e3d6000fd5b505050506040513d601f19601f820116820180604052508101906200088391906200263b565b915091506000620008958f8f6200133e565b509050806001600160a01b03168f6001600160a01b031614620008ba578183620008bd565b82825b90975095508a871015620009145760405162461bcd60e51b815260206004820181905260248201527f494253526f757465723a20494e53554646494349454e545f415f414d4f554e546044820152606401620003f4565b89861015620009665760405162461bcd60e51b815260206004820181905260248201527f494253526f757465723a20494e53554646494349454e545f425f414d4f554e546044820152606401620003f4565b50505050509850989650505050505050565b60008060008342811015620009a15760405162461bcd60e51b8152600401620003f4906200258d565b620009b28d8d8d8d8d8d8d6200143d565b90945092506000620009e77f00000000000000000000000000000000000000000000000000000000000000008f8f8f6200121e565b9050620009f78e338388620016f2565b62000a058d338387620016f2565b6040516335313c2160e11b81526001600160a01b038881166004830152821690636a627842906024016020604051808303816000875af115801562000a4e573d6000803e3d6000fd5b505050506040513d601f19601f8201168201806040525081019062000a749190620025b9565b9250505099509950999650505050505050565b60008062000ad87f00000000000000000000000000000000000000000000000000000000000000008b7f00000000000000000000000000000000000000000000000000000000000000008c6200121e565b90506000836000015162000aed578862000af1565b6000195b9050816001600160a01b031663d505accf3330848989602001518a604001518b606001516040518863ffffffff1660e01b815260040162000b399796959493929190620025d3565b600060405180830381600087803b15801562000b5457600080fd5b505af115801562000b69573d6000803e3d6000fd5b5050505062000b7e8b8b8b8b8b8b8b620003ce565b9b9a5050505050505050505050565b600062000b9d858585856200183a565b95945050505050565b600080824281101562000bcd5760405162461bcd60e51b8152600401620003f4906200258d565b62000bff8a7f00000000000000000000000000000000000000000000000000000000000000008b8b8b8b308b6200073b565b909350915062000c118a868562000ffe565b604051632e1a7d4d60e01b8152600481018390527f00000000000000000000000000000000000000000000000000000000000000006001600160a01b031690632e1a7d4d90602401600060405180830381600087803b15801562000c7457600080fd5b505af115801562000c89573d6000803e3d6000fd5b5050505062000c99858362001139565b5097509795505050505050565b606062000b9d7f000000000000000000000000000000000000000000000000000000000000000086868686808060200260200160405190810160405280939291908181526020018383602002808284376000920191909152506200192e92505050565b606062000b9d7f0000000000000000000000000000000000000000000000000000000000000000868686868080602002602001604051908101604052809392919081815260200183836020028082843760009201919091525062001b5692505050565b600062000d7b84848462001d3d565b949350505050565b6000806000834281101562000dac5760405162461bcd60e51b8152600401620003f4906200258d565b62000ddd8b7f00000000000000000000000000000000000000000000000000000000000000008c8c348d8d6200143d565b9094509250600062000e327f00000000000000000000000000000000000000000000000000000000000000008d7f00000000000000000000000000000000000000000000000000000000000000008e6200121e565b905062000e428c338388620016f2565b7f00000000000000000000000000000000000000000000000000000000000000006001600160a01b031663d0e30db0856040518263ffffffff1660e01b81526004016000604051808303818588803b15801562000e9e57600080fd5b505af115801562000eb3573d6000803e3d6000fd5b505060405163a9059cbb60e01b81526001600160a01b038581166004830152602482018990527f000000000000000000000000000000000000000000000000000000000000000016935063a9059cbb925060440190506020604051808303816000875af115801562000f29573d6000803e3d6000fd5b505050506040513d601f19601f8201168201806040525081019062000f4f919062002614565b62000f5e5762000f5e62001fb8565b6040516335313c2160e11b81526001600160a01b038881166004830152821690636a627842906024016020604051808303816000875af115801562000fa7573d6000803e3d6000fd5b505050506040513d601f19601f8201168201806040525081019062000fcd9190620025b9565b92508334111562000fef5762000fef3362000fe9863462002676565b62001139565b50509750975097945050505050565b604080516001600160a01b038481166024830152604480830185905283518084039091018152606490920183526020820180516001600160e01b031663a9059cbb60e01b17905291516000928392908716916200105c919062002692565b6000604051808303816000865af19150503d80600081146200109b576040519150601f19603f3d011682016040523d82523d6000602084013e620010a0565b606091505b5091509150818015620010ce575080511580620010ce575080806020019051810190620010ce919062002614565b620011325760405162461bcd60e51b815260206004820152602d60248201527f5472616e7366657248656c7065723a3a736166655472616e736665723a20747260448201526c185b9cd9995c8819985a5b1959609a1b6064820152608401620003f4565b5050505050565b604080516000808252602082019092526001600160a01b03841690839060405162001165919062002692565b60006040518083038185875af1925050503d8060008114620011a4576040519150601f19603f3d011682016040523d82523d6000602084013e620011a9565b606091505b5050905080620012195760405162461bcd60e51b815260206004820152603460248201527f5472616e7366657248656c7065723a3a736166655472616e736665724554483a60448201527308115512081d1c985b9cd9995c8819985a5b195960621b6064820152608401620003f4565b505050565b60008060006200122f86866200133e565b6040516bffffffffffffffffffffffff19606084811b8216602084015283901b1660348201526001600160e81b031960e888901b16604882015291935091508790604b0160405160208183030381529060405280519060200120604051806020016200129b9062001faa565b601f1982820381018352601f909101166040819052620012bf919060200162002692565b604051602081830303815290604052805190602001206040516020016200131b939291906001600160f81b0319815260609390931b6bffffffffffffffffffffffff191660018401526015830191909152603582015260550190565b60408051601f198184030181529190528051602090910120979650505050505050565b600080826001600160a01b0316846001600160a01b031603620013b45760405162461bcd60e51b815260206004820152602760248201527f496f7461426565537761704c6962726172793a204944454e544943414c5f41446044820152664452455353455360c81b6064820152608401620003f4565b826001600160a01b0316846001600160a01b031610620013d6578284620013d9565b83835b90925090506001600160a01b038216620014365760405162461bcd60e51b815260206004820181905260248201527f496f7461426565537761704c6962726172793a205a45524f5f414444524553536044820152606401620003f4565b9250929050565b604051630b4c774160e11b81526001600160a01b038881166004830152878116602483015262ffffff87166044830152600091829182917f000000000000000000000000000000000000000000000000000000000000000090911690631698ee8290606401602060405180830381865afa158015620014c0573d6000803e3d6000fd5b505050506040513d601f19601f82011682018060405250810190620014e69190620026c3565b6001600160a01b031603620015995760405163a167129560e01b81526001600160a01b038a81166004830152898116602483015262ffffff891660448301527f0000000000000000000000000000000000000000000000000000000000000000169063a1671295906064016020604051808303816000875af115801562001571573d6000803e3d6000fd5b505050506040513d601f19601f82011682018060405250810190620015979190620026c3565b505b600080620015ca7f00000000000000000000000000000000000000000000000000000000000000008c8c8c62001dd8565b91509150816000148015620015dd575080155b15620015ef57879350869250620016e4565b6000620015fe89848462001d3d565b90508781116200166657858110156200165a5760405162461bcd60e51b815260206004820181905260248201527f494253526f757465723a20494e53554646494349454e545f425f414d4f554e546044820152606401620003f4565b889450925082620016e2565b60006200167589848662001d3d565b9050898111156200168a576200168a62001fb8565b87811015620016dc5760405162461bcd60e51b815260206004820181905260248201527f494253526f757465723a20494e53554646494349454e545f415f414d4f554e546044820152606401620003f4565b94508793505b505b505097509795505050505050565b604080516001600160a01b0385811660248301528481166044830152606480830185905283518084039091018152608490920183526020820180516001600160e01b03166323b872dd60e01b179052915160009283929088169162001758919062002692565b6000604051808303816000865af19150503d806000811462001797576040519150601f19603f3d011682016040523d82523d6000602084013e6200179c565b606091505b5091509150818015620017ca575080511580620017ca575080806020019051810190620017ca919062002614565b620018325760405162461bcd60e51b815260206004820152603160248201527f5472616e7366657248656c7065723a3a7472616e7366657246726f6d3a207472604482015270185b9cd9995c919c9bdb4819985a5b1959607a1b6064820152608401620003f4565b505050505050565b6000808511620018925760405162461bcd60e51b815260206004820152602d602482015260008051602062004f7083398151915260448201526c17d25394155517d05353d55395609a1b6064820152608401620003f4565b600084118015620018a35750600083115b620018c25760405162461bcd60e51b8152600401620003f490620026e3565b6000620018d383620186a06200271c565b620018e49062ffffff168762002742565b90506000620018f4858362002742565b905060008262001908620186a08962002742565b6200191491906200275c565b905062001922818362002772565b98975050505050505050565b6060600283511015620019845760405162461bcd60e51b815260206004820181905260248201527f496f7461426565537761704c6962726172793a20494e56414c49445f504154486044820152606401620003f4565b6001835162001994919062002676565b825114620019b65760405162461bcd60e51b8152600401620003f49062002795565b825167ffffffffffffffff811115620019d357620019d362002077565b604051908082528060200260200182016040528015620019fd578160200160208202803683370190505b50905083816001835162001a12919062002676565b8151811062001a255762001a25620027d8565b60200260200101818152505060006001845162001a43919062002676565b90505b801562001b4d5760008062001abe888762001a6360018762002676565b8151811062001a765762001a76620027d8565b602002602001015188868151811062001a935762001a93620027d8565b602002602001015188878151811062001ab05762001ab0620027d8565b602002602001015162001dd8565b9150915062001b0884848151811062001adb5762001adb620027d8565b6020026020010151838388878151811062001afa5762001afa620027d8565b602002602001015162001ead565b8462001b1660018662002676565b8151811062001b295762001b29620027d8565b6020026020010181815250505050808062001b4490620027ee565b91505062001a46565b50949350505050565b606060028351101562001bac5760405162461bcd60e51b815260206004820181905260248201527f496f7461426565537761704c6962726172793a20494e56414c49445f504154486044820152606401620003f4565b6001835162001bbc919062002676565b82511462001bde5760405162461bcd60e51b8152600401620003f49062002795565b825167ffffffffffffffff81111562001bfb5762001bfb62002077565b60405190808252806020026020018201604052801562001c25578160200160208202803683370190505b509050838160008151811062001c3f5762001c3f620027d8565b60200260200101818152505060005b6001845162001c5e919062002676565b81101562001b4d5760008062001cae8887858151811062001c835762001c83620027d8565b60200260200101518886600162001c9b91906200275c565b8151811062001a935762001a93620027d8565b9150915062001cf884848151811062001ccb5762001ccb620027d8565b6020026020010151838388878151811062001cea5762001cea620027d8565b60200260200101516200183a565b8462001d068560016200275c565b8151811062001d195762001d19620027d8565b6020026020010181815250505050808062001d349062002808565b91505062001c4e565b600080841162001d8f5760405162461bcd60e51b8152602060048201526027602482015260008051602062004f7083398151915260448201526617d05353d5539560ca1b6064820152608401620003f4565b60008311801562001da05750600082115b62001dbf5760405162461bcd60e51b8152600401620003f490620026e3565b8262001dcc838662002742565b62000d7b919062002772565b600080600062001de986866200133e565b50905060008062001dfd898989896200121e565b6001600160a01b0316630902f1ac6040518163ffffffff1660e01b8152600401606060405180830381865afa15801562001e3b573d6000803e3d6000fd5b505050506040513d601f19601f8201168201806040525081019062001e6191906200283c565b506001600160701b031691506001600160701b03169150826001600160a01b0316886001600160a01b03161462001e9a57808262001e9d565b81815b909a909950975050505050505050565b600080851162001f065760405162461bcd60e51b815260206004820152602e602482015260008051602062004f7083398151915260448201526d17d3d55514155517d05353d5539560921b6064820152608401620003f4565b60008411801562001f175750600083115b62001f365760405162461bcd60e51b8152600401620003f490620026e3565b6000620186a062001f48878762002742565b62001f54919062002742565b9050600062001f6784620186a06200271c565b62ffffff1662001f78888762002676565b62001f84919062002742565b905062001f92818362002772565b62001f9f9060016200275c565b979650505050505050565b6126dd806200289383390190565b634e487b7160e01b600052600160045260246000fd5b6001600160a01b038116811462001fe457600080fd5b50565b803562ffffff8116811462001ffb57600080fd5b919050565b600080600080600080600060e0888a0312156200201c57600080fd5b8735620020298162001fce565b9650620020396020890162001fe7565b955060408801359450606088013593506080880135925060a0880135620020608162001fce565b8092505060c0880135905092959891949750929550565b634e487b7160e01b600052604160045260246000fd5b604051601f8201601f1916810167ffffffffffffffff81118282101715620020b957620020b962002077565b604052919050565b801515811462001fe457600080fd5b600060808284031215620020e357600080fd5b6040516080810181811067ffffffffffffffff8211171562002109576200210962002077565b60405290508082356200211c81620020c1565b8152602083013560ff811681146200213357600080fd5b8060208301525060408301356040820152606083013560608201525092915050565b60008060008060008060008060006101808a8c0312156200217557600080fd5b8935620021828162001fce565b985060208a0135620021948162001fce565b9750620021a460408b0162001fe7565b965060608a0135955060808a0135945060a08a0135935060c08a0135620021cb8162001fce565b925060e08a01359150620021e48b6101008c01620020d0565b90509295985092959850929598565b600080600080600080600080610160898b0312156200221157600080fd5b88356200221e8162001fce565b97506200222e60208a0162001fe7565b965060408901359550606089013594506080890135935060a0890135620022558162001fce565b925060c089013591506200226d8a60e08b01620020d0565b90509295985092959890939650565b600080600080600080600080610100898b0312156200229a57600080fd5b8835620022a78162001fce565b97506020890135620022b98162001fce565b9650620022c960408a0162001fe7565b9550606089013594506080890135935060a0890135925060c0890135620022f08162001fce565b8092505060e089013590509295985092959890939650565b60008060008060008060008060006101208a8c0312156200232857600080fd5b8935620023358162001fce565b985060208a0135620023478162001fce565b97506200235760408b0162001fe7565b965060608a0135955060808a0135945060a08a0135935060c08a0135925060e08a0135620023858162001fce565b809250506101008a013590509295985092959850929598565b60008060008060808587031215620023b557600080fd5b843593506020850135925060408501359150620023d56060860162001fe7565b905092959194509250565b60008083601f840112620023f357600080fd5b50813567ffffffffffffffff8111156200240c57600080fd5b6020830191508360208260051b85010111156200143657600080fd5b600080600080606085870312156200243f57600080fd5b8435935060208086013567ffffffffffffffff808211156200246057600080fd5b818801915088601f8301126200247557600080fd5b8135818111156200248a576200248a62002077565b8060051b6200249b8582016200208d565b918252838101850191858101908c841115620024b657600080fd5b948601945b83861015620024e45785359250620024d38362001fce565b8282529486019490860190620024bb565b98505050506040880135925080831115620024fe57600080fd5b50506200250e87828801620023e0565b95989497509550505050565b6020808252825182820181905260009190848201906040850190845b81811015620025545783518352928401929184019160010162002536565b50909695505050505050565b6000806000606084860312156200257657600080fd5b505081359360208301359350604090920135919050565b602080825260129082015271125094d49bdd5d195c8e881156141254915160721b604082015260600190565b600060208284031215620025cc57600080fd5b5051919050565b6001600160a01b0397881681529590961660208601526040850193909352606084019190915260ff16608083015260a082015260c081019190915260e00190565b6000602082840312156200262757600080fd5b81516200263481620020c1565b9392505050565b600080604083850312156200264f57600080fd5b505080516020909101519092909150565b634e487b7160e01b600052601160045260246000fd5b818103818111156200268c576200268c62002660565b92915050565b6000825160005b81811015620026b5576020818601810151858301520162002699565b506000920191825250919050565b600060208284031215620026d657600080fd5b8151620026348162001fce565b6020808252602a9082015260008051602062004f708339815191526040820152695f4c495155494449545960b01b606082015260800190565b62ffffff8281168282160390808211156200273b576200273b62002660565b5092915050565b80820281158282048414176200268c576200268c62002660565b808201808211156200268c576200268c62002660565b6000826200279057634e487b7160e01b600052601260045260246000fd5b500490565b60208082526023908201527f496f7461426565537761704c6962726172793a20494e56414c49445f4645455260408201526241544560e81b606082015260800190565b634e487b7160e01b600052603260045260246000fd5b60008162002800576200280062002660565b506000190190565b6000600182016200281d576200281d62002660565b5060010190565b80516001600160701b038116811462001ffb57600080fd5b6000806000606084860312156200285257600080fd5b6200285d8462002824565b92506200286d6020850162002824565b9150604084015163ffffffff811681146200288757600080fd5b80915050925092509256fe61012060405260016008553480156200001757600080fd5b506040805180820182526007815266496f746142656560c81b6020918201528151808301835260018152603160f81b9082015281517f8b73c3c69bb8fe3d512ecc4cf759cc79239f7b179b0ffacaa9a75d522b39400f918101919091527f1400fd436c862c1e2397d25e81fbf58527caddf48e52a5167bc274920f40698e918101919091527fc89efdaa54c0f20c7adf612882df0950f5a951637e0307cdcb4c672f298b8bc660608201524660808201523060a082015260c00160408051601f1981840301815282825280516020909101206080908152630890357360e41b83529051339263890357309260048083019391928290030181865afa15801562000124573d6000803e3d6000fd5b505050506040513d601f19601f820116820180604052508101906200014a91906200018e565b62ffffff16610100526001600160a01b0390811660e05290811660c0521660a052620001f4565b80516001600160a01b03811681146200018957600080fd5b919050565b60008060008060808587031215620001a557600080fd5b620001b08562000171565b9350620001c06020860162000171565b9250620001d06040860162000171565b9150606085015162ffffff81168114620001e957600080fd5b939692955090935050565b60805160a05160c05160e05161010051612426620002b7600039600081816103dd015281816109a301526109ed01526000818161047801528181610641015281816106fe0152818161083f01528181610cbd01528181610f570152818161138801526116d201526000818161027601528181610604015281816106cd015281816107a901528181610c2f01528181610f35015281816112d6015261164a0152600081816104510152611b75015260008181610320015261143c01526124266000f3fe608060405234801561001057600080fd5b50600436106101c45760003560e01c80637464fc3d116100f9578063ba9a7a5611610097578063d21220a711610071578063d21220a714610473578063d505accf1461049a578063dd62ed3e146104ad578063fff6cae9146104d857600080fd5b8063ba9a7a5614610430578063bc25cf7714610439578063c45a01551461044c57600080fd5b806395d89b41116100d357806395d89b41146101de578063978bbdb9146103d85780639ca6ce1214610413578063a9059cbb1461041d57600080fd5b80637464fc3d146103875780637ecebe001461039057806389afcb44146103b057600080fd5b806330adf81f116101665780635909c0d5116101405780635909c0d5146103425780635a3d54931461034b5780636a6278421461035457806370a082311461036757600080fd5b806330adf81f146102da578063313ce567146103015780633644e5151461031b57600080fd5b8063095ea7b3116101a2578063095ea7b31461024e5780630dfe16811461027157806318160ddd146102b057806323b872dd146102c757600080fd5b8063022c0d9f146101c957806306fdde03146101de5780630902f1ac1461021a575b600080fd5b6101dc6101d7366004611e96565b6104e0565b005b61020460405180604001604052806007815260200166496f746142656560c81b81525081565b6040516102119190611f50565b60405180910390f35b610222610b1a565b604080516001600160701b03948516815293909216602084015263ffffffff1690820152606001610211565b61026161025c366004611f83565b610b44565b6040519015158152602001610211565b6102987f000000000000000000000000000000000000000000000000000000000000000081565b6040516001600160a01b039091168152602001610211565b6102b960005481565b604051908152602001610211565b6102616102d5366004611faf565b610b5b565b6102b97f6e71edae12b1b97f4d1f60370fef10105fa2faae0126114a169c64845d6126c981565b610309601281565b60405160ff9091168152602001610211565b6102b97f000000000000000000000000000000000000000000000000000000000000000081565b6102b960055481565b6102b960065481565b6102b9610362366004611ff0565b610bd5565b6102b9610375366004611ff0565b60016020526000908152604090205481565b6102b960075481565b6102b961039e366004611ff0565b60036020526000908152604090205481565b6103c36103be366004611ff0565b610ee5565b60408051928352602083019190915201610211565b6103ff7f000000000000000000000000000000000000000000000000000000000000000081565b60405162ffffff9091168152602001610211565b6103ff620186a081565b61026161042b366004611f83565b611283565b6102b96103e881565b6101dc610447366004611ff0565b611290565b6102987f000000000000000000000000000000000000000000000000000000000000000081565b6102987f000000000000000000000000000000000000000000000000000000000000000081565b6101dc6104a836600461200d565b6113dd565b6102b96104bb366004612084565b600260209081526000928352604080842090915290825290205481565b6101dc61160a565b60085460011461050b5760405162461bcd60e51b8152600401610502906120bd565b60405180910390fd5b60006008558415158061051e5750600084115b61057a5760405162461bcd60e51b815260206004820152602760248201527f496f7461426565537761703a20494e53554646494349454e545f4f555450555460448201526617d05353d5539560ca1b6064820152608401610502565b600080610585610b1a565b5091509150816001600160701b0316871080156105aa5750806001600160701b031686105b6106025760405162461bcd60e51b815260206004820152602360248201527f496f7461426565537761703a20494e53554646494349454e545f4c495155494460448201526249545960e81b6064820152608401610502565b7f00000000000000000000000000000000000000000000000000000000000000006001600160a01b0316856001600160a01b03161415801561067657507f00000000000000000000000000000000000000000000000000000000000000006001600160a01b0316856001600160a01b031614155b6106c25760405162461bcd60e51b815260206004820152601760248201527f496f7461426565537761703a20494e56414c49445f544f0000000000000000006044820152606401610502565b86156106f3576106f37f00000000000000000000000000000000000000000000000000000000000000008689611768565b8515610724576107247f00000000000000000000000000000000000000000000000000000000000000008688611768565b82156107915760405163d843a2d360e01b81526001600160a01b0386169063d843a2d39061075e9033908b908b908a908a906004016120ea565b600060405180830381600087803b15801561077857600080fd5b505af115801561078c573d6000803e3d6000fd5b505050505b6040516370a0823160e01b81523060048201526000907f00000000000000000000000000000000000000000000000000000000000000006001600160a01b0316906370a0823190602401602060405180830381865afa1580156107f8573d6000803e3d6000fd5b505050506040513d601f19601f8201168201806040525081019061081c9190612136565b6040516370a0823160e01b81523060048201529091506000906001600160a01b037f000000000000000000000000000000000000000000000000000000000000000016906370a0823190602401602060405180830381865afa158015610886573d6000803e3d6000fd5b505050506040513d601f19601f820116820180604052508101906108aa9190612136565b905060006108c18a6001600160701b038716612165565b83116108ce5760006108eb565b6108e18a6001600160701b038716612165565b6108eb9084612165565b905060006109028a6001600160701b038716612165565b831161090f57600061092c565b6109228a6001600160701b038716612165565b61092c9084612165565b9050600082118061093d5750600081115b6109985760405162461bcd60e51b815260206004820152602660248201527f496f7461426565537761703a20494e53554646494349454e545f494e5055545f604482015265105353d5539560d21b6064820152608401610502565b60006109c962ffffff7f00000000000000000000000000000000000000000000000000000000000000001684612178565b6109d6620186a087612178565b6109e09190612165565b90506000610a1362ffffff7f00000000000000000000000000000000000000000000000000000000000000001684612178565b610a20620186a087612178565b610a2a9190612165565b9050610a3a6002620186a061229c565b62ffffff16610a49888a6122b0565b610a5391906122b0565b6001600160701b0316610a668284612178565b1015610aa55760405162461bcd60e51b815260206004820152600e60248201526d496f7461426565537761703a204b60901b6044820152606401610502565b5050610ab3848488886118b3565b60408051838152602081018390529081018c9052606081018b90526001600160a01b038a169033907fd78ad95fa46c994b6551d0da85fc275fe613ce37657fb8d5e3d130840159d8229060800160405180910390a350506001600855505050505050505050565b6004546001600160701b0380821692600160701b830490911691600160e01b900463ffffffff1690565b6000610b51338484611a6d565b5060015b92915050565b6001600160a01b038316600090815260026020908152604080832033845290915281205460001914610bc0576001600160a01b038416600090815260026020908152604080832033845290915281208054849290610bba908490612165565b90915550505b610bcb848484611acf565b5060019392505050565b6000600854600114610bf95760405162461bcd60e51b8152600401610502906120bd565b6000600881905580610c09610b1a565b506040516370a0823160e01b815230600482015291935091506000906001600160a01b037f000000000000000000000000000000000000000000000000000000000000000016906370a0823190602401602060405180830381865afa158015610c76573d6000803e3d6000fd5b505050506040513d601f19601f82011682018060405250810190610c9a9190612136565b6040516370a0823160e01b81523060048201529091506000906001600160a01b037f000000000000000000000000000000000000000000000000000000000000000016906370a0823190602401602060405180830381865afa158015610d04573d6000803e3d6000fd5b505050506040513d601f19601f82011682018060405250810190610d289190612136565b90506000610d3f6001600160701b03861684612165565b90506000610d566001600160701b03861684612165565b90506000610d648787611b70565b60008054919250819003610da5576103e8610d87610d828587612178565b611cbc565b610d919190612165565b9850610da060006103e8611d2c565b610dec565b610de96001600160701b038916610dbc8387612178565b610dc691906122e9565b6001600160701b038916610dda8487612178565b610de491906122e9565b611db5565b98505b60008911610e4f5760405162461bcd60e51b815260206004820152602a60248201527f496f7461426565537761703a20494e53554646494349454e545f4c495155494460448201526912551657d3525395115160b21b6064820152608401610502565b610e598a8a611d2c565b610e6586868a8a6118b3565b8115610e9757600454610e8a906001600160701b03600160701b8204811691166122b0565b6001600160701b03166007555b604080518581526020810185905233917f4c209b5fc8ad50758f13e2e1088ba56a560dff690a1c6fef26394f4c03821c4f910160405180910390a25050600160085550949695505050505050565b600080600854600114610f0a5760405162461bcd60e51b8152600401610502906120bd565b6000600881905580610f1a610b1a565b506040516370a0823160e01b815230600482015291935091507f0000000000000000000000000000000000000000000000000000000000000000907f0000000000000000000000000000000000000000000000000000000000000000906000906001600160a01b038416906370a0823190602401602060405180830381865afa158015610fab573d6000803e3d6000fd5b505050506040513d601f19601f82011682018060405250810190610fcf9190612136565b6040516370a0823160e01b81523060048201529091506000906001600160a01b038416906370a0823190602401602060405180830381865afa158015611019573d6000803e3d6000fd5b505050506040513d601f19601f8201168201806040525081019061103d9190612136565b3060009081526001602052604081205491925061105a8888611b70565b6000549091508061106b8685612178565b61107591906122e9565b9a50806110828585612178565b61108c91906122e9565b995060008b11801561109e575060008a115b6110fd5760405162461bcd60e51b815260206004820152602a60248201527f496f7461426565537761703a20494e53554646494349454e545f4c495155494460448201526912551657d0955493915160b21b6064820152608401610502565b6111073084611dcd565b611112878d8d611768565b61111d868d8c611768565b6040516370a0823160e01b81523060048201526001600160a01b038816906370a0823190602401602060405180830381865afa158015611161573d6000803e3d6000fd5b505050506040513d601f19601f820116820180604052508101906111859190612136565b6040516370a0823160e01b81523060048201529095506001600160a01b038716906370a0823190602401602060405180830381865afa1580156111cc573d6000803e3d6000fd5b505050506040513d601f19601f820116820180604052508101906111f09190612136565b93506111fe85858b8b6118b3565b811561122757600454611223906001600160701b03600160701b820481169116612178565b6007555b604080518c8152602081018c90526001600160a01b038e169133917fdccd412f0b1252819cb1fd330b93224ca42612892bb3f4f789976e6d81936496910160405180910390a35050505050505050506001600881905550915091565b6000610b51338484611acf565b6008546001146112b25760405162461bcd60e51b8152600401610502906120bd565b6000600855600480546040516370a0823160e01b81523092810192909252611369917f00000000000000000000000000000000000000000000000000000000000000009184916001600160701b03909116906001600160a01b038416906370a08231906024015b602060405180830381865afa158015611336573d6000803e3d6000fd5b505050506040513d601f19601f8201168201806040525081019061135a9190612136565b6113649190612165565b611768565b600480546040516370a0823160e01b815230928101929092526113d5917f0000000000000000000000000000000000000000000000000000000000000000918491600160701b9091046001600160701b0316906001600160a01b038416906370a0823190602401611319565b506001600855565b428410156114205760405162461bcd60e51b815260206004820152601060248201526f125bdd185099594e88115e1c1a5c995960821b6044820152606401610502565b6001600160a01b038716600090815260036020526040812080547f0000000000000000000000000000000000000000000000000000000000000000917f6e71edae12b1b97f4d1f60370fef10105fa2faae0126114a169c64845d6126c9918b918b918b918761148e836122fd565b909155506040805160208101969096526001600160a01b0394851690860152929091166060840152608083015260a082015260c0810187905260e0016040516020818303038152906040528051906020012060405160200161150792919061190160f01b81526002810192909252602282015260420190565b60408051601f198184030181528282528051602091820120600080855291840180845281905260ff88169284019290925260608301869052608083018590529092509060019060a0016020604051602081039080840390855afa158015611572573d6000803e3d6000fd5b5050604051601f1901519150506001600160a01b038116158015906115a85750886001600160a01b0316816001600160a01b0316145b6115f45760405162461bcd60e51b815260206004820152601a60248201527f496f74614265653a20494e56414c49445f5349474e41545552450000000000006044820152606401610502565b6115ff898989611a6d565b505050505050505050565b60085460011461162c5760405162461bcd60e51b8152600401610502906120bd565b60006008556040516370a0823160e01b8152306004820152611761907f00000000000000000000000000000000000000000000000000000000000000006001600160a01b0316906370a0823190602401602060405180830381865afa158015611699573d6000803e3d6000fd5b505050506040513d601f19601f820116820180604052508101906116bd9190612136565b6040516370a0823160e01b81523060048201527f00000000000000000000000000000000000000000000000000000000000000006001600160a01b0316906370a0823190602401602060405180830381865afa158015611721573d6000803e3d6000fd5b505050506040513d601f19601f820116820180604052508101906117459190612136565b6004546001600160701b0380821691600160701b9004166118b3565b6001600855565b604080518082018252601981527f7472616e7366657228616464726573732c75696e74323536290000000000000060209182015281516001600160a01b0385811660248301526044808301869052845180840390910181526064909201845291810180516001600160e01b031663a9059cbb60e01b179052915160009283928716916117f49190612316565b6000604051808303816000865af19150503d8060008114611831576040519150601f19603f3d011682016040523d82523d6000602084013e611836565b606091505b50915091508180156118605750805115806118605750808060200190518101906118609190612332565b6118ac5760405162461bcd60e51b815260206004820152601c60248201527f496f7461426565537761703a205452414e534645525f4641494c4544000000006044820152606401610502565b5050505050565b6001600160701b0384118015906118d157506001600160701b038311155b6119155760405162461bcd60e51b8152602060048201526015602482015274496f7461426565537761703a204f766572666c6f7760581b6044820152606401610502565b600061192664010000000042612354565b60045490915063ffffffff600160e01b909104811682039081161580159061195657506001600160701b03841615155b801561196a57506001600160701b03831615155b156119d5578063ffffffff166119928561198386611e50565b6001600160e01b031690611e69565b600580546001600160e01b03929092169290920201905563ffffffff81166119bd8461198387611e50565b600680546001600160e01b0392909216929092020190555b6004805463ffffffff8416600160e01b026001600160e01b036001600160701b03898116600160701b9081026001600160e01b03199095168c83161794909417918216831794859055604080519382169282169290921783529290930490911660208201527f1c411e9a96e071241c2f21f7726b17ae89e3cab4c78be50e062b03a9fffbbad1910160405180910390a1505050505050565b6001600160a01b0383811660008181526002602090815260408083209487168084529482529182902085905590518481527f8c5be1e5ebec7d5bd14f71427d1e84f3dd0314c0f7b2291e5b200ac8c7c3b92591015b60405180910390a3505050565b6001600160a01b03831660009081526001602052604081208054839290611af7908490612165565b90915550506001600160a01b03821660009081526001602052604081208054839290611b24908490612368565b92505081905550816001600160a01b0316836001600160a01b03167fddf252ad1be2c89b69c2b068fc378daa952ba7f163c4a11628f55a4df523b3ef83604051611ac291815260200190565b6000807f00000000000000000000000000000000000000000000000000000000000000006001600160a01b031663017e7e586040518163ffffffff1660e01b8152600401602060405180830381865afa158015611bd1573d6000803e3d6000fd5b505050506040513d601f19601f82011682018060405250810190611bf5919061237b565b6007546001600160a01b038216158015945091925090611ca8578015611ca3576000611c32611c2486886122b0565b6001600160701b0316611cbc565b90506000611c3f83611cbc565b905080821115611ca0576000611c558284612165565b600054611c629190612178565b9050600082611c72856005612178565b611c7c9190612368565b90506000611c8a82846122e9565b90508015611c9c57611c9c8782611d2c565b5050505b50505b611cb4565b8015611cb45760006007555b505092915050565b60006003821115611d1d5750806000611cd66002836122e9565b611ce1906001612368565b90505b81811015611d1757905080600281611cfc81866122e9565b611d069190612368565b611d1091906122e9565b9050611ce4565b50919050565b8115611d27575060015b919050565b80600080828254611d3d9190612368565b90915550506001600160a01b03821660009081526001602052604081208054839290611d6a908490612368565b90915550506040518181526001600160a01b038316906000907fddf252ad1be2c89b69c2b068fc378daa952ba7f163c4a11628f55a4df523b3ef906020015b60405180910390a35050565b6000818310611dc45781611dc6565b825b9392505050565b6001600160a01b03821660009081526001602052604081208054839290611df5908490612165565b9250508190555080600080828254611e0d9190612165565b90915550506040518181526000906001600160a01b038416907fddf252ad1be2c89b69c2b068fc378daa952ba7f163c4a11628f55a4df523b3ef90602001611da9565b6000610b55600160701b6001600160701b038416612398565b6000611dc66001600160701b038316846123ca565b6001600160a01b0381168114611e9357600080fd5b50565b600080600080600060808688031215611eae57600080fd5b85359450602086013593506040860135611ec781611e7e565b9250606086013567ffffffffffffffff80821115611ee457600080fd5b818801915088601f830112611ef857600080fd5b813581811115611f0757600080fd5b896020828501011115611f1957600080fd5b9699959850939650602001949392505050565b60005b83811015611f47578181015183820152602001611f2f565b50506000910152565b6020815260008251806020840152611f6f816040850160208701611f2c565b601f01601f19169190910160400192915050565b60008060408385031215611f9657600080fd5b8235611fa181611e7e565b946020939093013593505050565b600080600060608486031215611fc457600080fd5b8335611fcf81611e7e565b92506020840135611fdf81611e7e565b929592945050506040919091013590565b60006020828403121561200257600080fd5b8135611dc681611e7e565b600080600080600080600060e0888a03121561202857600080fd5b873561203381611e7e565b9650602088013561204381611e7e565b95506040880135945060608801359350608088013560ff8116811461206757600080fd5b9699959850939692959460a0840135945060c09093013592915050565b6000806040838503121561209757600080fd5b82356120a281611e7e565b915060208301356120b281611e7e565b809150509250929050565b602080825260139082015272125bdd1850995954ddd85c0e881313d0d2d151606a1b604082015260600190565b60018060a01b038616815284602082015283604082015260806060820152816080820152818360a0830137600081830160a090810191909152601f909201601f19160101949350505050565b60006020828403121561214857600080fd5b5051919050565b634e487b7160e01b600052601160045260246000fd5b81810381811115610b5557610b5561214f565b8082028115828204841417610b5557610b5561214f565b600181815b808511156121cb578162ffffff048211156121b1576121b161214f565b808516156121be57918102915b93841c9390800290612194565b509250929050565b6000826121e257506001610b55565b816121ef57506000610b55565b8160018114612205576002811461220f5761223f565b6001915050610b55565b60ff8411156122205761222061214f565b6001841b915062ffffff8211156122395761223961214f565b50610b55565b5060208310610133831016604e8410600b8410161715612275575081810a62ffffff8111156122705761227061214f565b610b55565b61227f838361218f565b8062ffffff048211156122945761229461214f565b029392505050565b6000611dc660ff841662ffffff84166121d3565b6001600160701b03818116838216028082169190828114611cb457611cb461214f565b634e487b7160e01b600052601260045260246000fd5b6000826122f8576122f86122d3565b500490565b60006001820161230f5761230f61214f565b5060010190565b60008251612328818460208701611f2c565b9190910192915050565b60006020828403121561234457600080fd5b81518015158114611dc657600080fd5b600082612363576123636122d3565b500690565b80820180821115610b5557610b5561214f565b60006020828403121561238d57600080fd5b8151611dc681611e7e565b6001600160e01b038281168282168181028316929181158285048214176123c1576123c161214f565b50505092915050565b60006001600160e01b03838116806123e4576123e46122d3565b9216919091049291505056fea264697066735822122070bf8e0b9163a88739745b9dc0a7e6a0bf28334bfecf0acb65c083165ea14a7364736f6c63430008110033496f7461426565537761704c6962726172793a20494e53554646494349454e54a26469706673582212206efb31f3e655bb18ece43ec847ebe4e8595c8fae414a4a26c62730983f48579764736f6c63430008110033",
    "sourcePath": "d:/contract/iotabee/periphery/IotaBeeSwapLpRouter.sol",
    "compiler": {
        "name": "solc",
        "version": "0.8.17+commit.8df45f5f"
    },
    "functionHashes": {
        "WETH()": "ad5c4648",
        "addLiquidity(address,address,uint24,uint256,uint256,uint256,uint256,address,uint256)": "4a60791e",
        "addLiquidityETH(address,uint24,uint256,uint256,uint256,address,uint256)": "f0b54b09",
        "factory()": "c45a0155",
        "getAmountIn(uint256,uint256,uint256,uint24)": "67a86300",
        "getAmountOut(uint256,uint256,uint256,uint24)": "886ee7b5",
        "getAmountsIn(uint256,address[],uint24[])": "9ec505b5",
        "getAmountsOut(uint256,address[],uint24[])": "9f48b439",
        "quote(uint256,uint256,uint256)": "ad615dec",
        "removeLiquidity(address,address,uint24,uint256,uint256,uint256,address,uint256)": "337141b1",
        "removeLiquidityETH(address,uint24,uint256,uint256,uint256,address,uint256)": "8df94767",
        "removeLiquidityETHSupportingFeeOnTransferTokens(address,uint24,uint256,uint256,uint256,address,uint256)": "076e4b6d",
        "removeLiquidityETHWithPermit(address,uint24,uint256,uint256,uint256,address,uint256,(bool,uint8,bytes32,bytes32))": "1e82f87b",
        "removeLiquidityETHWithPermitSupportingFeeOnTransferTokens(address,uint24,uint256,uint256,uint256,address,uint256,(bool,uint8,bytes32,bytes32))": "4e1ae772",
        "removeLiquidityWithPermit(address,address,uint24,uint256,uint256,uint256,address,uint256,(bool,uint8,bytes32,bytes32))": "1d58730b"
    },
    "gasEstimates": {
        "creation": {
            "codeDepositCost": "4084200",
            "executionCost": "infinite",
            "totalCost": "infinite"
        },
        "external": {
            "WETH()": "infinite",
            "addLiquidity(address,address,uint24,uint256,uint256,uint256,uint256,address,uint256)": "infinite",
            "addLiquidityETH(address,uint24,uint256,uint256,uint256,address,uint256)": "infinite",
            "factory()": "infinite",
            "getAmountIn(uint256,uint256,uint256,uint24)": "infinite",
            "getAmountOut(uint256,uint256,uint256,uint24)": "infinite",
            "getAmountsIn(uint256,address[],uint24[])": "infinite",
            "getAmountsOut(uint256,address[],uint24[])": "infinite",
            "quote(uint256,uint256,uint256)": "infinite",
            "removeLiquidity(address,address,uint24,uint256,uint256,uint256,address,uint256)": "infinite",
            "removeLiquidityETH(address,uint24,uint256,uint256,uint256,address,uint256)": "infinite",
            "removeLiquidityETHSupportingFeeOnTransferTokens(address,uint24,uint256,uint256,uint256,address,uint256)": "infinite",
            "removeLiquidityETHWithPermit(address,uint24,uint256,uint256,uint256,address,uint256,(bool,uint8,bytes32,bytes32))": "infinite",
            "removeLiquidityETHWithPermitSupportingFeeOnTransferTokens(address,uint24,uint256,uint256,uint256,address,uint256,(bool,uint8,bytes32,bytes32))": "infinite",
            "removeLiquidityWithPermit(address,address,uint24,uint256,uint256,uint256,address,uint256,(bool,uint8,bytes32,bytes32))": "infinite"
        },
        "internal": {
            "_addLiquidity(address,address,uint24,uint256,uint256,uint256,uint256)": "infinite"
        }
    }
}