{
    "contractName": "IotaBeeSwapLpRouter",
    "abi": [
        {
            "inputs": [
                {
                    "internalType": "address",
                    "name": "_factory",
                    "type": "address"
                },
                {
                    "internalType": "address",
                    "name": "_WETH",
                    "type": "address"
                }
            ],
            "stateMutability": "nonpayable",
            "type": "constructor"
        },
        {
            "inputs": [],
            "name": "WETH",
            "outputs": [
                {
                    "internalType": "address",
                    "name": "",
                    "type": "address"
                }
            ],
            "stateMutability": "view",
            "type": "function"
        },
        {
            "inputs": [
                {
                    "internalType": "address",
                    "name": "tokenA",
                    "type": "address"
                },
                {
                    "internalType": "address",
                    "name": "tokenB",
                    "type": "address"
                },
                {
                    "internalType": "uint24",
                    "name": "feeRate",
                    "type": "uint24"
                },
                {
                    "internalType": "uint256",
                    "name": "amountADesired",
                    "type": "uint256"
                },
                {
                    "internalType": "uint256",
                    "name": "amountBDesired",
                    "type": "uint256"
                },
                {
                    "internalType": "uint256",
                    "name": "amountAMin",
                    "type": "uint256"
                },
                {
                    "internalType": "uint256",
                    "name": "amountBMin",
                    "type": "uint256"
                },
                {
                    "internalType": "address",
                    "name": "to",
                    "type": "address"
                },
                {
                    "internalType": "uint256",
                    "name": "deadline",
                    "type": "uint256"
                }
            ],
            "name": "addLiquidity",
            "outputs": [
                {
                    "internalType": "uint256",
                    "name": "amountA",
                    "type": "uint256"
                },
                {
                    "internalType": "uint256",
                    "name": "amountB",
                    "type": "uint256"
                },
                {
                    "internalType": "uint256",
                    "name": "liquidity",
                    "type": "uint256"
                }
            ],
            "stateMutability": "nonpayable",
            "type": "function"
        },
        {
            "inputs": [
                {
                    "internalType": "address",
                    "name": "token",
                    "type": "address"
                },
                {
                    "internalType": "uint24",
                    "name": "feeRate",
                    "type": "uint24"
                },
                {
                    "internalType": "uint256",
                    "name": "amountTokenDesired",
                    "type": "uint256"
                },
                {
                    "internalType": "uint256",
                    "name": "amountTokenMin",
                    "type": "uint256"
                },
                {
                    "internalType": "uint256",
                    "name": "amountETHMin",
                    "type": "uint256"
                },
                {
                    "internalType": "address",
                    "name": "to",
                    "type": "address"
                },
                {
                    "internalType": "uint256",
                    "name": "deadline",
                    "type": "uint256"
                }
            ],
            "name": "addLiquidityETH",
            "outputs": [
                {
                    "internalType": "uint256",
                    "name": "amountToken",
                    "type": "uint256"
                },
                {
                    "internalType": "uint256",
                    "name": "amountETH",
                    "type": "uint256"
                },
                {
                    "internalType": "uint256",
                    "name": "liquidity",
                    "type": "uint256"
                }
            ],
            "stateMutability": "payable",
            "type": "function"
        },
        {
            "inputs": [],
            "name": "factory",
            "outputs": [
                {
                    "internalType": "address",
                    "name": "",
                    "type": "address"
                }
            ],
            "stateMutability": "view",
            "type": "function"
        },
        {
            "inputs": [
                {
                    "internalType": "uint256",
                    "name": "amountOut",
                    "type": "uint256"
                },
                {
                    "internalType": "uint256",
                    "name": "reserveIn",
                    "type": "uint256"
                },
                {
                    "internalType": "uint256",
                    "name": "reserveOut",
                    "type": "uint256"
                },
                {
                    "internalType": "uint24",
                    "name": "feeRate",
                    "type": "uint24"
                }
            ],
            "name": "getAmountIn",
            "outputs": [
                {
                    "internalType": "uint256",
                    "name": "amountIn",
                    "type": "uint256"
                }
            ],
            "stateMutability": "pure",
            "type": "function"
        },
        {
            "inputs": [
                {
                    "internalType": "uint256",
                    "name": "amountIn",
                    "type": "uint256"
                },
                {
                    "internalType": "uint256",
                    "name": "reserveIn",
                    "type": "uint256"
                },
                {
                    "internalType": "uint256",
                    "name": "reserveOut",
                    "type": "uint256"
                },
                {
                    "internalType": "uint24",
                    "name": "feeRate",
                    "type": "uint24"
                }
            ],
            "name": "getAmountOut",
            "outputs": [
                {
                    "internalType": "uint256",
                    "name": "amountOut",
                    "type": "uint256"
                }
            ],
            "stateMutability": "pure",
            "type": "function"
        },
        {
            "inputs": [
                {
                    "internalType": "uint256",
                    "name": "amountOut",
                    "type": "uint256"
                },
                {
                    "internalType": "address[]",
                    "name": "path",
                    "type": "address[]"
                },
                {
                    "internalType": "uint24[]",
                    "name": "feeRates",
                    "type": "uint24[]"
                }
            ],
            "name": "getAmountsIn",
            "outputs": [
                {
                    "internalType": "uint256[]",
                    "name": "amounts",
                    "type": "uint256[]"
                }
            ],
            "stateMutability": "view",
            "type": "function"
        },
        {
            "inputs": [
                {
                    "internalType": "uint256",
                    "name": "amountIn",
                    "type": "uint256"
                },
                {
                    "internalType": "address[]",
                    "name": "path",
                    "type": "address[]"
                },
                {
                    "internalType": "uint24[]",
                    "name": "feeRates",
                    "type": "uint24[]"
                }
            ],
            "name": "getAmountsOut",
            "outputs": [
                {
                    "internalType": "uint256[]",
                    "name": "amounts",
                    "type": "uint256[]"
                }
            ],
            "stateMutability": "view",
            "type": "function"
        },
        {
            "inputs": [
                {
                    "internalType": "uint256",
                    "name": "amountA",
                    "type": "uint256"
                },
                {
                    "internalType": "uint256",
                    "name": "reserveA",
                    "type": "uint256"
                },
                {
                    "internalType": "uint256",
                    "name": "reserveB",
                    "type": "uint256"
                }
            ],
            "name": "quote",
            "outputs": [
                {
                    "internalType": "uint256",
                    "name": "amountB",
                    "type": "uint256"
                }
            ],
            "stateMutability": "pure",
            "type": "function"
        },
        {
            "inputs": [
                {
                    "internalType": "address",
                    "name": "tokenA",
                    "type": "address"
                },
                {
                    "internalType": "address",
                    "name": "tokenB",
                    "type": "address"
                },
                {
                    "internalType": "uint24",
                    "name": "feeRate",
                    "type": "uint24"
                },
                {
                    "internalType": "uint256",
                    "name": "liquidity",
                    "type": "uint256"
                },
                {
                    "internalType": "uint256",
                    "name": "amountAMin",
                    "type": "uint256"
                },
                {
                    "internalType": "uint256",
                    "name": "amountBMin",
                    "type": "uint256"
                },
                {
                    "internalType": "address",
                    "name": "to",
                    "type": "address"
                },
                {
                    "internalType": "uint256",
                    "name": "deadline",
                    "type": "uint256"
                }
            ],
            "name": "removeLiquidity",
            "outputs": [
                {
                    "internalType": "uint256",
                    "name": "amountA",
                    "type": "uint256"
                },
                {
                    "internalType": "uint256",
                    "name": "amountB",
                    "type": "uint256"
                }
            ],
            "stateMutability": "nonpayable",
            "type": "function"
        },
        {
            "inputs": [
                {
                    "internalType": "address",
                    "name": "token",
                    "type": "address"
                },
                {
                    "internalType": "uint24",
                    "name": "feeRate",
                    "type": "uint24"
                },
                {
                    "internalType": "uint256",
                    "name": "liquidity",
                    "type": "uint256"
                },
                {
                    "internalType": "uint256",
                    "name": "amountTokenMin",
                    "type": "uint256"
                },
                {
                    "internalType": "uint256",
                    "name": "amountETHMin",
                    "type": "uint256"
                },
                {
                    "internalType": "address",
                    "name": "to",
                    "type": "address"
                },
                {
                    "internalType": "uint256",
                    "name": "deadline",
                    "type": "uint256"
                }
            ],
            "name": "removeLiquidityETH",
            "outputs": [
                {
                    "internalType": "uint256",
                    "name": "amountToken",
                    "type": "uint256"
                },
                {
                    "internalType": "uint256",
                    "name": "amountETH",
                    "type": "uint256"
                }
            ],
            "stateMutability": "nonpayable",
            "type": "function"
        },
        {
            "inputs": [
                {
                    "internalType": "address",
                    "name": "token",
                    "type": "address"
                },
                {
                    "internalType": "uint24",
                    "name": "feeRate",
                    "type": "uint24"
                },
                {
                    "internalType": "uint256",
                    "name": "liquidity",
                    "type": "uint256"
                },
                {
                    "internalType": "uint256",
                    "name": "amountTokenMin",
                    "type": "uint256"
                },
                {
                    "internalType": "uint256",
                    "name": "amountETHMin",
                    "type": "uint256"
                },
                {
                    "internalType": "address",
                    "name": "to",
                    "type": "address"
                },
                {
                    "internalType": "uint256",
                    "name": "deadline",
                    "type": "uint256"
                }
            ],
            "name": "removeLiquidityETHSupportingFeeOnTransferTokens",
            "outputs": [
                {
                    "internalType": "uint256",
                    "name": "amountETH",
                    "type": "uint256"
                }
            ],
            "stateMutability": "nonpayable",
            "type": "function"
        },
        {
            "inputs": [
                {
                    "internalType": "address",
                    "name": "token",
                    "type": "address"
                },
                {
                    "internalType": "uint24",
                    "name": "feeRate",
                    "type": "uint24"
                },
                {
                    "internalType": "uint256",
                    "name": "liquidity",
                    "type": "uint256"
                },
                {
                    "internalType": "uint256",
                    "name": "amountTokenMin",
                    "type": "uint256"
                },
                {
                    "internalType": "uint256",
                    "name": "amountETHMin",
                    "type": "uint256"
                },
                {
                    "internalType": "address",
                    "name": "to",
                    "type": "address"
                },
                {
                    "internalType": "uint256",
                    "name": "deadline",
                    "type": "uint256"
                },
                {
                    "components": [
                        {
                            "internalType": "bool",
                            "name": "approveMax",
                            "type": "bool"
                        },
                        {
                            "internalType": "uint8",
                            "name": "v",
                            "type": "uint8"
                        },
                        {
                            "internalType": "bytes32",
                            "name": "r",
                            "type": "bytes32"
                        },
                        {
                            "internalType": "bytes32",
                            "name": "s",
                            "type": "bytes32"
                        }
                    ],
                    "internalType": "struct IIotaBeeSwapLpRouter.PermitData",
                    "name": "pd",
                    "type": "tuple"
                }
            ],
            "name": "removeLiquidityETHWithPermit",
            "outputs": [
                {
                    "internalType": "uint256",
                    "name": "amountToken",
                    "type": "uint256"
                },
                {
                    "internalType": "uint256",
                    "name": "amountETH",
                    "type": "uint256"
                }
            ],
            "stateMutability": "nonpayable",
            "type": "function"
        },
        {
            "inputs": [
                {
                    "internalType": "address",
                    "name": "token",
                    "type": "address"
                },
                {
                    "internalType": "uint24",
                    "name": "feeRate",
                    "type": "uint24"
                },
                {
                    "internalType": "uint256",
                    "name": "liquidity",
                    "type": "uint256"
                },
                {
                    "internalType": "uint256",
                    "name": "amountTokenMin",
                    "type": "uint256"
                },
                {
                    "internalType": "uint256",
                    "name": "amountETHMin",
                    "type": "uint256"
                },
                {
                    "internalType": "address",
                    "name": "to",
                    "type": "address"
                },
                {
                    "internalType": "uint256",
                    "name": "deadline",
                    "type": "uint256"
                },
                {
                    "components": [
                        {
                            "internalType": "bool",
                            "name": "approveMax",
                            "type": "bool"
                        },
                        {
                            "internalType": "uint8",
                            "name": "v",
                            "type": "uint8"
                        },
                        {
                            "internalType": "bytes32",
                            "name": "r",
                            "type": "bytes32"
                        },
                        {
                            "internalType": "bytes32",
                            "name": "s",
                            "type": "bytes32"
                        }
                    ],
                    "internalType": "struct IIotaBeeSwapLpRouter.PermitData",
                    "name": "pd",
                    "type": "tuple"
                }
            ],
            "name": "removeLiquidityETHWithPermitSupportingFeeOnTransferTokens",
            "outputs": [
                {
                    "internalType": "uint256",
                    "name": "amountETH",
                    "type": "uint256"
                }
            ],
            "stateMutability": "nonpayable",
            "type": "function"
        },
        {
            "inputs": [
                {
                    "internalType": "address",
                    "name": "tokenA",
                    "type": "address"
                },
                {
                    "internalType": "address",
                    "name": "tokenB",
                    "type": "address"
                },
                {
                    "internalType": "uint24",
                    "name": "feeRate",
                    "type": "uint24"
                },
                {
                    "internalType": "uint256",
                    "name": "liquidity",
                    "type": "uint256"
                },
                {
                    "internalType": "uint256",
                    "name": "amountAMin",
                    "type": "uint256"
                },
                {
                    "internalType": "uint256",
                    "name": "amountBMin",
                    "type": "uint256"
                },
                {
                    "internalType": "address",
                    "name": "to",
                    "type": "address"
                },
                {
                    "internalType": "uint256",
                    "name": "deadline",
                    "type": "uint256"
                },
                {
                    "components": [
                        {
                            "internalType": "bool",
                            "name": "approveMax",
                            "type": "bool"
                        },
                        {
                            "internalType": "uint8",
                            "name": "v",
                            "type": "uint8"
                        },
                        {
                            "internalType": "bytes32",
                            "name": "r",
                            "type": "bytes32"
                        },
                        {
                            "internalType": "bytes32",
                            "name": "s",
                            "type": "bytes32"
                        }
                    ],
                    "internalType": "struct IIotaBeeSwapLpRouter.PermitData",
                    "name": "pd",
                    "type": "tuple"
                }
            ],
            "name": "removeLiquidityWithPermit",
            "outputs": [
                {
                    "internalType": "uint256",
                    "name": "amountA",
                    "type": "uint256"
                },
                {
                    "internalType": "uint256",
                    "name": "amountB",
                    "type": "uint256"
                }
            ],
            "stateMutability": "nonpayable",
            "type": "function"
        },
        {
            "stateMutability": "payable",
            "type": "receive"
        }
    ],
    "bytecode": "60c06040523480156200001157600080fd5b50604051620027d4380380620027d4833981016040819052620000349162000069565b6001600160a01b039182166080521660a052620000a1565b80516001600160a01b03811681146200006457600080fd5b919050565b600080604083850312156200007d57600080fd5b62000088836200004c565b915062000098602084016200004c565b90509250929050565b60805160a051612674620001606000396000818160fc015281816102d2015281816103a50152818161045e015281816105e801528181610a1301528181610b2601528181610b7601528181610cf401528181610d4b01528181610d800152610e1501526000818161033e015281816104e2015281816105c6015281816106e901528181610929015281816109f101528181610bf801528181610c5901528181610d2901528181611310015281816113b7015261143d01526126746000f3fe6080604052600436106100ec5760003560e01c8063886ee7b51161008a578063ad5c464811610059578063ad5c4648146102c0578063ad615dec1461030c578063c45a01551461032c578063f0b54b091461036057600080fd5b8063886ee7b5146102335780638df94767146102535780639ec505b5146102735780639f48b439146102a057600080fd5b8063337141b1116100c6578063337141b1146101b85780634a60791e146101d85780634e1ae7721461021357806367a863001461023357600080fd5b8063076e4b6d146101305780631d58730b146101635780631e82f87b1461019857600080fd5b3661012b57336001600160a01b037f0000000000000000000000000000000000000000000000000000000000000000161461012957610129611d94565b005b600080fd5b34801561013c57600080fd5b5061015061014b366004611dda565b610373565b6040519081526020015b60405180910390f35b34801561016f57600080fd5b5061018361017e366004611f1d565b6104d8565b6040805192835260208301919091520161015a565b3480156101a457600080fd5b506101836101b3366004611fb0565b6105bc565b3480156101c457600080fd5b506101836101d3366004612030565b6106be565b3480156101e457600080fd5b506101f86101f33660046120b3565b6108e8565b6040805193845260208401929092529082015260600161015a565b34801561021f57600080fd5b5061015061022e366004611fb0565b6109e9565b34801561023f57600080fd5b5061015061024e366004612140565b610ae5565b34801561025f57600080fd5b5061018361026e366004611dda565b610afc565b34801561027f57600080fd5b5061029361028e3660046121c4565b610bf1565b60405161015a91906122a6565b3480156102ac57600080fd5b506102936102bb3660046121c4565b610c52565b3480156102cc57600080fd5b506102f47f000000000000000000000000000000000000000000000000000000000000000081565b6040516001600160a01b03909116815260200161015a565b34801561031857600080fd5b506101506103273660046122ea565b610cb3565b34801561033857600080fd5b506102f47f000000000000000000000000000000000000000000000000000000000000000081565b6101f861036e366004611dda565b610cc8565b6000814281101561039f5760405162461bcd60e51b815260040161039690612316565b60405180910390fd5b6103cf897f00000000000000000000000000000000000000000000000000000000000000008a8a8a8a308a6106be565b6040516370a0823160e01b815230600482015290935061044891508a9086906001600160a01b038316906370a0823190602401602060405180830381865afa15801561041f573d6000803e3d6000fd5b505050506040513d601f19601f820116820180604052508101906104439190612342565b610f2a565b604051632e1a7d4d60e01b8152600481018390527f00000000000000000000000000000000000000000000000000000000000000006001600160a01b031690632e1a7d4d90602401600060405180830381600087803b1580156104aa57600080fd5b505af11580156104be573d6000803e3d6000fd5b505050506104cc848361105b565b50979650505050505050565b60008060006105097f00000000000000000000000000000000000000000000000000000000000000008d8d8d61113a565b90506000846000015161051c5789610520565b6000195b9050816001600160a01b031663d505accf3330848a8a602001518b604001518c606001516040518863ffffffff1660e01b8152600401610566979695949392919061235b565b600060405180830381600087803b15801561058057600080fd5b505af1158015610594573d6000803e3d6000fd5b505050506105a88d8d8d8d8d8d8d8d6106be565b909e909d509b505050505050505050505050565b600080600061060d7f00000000000000000000000000000000000000000000000000000000000000008c7f00000000000000000000000000000000000000000000000000000000000000008d61113a565b9050600084600001516106205789610624565b6000195b9050816001600160a01b031663d505accf3330848a8a602001518b604001518c606001516040518863ffffffff1660e01b815260040161066a979695949392919061235b565b600060405180830381600087803b15801561068457600080fd5b505af1158015610698573d6000803e3d6000fd5b505050506106ab8c8c8c8c8c8c8c610afc565b909d909c509a5050505050505050505050565b60008082428110156106e25760405162461bcd60e51b815260040161039690612316565b60006107107f00000000000000000000000000000000000000000000000000000000000000008d8d8d61113a565b6040516323b872dd60e01b81523360048201526001600160a01b03821660248201819052604482018c90529192506323b872dd906064016020604051808303816000875af1158015610766573d6000803e3d6000fd5b505050506040513d601f19601f8201168201806040525081019061078a919061239c565b5060405163226bf2d160e21b81526001600160a01b03878116600483015260009182918416906389afcb449060240160408051808303816000875af11580156107d7573d6000803e3d6000fd5b505050506040513d601f19601f820116820180604052508101906107fb91906123c0565b91509150600061080b8f8f611201565b509050806001600160a01b03168f6001600160a01b03161461082e578183610831565b82825b90975095508a8710156108865760405162461bcd60e51b815260206004820181905260248201527f494253526f757465723a20494e53554646494349454e545f415f414d4f554e546044820152606401610396565b898610156108d65760405162461bcd60e51b815260206004820181905260248201527f494253526f757465723a20494e53554646494349454e545f425f414d4f554e546044820152606401610396565b50505050509850989650505050505050565b6000806000834281101561090e5760405162461bcd60e51b815260040161039690612316565b61091d8d8d8d8d8d8d8d6112fa565b909450925060006109507f00000000000000000000000000000000000000000000000000000000000000008f8f8f61113a565b905061095e8e33838861157c565b61096a8d33838761157c565b6040516335313c2160e11b81526001600160a01b038881166004830152821690636a627842906024016020604051808303816000875af11580156109b2573d6000803e3d6000fd5b505050506040513d601f19601f820116820180604052508101906109d69190612342565b9250505099509950999650505050505050565b600080610a387f00000000000000000000000000000000000000000000000000000000000000008b7f00000000000000000000000000000000000000000000000000000000000000008c61113a565b905060008360000151610a4b5788610a4f565b6000195b9050816001600160a01b031663d505accf3330848989602001518a604001518b606001516040518863ffffffff1660e01b8152600401610a95979695949392919061235b565b600060405180830381600087803b158015610aaf57600080fd5b505af1158015610ac3573d6000803e3d6000fd5b50505050610ad68b8b8b8b8b8b8b610373565b9b9a5050505050505050505050565b6000610af3858585856116ba565b95945050505050565b6000808242811015610b205760405162461bcd60e51b815260040161039690612316565b610b508a7f00000000000000000000000000000000000000000000000000000000000000008b8b8b8b308b6106be565b9093509150610b608a8685610f2a565b604051632e1a7d4d60e01b8152600481018390527f00000000000000000000000000000000000000000000000000000000000000006001600160a01b031690632e1a7d4d90602401600060405180830381600087803b158015610bc257600080fd5b505af1158015610bd6573d6000803e3d6000fd5b50505050610be4858361105b565b5097509795505050505050565b6060610af37f0000000000000000000000000000000000000000000000000000000000000000868686868080602002602001604051908101604052809392919081815260200183836020028082843760009201919091525061179b92505050565b6060610af37f0000000000000000000000000000000000000000000000000000000000000000868686868080602002602001604051908101604052809392919081815260200183836020028082843760009201919091525061199392505050565b6000610cc0848484611b50565b949350505050565b60008060008342811015610cee5760405162461bcd60e51b815260040161039690612316565b610d1d8b7f00000000000000000000000000000000000000000000000000000000000000008c8c348d8d6112fa565b90945092506000610d707f00000000000000000000000000000000000000000000000000000000000000008d7f00000000000000000000000000000000000000000000000000000000000000008e61113a565b9050610d7e8c33838861157c565b7f00000000000000000000000000000000000000000000000000000000000000006001600160a01b031663d0e30db0856040518263ffffffff1660e01b81526004016000604051808303818588803b158015610dd957600080fd5b505af1158015610ded573d6000803e3d6000fd5b505060405163a9059cbb60e01b81526001600160a01b038581166004830152602482018990527f000000000000000000000000000000000000000000000000000000000000000016935063a9059cbb925060440190506020604051808303816000875af1158015610e62573d6000803e3d6000fd5b505050506040513d601f19601f82011682018060405250810190610e86919061239c565b610e9257610e92611d94565b6040516335313c2160e11b81526001600160a01b038881166004830152821690636a627842906024016020604051808303816000875af1158015610eda573d6000803e3d6000fd5b505050506040513d601f19601f82011682018060405250810190610efe9190612342565b925083341115610f1b57610f1b33610f1686346123fa565b61105b565b50509750975097945050505050565b604080516001600160a01b038481166024830152604480830185905283518084039091018152606490920183526020820180516001600160e01b031663a9059cbb60e01b1790529151600092839290871691610f869190612413565b6000604051808303816000865af19150503d8060008114610fc3576040519150601f19603f3d011682016040523d82523d6000602084013e610fc8565b606091505b5091509150818015610ff2575080511580610ff2575080806020019051810190610ff2919061239c565b6110545760405162461bcd60e51b815260206004820152602d60248201527f5472616e7366657248656c7065723a3a736166655472616e736665723a20747260448201526c185b9cd9995c8819985a5b1959609a1b6064820152608401610396565b5050505050565b604080516000808252602082019092526001600160a01b0384169083906040516110859190612413565b60006040518083038185875af1925050503d80600081146110c2576040519150601f19603f3d011682016040523d82523d6000602084013e6110c7565b606091505b50509050806111355760405162461bcd60e51b815260206004820152603460248201527f5472616e7366657248656c7065723a3a736166655472616e736665724554483a60448201527308115512081d1c985b9cd9995c8819985a5b195960621b6064820152608401610396565b505050565b60008060006111498686611201565b915091508682828660405160200161116393929190612442565b60408051601f198184030181529082905280516020918201206111de939290917f82f55003685db2e34837f9b3a491bed953c4b487155395c74fd42ca2301621fc91016001600160f81b0319815260609390931b6bffffffffffffffffffffffff191660018401526015830191909152603582015260550190565b60408051601f198184030181529190528051602090910120979650505050505050565b600080826001600160a01b0316846001600160a01b0316036112755760405162461bcd60e51b815260206004820152602760248201527f496f7461426565537761704c6962726172793a204944454e544943414c5f41446044820152664452455353455360c81b6064820152608401610396565b826001600160a01b0316846001600160a01b031610611295578284611298565b83835b90925090506001600160a01b0382166112f35760405162461bcd60e51b815260206004820181905260248201527f496f7461426565537761704c6962726172793a205a45524f5f414444524553536044820152606401610396565b9250929050565b604051630b4c774160e11b8152600090819081907f00000000000000000000000000000000000000000000000000000000000000006001600160a01b031690631698ee8290611351908d908d908d90600401612442565b602060405180830381865afa15801561136e573d6000803e3d6000fd5b505050506040513d601f19601f82011682018060405250810190611392919061246a565b6001600160a01b0316036114355760405163a167129560e01b81526001600160a01b037f0000000000000000000000000000000000000000000000000000000000000000169063a1671295906113f0908c908c908c90600401612442565b6020604051808303816000875af115801561140f573d6000803e3d6000fd5b505050506040513d601f19601f82011682018060405250810190611433919061246a565b505b6000806114647f00000000000000000000000000000000000000000000000000000000000000008c8c8c611be0565b91509150816000148015611476575080155b156114865787935086925061156e565b6000611493898484611b50565b90508781116114f757858110156114ec5760405162461bcd60e51b815260206004820181905260248201527f494253526f757465723a20494e53554646494349454e545f425f414d4f554e546044820152606401610396565b88945092508261156c565b6000611504898486611b50565b90508981111561151657611516611d94565b878110156115665760405162461bcd60e51b815260206004820181905260248201527f494253526f757465723a20494e53554646494349454e545f415f414d4f554e546044820152606401610396565b94508793505b505b505097509795505050505050565b604080516001600160a01b0385811660248301528481166044830152606480830185905283518084039091018152608490920183526020820180516001600160e01b03166323b872dd60e01b17905291516000928392908816916115e09190612413565b6000604051808303816000865af19150503d806000811461161d576040519150601f19603f3d011682016040523d82523d6000602084013e611622565b606091505b509150915081801561164c57508051158061164c57508080602001905181019061164c919061239c565b6116b25760405162461bcd60e51b815260206004820152603160248201527f5472616e7366657248656c7065723a3a7472616e7366657246726f6d3a207472604482015270185b9cd9995c919c9bdb4819985a5b1959607a1b6064820152608401610396565b505050505050565b600080851161170f5760405162461bcd60e51b815260206004820152602d602482015260008051602061261f83398151915260448201526c17d25394155517d05353d55395609a1b6064820152608401610396565b60008411801561171f5750600083115b61173b5760405162461bcd60e51b815260040161039690612487565b600061174a83620186a06124bf565b6117599062ffffff16876124e2565b9050600061176785836124e2565b9050600082611779620186a0896124e2565b61178391906124f9565b905061178f818361250c565b98975050505050505050565b60606002835110156117ef5760405162461bcd60e51b815260206004820181905260248201527f496f7461426565537761704c6962726172793a20494e56414c49445f504154486044820152606401610396565b600183516117fd91906123fa565b82511461181c5760405162461bcd60e51b81526004016103969061252e565b825167ffffffffffffffff81111561183657611836611e4a565b60405190808252806020026020018201604052801561185f578160200160208202803683370190505b50905083816001835161187291906123fa565b8151811061188257611882612571565b60200260200101818152505060006001845161189e91906123fa565b90505b801561198a5760008061190b88876118ba6001876123fa565b815181106118ca576118ca612571565b60200260200101518886815181106118e4576118e4612571565b60200260200101518887815181106118fe576118fe612571565b6020026020010151611be0565b9150915061194d84848151811061192457611924612571565b6020026020010151838388878151811061194057611940612571565b6020026020010151611cac565b846119596001866123fa565b8151811061196957611969612571565b6020026020010181815250505050808061198290612587565b9150506118a1565b50949350505050565b60606002835110156119e75760405162461bcd60e51b815260206004820181905260248201527f496f7461426565537761704c6962726172793a20494e56414c49445f504154486044820152606401610396565b600183516119f591906123fa565b825114611a145760405162461bcd60e51b81526004016103969061252e565b825167ffffffffffffffff811115611a2e57611a2e611e4a565b604051908082528060200260200182016040528015611a57578160200160208202803683370190505b5090508381600081518110611a6e57611a6e612571565b60200260200101818152505060005b60018451611a8b91906123fa565b81101561198a57600080611ad188878581518110611aab57611aab612571565b602002602001015188866001611ac191906124f9565b815181106118e4576118e4612571565b91509150611b13848481518110611aea57611aea612571565b60200260200101518383888781518110611b0657611b06612571565b60200260200101516116ba565b84611b1f8560016124f9565b81518110611b2f57611b2f612571565b60200260200101818152505050508080611b489061259e565b915050611a7d565b6000808411611b9f5760405162461bcd60e51b8152602060048201526027602482015260008051602061261f83398151915260448201526617d05353d5539560ca1b6064820152608401610396565b600083118015611baf5750600082115b611bcb5760405162461bcd60e51b815260040161039690612487565b82611bd683866124e2565b610cc0919061250c565b6000806000611bef8686611201565b509050600080611c018989898961113a565b6001600160a01b0316630902f1ac6040518163ffffffff1660e01b8152600401606060405180830381865afa158015611c3e573d6000803e3d6000fd5b505050506040513d601f19601f82011682018060405250810190611c6291906125ce565b506001600160701b031691506001600160701b03169150826001600160a01b0316886001600160a01b031614611c99578082611c9c565b81815b909a909950975050505050505050565b6000808511611d025760405162461bcd60e51b815260206004820152602e602482015260008051602061261f83398151915260448201526d17d3d55514155517d05353d5539560921b6064820152608401610396565b600084118015611d125750600083115b611d2e5760405162461bcd60e51b815260040161039690612487565b6000620186a0611d3e87876124e2565b611d4891906124e2565b90506000611d5984620186a06124bf565b62ffffff16611d6888876123fa565b611d7291906124e2565b9050611d7e818361250c565b611d899060016124f9565b979650505050505050565b634e487b7160e01b600052600160045260246000fd5b6001600160a01b0381168114611dbf57600080fd5b50565b803562ffffff81168114611dd557600080fd5b919050565b600080600080600080600060e0888a031215611df557600080fd5b8735611e0081611daa565b9650611e0e60208901611dc2565b955060408801359450606088013593506080880135925060a0880135611e3381611daa565b8092505060c0880135905092959891949750929550565b634e487b7160e01b600052604160045260246000fd5b604051601f8201601f1916810167ffffffffffffffff81118282101715611e8957611e89611e4a565b604052919050565b8015158114611dbf57600080fd5b600060808284031215611eb157600080fd5b6040516080810181811067ffffffffffffffff82111715611ed457611ed4611e4a565b6040529050808235611ee581611e91565b8152602083013560ff81168114611efb57600080fd5b8060208301525060408301356040820152606083013560608201525092915050565b60008060008060008060008060006101808a8c031215611f3c57600080fd5b8935611f4781611daa565b985060208a0135611f5781611daa565b9750611f6560408b01611dc2565b965060608a0135955060808a0135945060a08a0135935060c08a0135611f8a81611daa565b925060e08a01359150611fa18b6101008c01611e9f565b90509295985092959850929598565b600080600080600080600080610160898b031215611fcd57600080fd5b8835611fd881611daa565b9750611fe660208a01611dc2565b965060408901359550606089013594506080890135935060a089013561200b81611daa565b925060c089013591506120218a60e08b01611e9f565b90509295985092959890939650565b600080600080600080600080610100898b03121561204d57600080fd5b883561205881611daa565b9750602089013561206881611daa565b965061207660408a01611dc2565b9550606089013594506080890135935060a0890135925060c089013561209b81611daa565b8092505060e089013590509295985092959890939650565b60008060008060008060008060006101208a8c0312156120d257600080fd5b89356120dd81611daa565b985060208a01356120ed81611daa565b97506120fb60408b01611dc2565b965060608a0135955060808a0135945060a08a0135935060c08a0135925060e08a013561212781611daa565b809250506101008a013590509295985092959850929598565b6000806000806080858703121561215657600080fd5b84359350602085013592506040850135915061217460608601611dc2565b905092959194509250565b60008083601f84011261219157600080fd5b50813567ffffffffffffffff8111156121a957600080fd5b6020830191508360208260051b85010111156112f357600080fd5b600080600080606085870312156121da57600080fd5b8435935060208086013567ffffffffffffffff808211156121fa57600080fd5b818801915088601f83011261220e57600080fd5b81358181111561222057612220611e4a565b8060051b61222f858201611e60565b918252838101850191858101908c84111561224957600080fd5b948601945b83861015612273578535925061226383611daa565b828252948601949086019061224e565b9850505050604088013592508083111561228c57600080fd5b505061229a8782880161217f565b95989497509550505050565b6020808252825182820181905260009190848201906040850190845b818110156122de578351835292840192918401916001016122c2565b50909695505050505050565b6000806000606084860312156122ff57600080fd5b505081359360208301359350604090920135919050565b602080825260129082015271125094d49bdd5d195c8e881156141254915160721b604082015260600190565b60006020828403121561235457600080fd5b5051919050565b6001600160a01b0397881681529590961660208601526040850193909352606084019190915260ff16608083015260a082015260c081019190915260e00190565b6000602082840312156123ae57600080fd5b81516123b981611e91565b9392505050565b600080604083850312156123d357600080fd5b505080516020909101519092909150565b634e487b7160e01b600052601160045260246000fd5b8181038181111561240d5761240d6123e4565b92915050565b6000825160005b81811015612434576020818601810151858301520161241a565b506000920191825250919050565b6001600160a01b03938416815291909216602082015262ffffff909116604082015260600190565b60006020828403121561247c57600080fd5b81516123b981611daa565b6020808252602a9082015260008051602061261f8339815191526040820152695f4c495155494449545960b01b606082015260800190565b62ffffff8281168282160390808211156124db576124db6123e4565b5092915050565b808202811582820484141761240d5761240d6123e4565b8082018082111561240d5761240d6123e4565b60008261252957634e487b7160e01b600052601260045260246000fd5b500490565b60208082526023908201527f496f7461426565537761704c6962726172793a20494e56414c49445f4645455260408201526241544560e81b606082015260800190565b634e487b7160e01b600052603260045260246000fd5b600081612596576125966123e4565b506000190190565b6000600182016125b0576125b06123e4565b5060010190565b80516001600160701b0381168114611dd557600080fd5b6000806000606084860312156125e357600080fd5b6125ec846125b7565b92506125fa602085016125b7565b9150604084015163ffffffff8116811461261357600080fd5b80915050925092509256fe496f7461426565537761704c6962726172793a20494e53554646494349454e54a2646970667358221220892aec2f84cfa7d2def4c47d1dbef9f68fe57cec3d33fd271a3e680e7ef1f79264736f6c63430008110033",
    "sourcePath": "d:/contract/iotabee/periphery/IotaBeeSwapLpRouter.sol",
    "compiler": {
        "name": "solc",
        "version": "0.8.17+commit.8df45f5f"
    },
    "functionHashes": {
        "WETH()": "ad5c4648",
        "addLiquidity(address,address,uint24,uint256,uint256,uint256,uint256,address,uint256)": "4a60791e",
        "addLiquidityETH(address,uint24,uint256,uint256,uint256,address,uint256)": "f0b54b09",
        "factory()": "c45a0155",
        "getAmountIn(uint256,uint256,uint256,uint24)": "67a86300",
        "getAmountOut(uint256,uint256,uint256,uint24)": "886ee7b5",
        "getAmountsIn(uint256,address[],uint24[])": "9ec505b5",
        "getAmountsOut(uint256,address[],uint24[])": "9f48b439",
        "quote(uint256,uint256,uint256)": "ad615dec",
        "removeLiquidity(address,address,uint24,uint256,uint256,uint256,address,uint256)": "337141b1",
        "removeLiquidityETH(address,uint24,uint256,uint256,uint256,address,uint256)": "8df94767",
        "removeLiquidityETHSupportingFeeOnTransferTokens(address,uint24,uint256,uint256,uint256,address,uint256)": "076e4b6d",
        "removeLiquidityETHWithPermit(address,uint24,uint256,uint256,uint256,address,uint256,(bool,uint8,bytes32,bytes32))": "1e82f87b",
        "removeLiquidityETHWithPermitSupportingFeeOnTransferTokens(address,uint24,uint256,uint256,uint256,address,uint256,(bool,uint8,bytes32,bytes32))": "4e1ae772",
        "removeLiquidityWithPermit(address,address,uint24,uint256,uint256,uint256,address,uint256,(bool,uint8,bytes32,bytes32))": "1d58730b"
    },
    "gasEstimates": {
        "creation": {
            "codeDepositCost": "1968800",
            "executionCost": "infinite",
            "totalCost": "infinite"
        },
        "external": {
            "WETH()": "infinite",
            "addLiquidity(address,address,uint24,uint256,uint256,uint256,uint256,address,uint256)": "infinite",
            "addLiquidityETH(address,uint24,uint256,uint256,uint256,address,uint256)": "infinite",
            "factory()": "infinite",
            "getAmountIn(uint256,uint256,uint256,uint24)": "infinite",
            "getAmountOut(uint256,uint256,uint256,uint24)": "infinite",
            "getAmountsIn(uint256,address[],uint24[])": "infinite",
            "getAmountsOut(uint256,address[],uint24[])": "infinite",
            "quote(uint256,uint256,uint256)": "infinite",
            "removeLiquidity(address,address,uint24,uint256,uint256,uint256,address,uint256)": "infinite",
            "removeLiquidityETH(address,uint24,uint256,uint256,uint256,address,uint256)": "infinite",
            "removeLiquidityETHSupportingFeeOnTransferTokens(address,uint24,uint256,uint256,uint256,address,uint256)": "infinite",
            "removeLiquidityETHWithPermit(address,uint24,uint256,uint256,uint256,address,uint256,(bool,uint8,bytes32,bytes32))": "infinite",
            "removeLiquidityETHWithPermitSupportingFeeOnTransferTokens(address,uint24,uint256,uint256,uint256,address,uint256,(bool,uint8,bytes32,bytes32))": "infinite",
            "removeLiquidityWithPermit(address,address,uint24,uint256,uint256,uint256,address,uint256,(bool,uint8,bytes32,bytes32))": "infinite"
        },
        "internal": {
            "_addLiquidity(address,address,uint24,uint256,uint256,uint256,uint256)": "infinite"
        }
    }
}