{
    "contractName": "IotaBeeSwapRouter",
    "abi": [
        {
            "inputs": [
                {
                    "internalType": "address",
                    "name": "_factory",
                    "type": "address"
                },
                {
                    "internalType": "address",
                    "name": "_WETH",
                    "type": "address"
                }
            ],
            "stateMutability": "nonpayable",
            "type": "constructor"
        },
        {
            "inputs": [],
            "name": "WETH",
            "outputs": [
                {
                    "internalType": "address",
                    "name": "",
                    "type": "address"
                }
            ],
            "stateMutability": "view",
            "type": "function"
        },
        {
            "inputs": [],
            "name": "factory",
            "outputs": [
                {
                    "internalType": "address",
                    "name": "",
                    "type": "address"
                }
            ],
            "stateMutability": "view",
            "type": "function"
        },
        {
            "inputs": [
                {
                    "internalType": "uint256",
                    "name": "amountOut",
                    "type": "uint256"
                },
                {
                    "internalType": "uint256",
                    "name": "reserveIn",
                    "type": "uint256"
                },
                {
                    "internalType": "uint256",
                    "name": "reserveOut",
                    "type": "uint256"
                },
                {
                    "internalType": "uint24",
                    "name": "feeRate",
                    "type": "uint24"
                }
            ],
            "name": "getAmountIn",
            "outputs": [
                {
                    "internalType": "uint256",
                    "name": "amountIn",
                    "type": "uint256"
                }
            ],
            "stateMutability": "pure",
            "type": "function"
        },
        {
            "inputs": [
                {
                    "internalType": "uint256",
                    "name": "amountIn",
                    "type": "uint256"
                },
                {
                    "internalType": "uint256",
                    "name": "reserveIn",
                    "type": "uint256"
                },
                {
                    "internalType": "uint256",
                    "name": "reserveOut",
                    "type": "uint256"
                },
                {
                    "internalType": "uint24",
                    "name": "feeRate",
                    "type": "uint24"
                }
            ],
            "name": "getAmountOut",
            "outputs": [
                {
                    "internalType": "uint256",
                    "name": "amountOut",
                    "type": "uint256"
                }
            ],
            "stateMutability": "pure",
            "type": "function"
        },
        {
            "inputs": [
                {
                    "internalType": "uint256",
                    "name": "amountOut",
                    "type": "uint256"
                },
                {
                    "internalType": "address[]",
                    "name": "path",
                    "type": "address[]"
                },
                {
                    "internalType": "uint24[]",
                    "name": "feeRates",
                    "type": "uint24[]"
                }
            ],
            "name": "getAmountsIn",
            "outputs": [
                {
                    "internalType": "uint256[]",
                    "name": "amounts",
                    "type": "uint256[]"
                }
            ],
            "stateMutability": "view",
            "type": "function"
        },
        {
            "inputs": [
                {
                    "internalType": "uint256",
                    "name": "amountIn",
                    "type": "uint256"
                },
                {
                    "internalType": "address[]",
                    "name": "path",
                    "type": "address[]"
                },
                {
                    "internalType": "uint24[]",
                    "name": "feeRates",
                    "type": "uint24[]"
                }
            ],
            "name": "getAmountsOut",
            "outputs": [
                {
                    "internalType": "uint256[]",
                    "name": "amounts",
                    "type": "uint256[]"
                }
            ],
            "stateMutability": "view",
            "type": "function"
        },
        {
            "inputs": [
                {
                    "internalType": "uint256",
                    "name": "amountA",
                    "type": "uint256"
                },
                {
                    "internalType": "uint256",
                    "name": "reserveA",
                    "type": "uint256"
                },
                {
                    "internalType": "uint256",
                    "name": "reserveB",
                    "type": "uint256"
                }
            ],
            "name": "quote",
            "outputs": [
                {
                    "internalType": "uint256",
                    "name": "amountB",
                    "type": "uint256"
                }
            ],
            "stateMutability": "pure",
            "type": "function"
        },
        {
            "inputs": [
                {
                    "internalType": "uint256",
                    "name": "amountOut",
                    "type": "uint256"
                },
                {
                    "internalType": "address[]",
                    "name": "path",
                    "type": "address[]"
                },
                {
                    "internalType": "uint24[]",
                    "name": "feeRates",
                    "type": "uint24[]"
                },
                {
                    "internalType": "address",
                    "name": "to",
                    "type": "address"
                },
                {
                    "internalType": "uint256",
                    "name": "deadline",
                    "type": "uint256"
                }
            ],
            "name": "swapETHForExactTokens",
            "outputs": [
                {
                    "internalType": "uint256[]",
                    "name": "amounts",
                    "type": "uint256[]"
                }
            ],
            "stateMutability": "payable",
            "type": "function"
        },
        {
            "inputs": [
                {
                    "internalType": "uint256",
                    "name": "amountOutMin",
                    "type": "uint256"
                },
                {
                    "internalType": "address[]",
                    "name": "path",
                    "type": "address[]"
                },
                {
                    "internalType": "uint24[]",
                    "name": "feeRates",
                    "type": "uint24[]"
                },
                {
                    "internalType": "address",
                    "name": "to",
                    "type": "address"
                },
                {
                    "internalType": "uint256",
                    "name": "deadline",
                    "type": "uint256"
                }
            ],
            "name": "swapExactETHForTokens",
            "outputs": [
                {
                    "internalType": "uint256[]",
                    "name": "amounts",
                    "type": "uint256[]"
                }
            ],
            "stateMutability": "payable",
            "type": "function"
        },
        {
            "inputs": [
                {
                    "internalType": "uint256",
                    "name": "amountOutMin",
                    "type": "uint256"
                },
                {
                    "internalType": "address[]",
                    "name": "path",
                    "type": "address[]"
                },
                {
                    "internalType": "uint24[]",
                    "name": "feeRates",
                    "type": "uint24[]"
                },
                {
                    "internalType": "address",
                    "name": "to",
                    "type": "address"
                },
                {
                    "internalType": "uint256",
                    "name": "deadline",
                    "type": "uint256"
                }
            ],
            "name": "swapExactETHForTokensSupportingFeeOnTransferTokens",
            "outputs": [],
            "stateMutability": "payable",
            "type": "function"
        },
        {
            "inputs": [
                {
                    "internalType": "uint256",
                    "name": "amountIn",
                    "type": "uint256"
                },
                {
                    "internalType": "uint256",
                    "name": "amountOutMin",
                    "type": "uint256"
                },
                {
                    "internalType": "address[]",
                    "name": "path",
                    "type": "address[]"
                },
                {
                    "internalType": "uint24[]",
                    "name": "feeRates",
                    "type": "uint24[]"
                },
                {
                    "internalType": "address",
                    "name": "to",
                    "type": "address"
                },
                {
                    "internalType": "uint256",
                    "name": "deadline",
                    "type": "uint256"
                }
            ],
            "name": "swapExactTokensForETH",
            "outputs": [
                {
                    "internalType": "uint256[]",
                    "name": "amounts",
                    "type": "uint256[]"
                }
            ],
            "stateMutability": "nonpayable",
            "type": "function"
        },
        {
            "inputs": [
                {
                    "internalType": "uint256",
                    "name": "amountIn",
                    "type": "uint256"
                },
                {
                    "internalType": "uint256",
                    "name": "amountOutMin",
                    "type": "uint256"
                },
                {
                    "internalType": "address[]",
                    "name": "path",
                    "type": "address[]"
                },
                {
                    "internalType": "uint24[]",
                    "name": "feeRates",
                    "type": "uint24[]"
                },
                {
                    "internalType": "address",
                    "name": "to",
                    "type": "address"
                },
                {
                    "internalType": "uint256",
                    "name": "deadline",
                    "type": "uint256"
                }
            ],
            "name": "swapExactTokensForETHSupportingFeeOnTransferTokens",
            "outputs": [],
            "stateMutability": "nonpayable",
            "type": "function"
        },
        {
            "inputs": [
                {
                    "internalType": "uint256",
                    "name": "amountIn",
                    "type": "uint256"
                },
                {
                    "internalType": "uint256",
                    "name": "amountOutMin",
                    "type": "uint256"
                },
                {
                    "internalType": "address[]",
                    "name": "path",
                    "type": "address[]"
                },
                {
                    "internalType": "uint24[]",
                    "name": "feeRates",
                    "type": "uint24[]"
                },
                {
                    "internalType": "address",
                    "name": "to",
                    "type": "address"
                },
                {
                    "internalType": "uint256",
                    "name": "deadline",
                    "type": "uint256"
                }
            ],
            "name": "swapExactTokensForTokens",
            "outputs": [
                {
                    "internalType": "uint256[]",
                    "name": "amounts",
                    "type": "uint256[]"
                }
            ],
            "stateMutability": "nonpayable",
            "type": "function"
        },
        {
            "inputs": [
                {
                    "internalType": "uint256",
                    "name": "amountIn",
                    "type": "uint256"
                },
                {
                    "internalType": "uint256",
                    "name": "amountOutMin",
                    "type": "uint256"
                },
                {
                    "internalType": "address[]",
                    "name": "path",
                    "type": "address[]"
                },
                {
                    "internalType": "uint24[]",
                    "name": "feeRates",
                    "type": "uint24[]"
                },
                {
                    "internalType": "address",
                    "name": "to",
                    "type": "address"
                },
                {
                    "internalType": "uint256",
                    "name": "deadline",
                    "type": "uint256"
                }
            ],
            "name": "swapExactTokensForTokensSupportingFeeOnTransferTokens",
            "outputs": [],
            "stateMutability": "nonpayable",
            "type": "function"
        },
        {
            "inputs": [
                {
                    "internalType": "uint256",
                    "name": "amountOut",
                    "type": "uint256"
                },
                {
                    "internalType": "uint256",
                    "name": "amountInMax",
                    "type": "uint256"
                },
                {
                    "internalType": "address[]",
                    "name": "path",
                    "type": "address[]"
                },
                {
                    "internalType": "uint24[]",
                    "name": "feeRates",
                    "type": "uint24[]"
                },
                {
                    "internalType": "address",
                    "name": "to",
                    "type": "address"
                },
                {
                    "internalType": "uint256",
                    "name": "deadline",
                    "type": "uint256"
                }
            ],
            "name": "swapTokensForExactETH",
            "outputs": [
                {
                    "internalType": "uint256[]",
                    "name": "amounts",
                    "type": "uint256[]"
                }
            ],
            "stateMutability": "nonpayable",
            "type": "function"
        },
        {
            "inputs": [
                {
                    "internalType": "uint256",
                    "name": "amountOut",
                    "type": "uint256"
                },
                {
                    "internalType": "uint256",
                    "name": "amountInMax",
                    "type": "uint256"
                },
                {
                    "internalType": "address[]",
                    "name": "path",
                    "type": "address[]"
                },
                {
                    "internalType": "uint24[]",
                    "name": "feeRates",
                    "type": "uint24[]"
                },
                {
                    "internalType": "address",
                    "name": "to",
                    "type": "address"
                },
                {
                    "internalType": "uint256",
                    "name": "deadline",
                    "type": "uint256"
                }
            ],
            "name": "swapTokensForExactTokens",
            "outputs": [
                {
                    "internalType": "uint256[]",
                    "name": "amounts",
                    "type": "uint256[]"
                }
            ],
            "stateMutability": "nonpayable",
            "type": "function"
        },
        {
            "stateMutability": "payable",
            "type": "receive"
        }
    ],
    "bytecode": "60c06040523480156200001157600080fd5b50604051620034c8380380620034c8833981016040819052620000349162000069565b6001600160a01b039182166080521660a052620000a1565b80516001600160a01b03811681146200006457600080fd5b919050565b600080604083850312156200007d57600080fd5b62000088836200004c565b915062000098602084016200004c565b90509250929050565b60805160a051613313620001b56000396000818161010701528181610264015281816105fd015281816107d3015281816108d401528181610b3301528181610bb001528181610c2401528181610fcf01528181611112015281816111a001528181611397015281816114fe015281816115a90152818161163c0152818161178b01526118190152600081816102e30152818161038901528181610480015281816106790152818161095001528181610a3e01528181610c5601528181610f4001528181610f760152818161104a015281816111d20152818161143f015281816116b70152818161184b0152818161202a015281816120a001528181612575015281816125b501526126cf01526133136000f3fe6080604052600436106100f75760003560e01c80639f48b4391161008a578063c45a015511610059578063c45a0155146102d1578063db24105d14610305578063e8677b0a14610325578063edcbbd461461033857600080fd5b80639f48b43914610232578063ad5c464814610252578063ad615dec1461029e578063bf228ea8146102be57600080fd5b8063899c25ce116100c6578063899c25ce146101bf57806393a2e9ed146101df5780639e881335146101ff5780639ec505b51461021257600080fd5b80632be591cf1461013b57806367a86300146101715780637d3428391461019f578063886ee7b51461017157600080fd5b3661013657336001600160a01b037f0000000000000000000000000000000000000000000000000000000000000000161461013457610134612af4565b005b600080fd5b34801561014757600080fd5b5061015b610156366004612b6b565b610358565b6040516101689190612c08565b60405180910390f35b34801561017d57600080fd5b5061019161018c366004612c5f565b6105b9565b604051908152602001610168565b3480156101ab57600080fd5b5061015b6101ba366004612b6b565b6105d0565b3480156101cb57600080fd5b5061015b6101da366004612b6b565b6108a7565b3480156101eb57600080fd5b5061015b6101fa366004612b6b565b610a16565b61013461020d366004612c9e565b610b10565b34801561021e57600080fd5b5061015b61022d366004612e0f565b610f39565b34801561023e57600080fd5b5061015b61024d366004612e0f565b610f6f565b34801561025e57600080fd5b506102867f000000000000000000000000000000000000000000000000000000000000000081565b6040516001600160a01b039091168152602001610168565b3480156102aa57600080fd5b506101916102b9366004612eda565b610f9d565b61015b6102cc366004612c9e565b610faa565b3480156102dd57600080fd5b506102867f000000000000000000000000000000000000000000000000000000000000000081565b34801561031157600080fd5b50610134610320366004612b6b565b61136c565b61015b610333366004612c9e565b611617565b34801561034457600080fd5b50610134610353366004612b6b565b611988565b606081428110156103845760405162461bcd60e51b815260040161037b90612f06565b60405180910390fd5b6104137f00000000000000000000000000000000000000000000000000000000000000008b8a8a8080602002602001604051908101604052809392919081815260200183836020028082843760009201919091525050604080516020808e0282810182019093528d82529093508d92508c918291850190849080828437600092019190915250611b3292505050565b9150888260008151811061042957610429612f32565b6020026020010151111561044f5760405162461bcd60e51b815260040161037b90612f48565b61053c8888600081811061046557610465612f32565b905060200201602081019061047a9190612f89565b3361051c7f00000000000000000000000000000000000000000000000000000000000000008c8c60008181106104b2576104b2612f32565b90506020020160208101906104c79190612f89565b8d8d60018181106104da576104da612f32565b90506020020160208101906104ef9190612f89565b8c8c600081811061050257610502612f32565b90506020020160208101906105179190612fab565b611d2a565b8560008151811061052f5761052f612f32565b6020026020010151611e09565b6105ac8289898080602002602001604051908101604052809392919081815260200183836020028082843760009201919091525050604080516020808d0282810182019093528c82529093508c92508b9182918501908490808284376000920191909152508a9250611f47915050565b5098975050505050505050565b60006105c785858585612183565b95945050505050565b606081428110156105f35760405162461bcd60e51b815260040161037b90612f06565b6001600160a01b037f000000000000000000000000000000000000000000000000000000000000000016888861062a600182612fdc565b81811061063957610639612f32565b905060200201602081019061064e9190612f89565b6001600160a01b0316146106745760405162461bcd60e51b815260040161037b90612ff5565b6107037f00000000000000000000000000000000000000000000000000000000000000008b8a8a8080602002602001604051908101604052809392919081815260200183836020028082843760009201919091525050604080516020808e0282810182019093528d82529093508d92508c91829185019084908082843760009201919091525061226492505050565b91508882600184516107159190612fdc565b8151811061072557610725612f32565b6020026020010151101561074b5760405162461bcd60e51b815260040161037b9061302c565b6107618888600081811061046557610465612f32565b6107d18289898080602002602001604051908101604052809392919081815260200183836020028082843760009201919091525050604080516020808d0282810182019093528c82529093508c92508b918291850190849080828437600092019190915250309250611f47915050565b7f00000000000000000000000000000000000000000000000000000000000000006001600160a01b0316632e1a7d4d836001855161080f9190612fdc565b8151811061081f5761081f612f32565b60200260200101516040518263ffffffff1660e01b815260040161084591815260200190565b600060405180830381600087803b15801561085f57600080fd5b505af1158015610873573d6000803e3d6000fd5b505050506105ac84836001855161088a9190612fdc565b8151811061089a5761089a612f32565b6020026020010151612421565b606081428110156108ca5760405162461bcd60e51b815260040161037b90612f06565b6001600160a01b037f0000000000000000000000000000000000000000000000000000000000000000168888610901600182612fdc565b81811061091057610910612f32565b90506020020160208101906109259190612f89565b6001600160a01b03161461094b5760405162461bcd60e51b815260040161037b90612ff5565b6109da7f00000000000000000000000000000000000000000000000000000000000000008b8a8a8080602002602001604051908101604052809392919081815260200183836020028082843760009201919091525050604080516020808e0282810182019093528d82529093508d92508c918291850190849080828437600092019190915250611b3292505050565b915088826000815181106109f0576109f0612f32565b6020026020010151111561074b5760405162461bcd60e51b815260040161037b90612f48565b60608142811015610a395760405162461bcd60e51b815260040161037b90612f06565b610ac87f00000000000000000000000000000000000000000000000000000000000000008b8a8a8080602002602001604051908101604052809392919081815260200183836020028082843760009201919091525050604080516020808e0282810182019093528d82529093508d92508c91829185019084908082843760009201919091525061226492505050565b9150888260018451610ada9190612fdc565b81518110610aea57610aea612f32565b6020026020010151101561044f5760405162461bcd60e51b815260040161037b9061302c565b8042811015610b315760405162461bcd60e51b815260040161037b90612f06565b7f00000000000000000000000000000000000000000000000000000000000000006001600160a01b031687876000818110610b6e57610b6e612f32565b9050602002016020810190610b839190612f89565b6001600160a01b031614610ba95760405162461bcd60e51b815260040161037b90612ff5565b60003490507f00000000000000000000000000000000000000000000000000000000000000006001600160a01b031663d0e30db0826040518263ffffffff1660e01b81526004016000604051808303818588803b158015610c0957600080fd5b505af1158015610c1d573d6000803e3d6000fd5b50505050507f00000000000000000000000000000000000000000000000000000000000000006001600160a01b031663a9059cbb610cd87f00000000000000000000000000000000000000000000000000000000000000008b8b6000818110610c8857610c88612f32565b9050602002016020810190610c9d9190612f89565b8c8c6001818110610cb057610cb0612f32565b9050602002016020810190610cc59190612f89565b8b8b600081811061050257610502612f32565b6040516001600160e01b031960e084901b1681526001600160a01b039091166004820152602481018490526044016020604051808303816000875af1158015610d25573d6000803e3d6000fd5b505050506040513d601f19601f82011682018060405250810190610d499190613071565b610d5557610d55612af4565b60008888610d64600182612fdc565b818110610d7357610d73612f32565b9050602002016020810190610d889190612f89565b6040516370a0823160e01b81526001600160a01b03878116600483015291909116906370a0823190602401602060405180830381865afa158015610dd0573d6000803e3d6000fd5b505050506040513d601f19601f82011682018060405250810190610df49190613093565b9050610e6589898080602002602001604051908101604052809392919081815260200183836020028082843760009201919091525050604080516020808d0282810182019093528c82529093508c92508b9182918501908490808284376000920191909152508a9250612500915050565b89818a8a610e74600182612fdc565b818110610e8357610e83612f32565b9050602002016020810190610e989190612f89565b6040516370a0823160e01b81526001600160a01b03898116600483015291909116906370a08231906024015b602060405180830381865afa158015610ee1573d6000803e3d6000fd5b505050506040513d601f19601f82011682018060405250810190610f059190613093565b610f0f9190612fdc565b1015610f2d5760405162461bcd60e51b815260040161037b9061302c565b50505050505050505050565b6060610f677f0000000000000000000000000000000000000000000000000000000000000000858585611b32565b949350505050565b6060610f677f0000000000000000000000000000000000000000000000000000000000000000858585612264565b6000610f678484846127b7565b60608142811015610fcd5760405162461bcd60e51b815260040161037b90612f06565b7f00000000000000000000000000000000000000000000000000000000000000006001600160a01b03168888600081811061100a5761100a612f32565b905060200201602081019061101f9190612f89565b6001600160a01b0316146110455760405162461bcd60e51b815260040161037b90612ff5565b6110d47f00000000000000000000000000000000000000000000000000000000000000008a8a8a8080602002602001604051908101604052809392919081815260200183836020028082843760009201919091525050604080516020808e0282810182019093528d82529093508d92508c918291850190849080828437600092019190915250611b3292505050565b915034826000815181106110ea576110ea612f32565b602002602001015111156111105760405162461bcd60e51b815260040161037b90612f48565b7f00000000000000000000000000000000000000000000000000000000000000006001600160a01b031663d0e30db08360008151811061115257611152612f32565b60200260200101516040518263ffffffff1660e01b81526004016000604051808303818588803b15801561118557600080fd5b505af1158015611199573d6000803e3d6000fd5b50505050507f00000000000000000000000000000000000000000000000000000000000000006001600160a01b031663a9059cbb6112047f00000000000000000000000000000000000000000000000000000000000000008b8b6000818110610c8857610c88612f32565b8460008151811061121757611217612f32565b60200260200101516040518363ffffffff1660e01b81526004016112509291906001600160a01b03929092168252602082015260400190565b6020604051808303816000875af115801561126f573d6000803e3d6000fd5b505050506040513d601f19601f820116820180604052508101906112939190613071565b61129f5761129f612af4565b61130f8289898080602002602001604051908101604052809392919081815260200183836020028082843760009201919091525050604080516020808d0282810182019093528c82529093508c92508b9182918501908490808284376000920191909152508a9250611f47915050565b8160008151811061132257611322612f32565b602002602001015134111561136057611360338360008151811061134857611348612f32565b60200260200101513461135b9190612fdc565b612421565b50979650505050505050565b804281101561138d5760405162461bcd60e51b815260040161037b90612f06565b6001600160a01b037f00000000000000000000000000000000000000000000000000000000000000001687876113c4600182612fdc565b8181106113d3576113d3612f32565b90506020020160208101906113e89190612f89565b6001600160a01b03161461140e5760405162461bcd60e51b815260040161037b90612ff5565b6114778787600081811061142457611424612f32565b90506020020160208101906114399190612f89565b336114717f00000000000000000000000000000000000000000000000000000000000000008b8b6000818110610c8857610c88612f32565b8c611e09565b6114e687878080602002602001604051908101604052809392919081815260200183836020028082843760009201919091525050604080516020808b0282810182019093528a82529093508a925089918291850190849080828437600092019190915250309250612500915050565b6040516370a0823160e01b81523060048201526000907f00000000000000000000000000000000000000000000000000000000000000006001600160a01b0316906370a0823190602401602060405180830381865afa15801561154d573d6000803e3d6000fd5b505050506040513d601f19601f820116820180604052508101906115719190613093565b9050888110156115935760405162461bcd60e51b815260040161037b9061302c565b604051632e1a7d4d60e01b8152600481018290527f00000000000000000000000000000000000000000000000000000000000000006001600160a01b031690632e1a7d4d90602401600060405180830381600087803b1580156115f557600080fd5b505af1158015611609573d6000803e3d6000fd5b50505050610f2d8482612421565b6060814281101561163a5760405162461bcd60e51b815260040161037b90612f06565b7f00000000000000000000000000000000000000000000000000000000000000006001600160a01b03168888600081811061167757611677612f32565b905060200201602081019061168c9190612f89565b6001600160a01b0316146116b25760405162461bcd60e51b815260040161037b90612ff5565b6117417f0000000000000000000000000000000000000000000000000000000000000000348a8a8080602002602001604051908101604052809392919081815260200183836020028082843760009201919091525050604080516020808e0282810182019093528d82529093508d92508c91829185019084908082843760009201919091525061226492505050565b91508882600184516117539190612fdc565b8151811061176357611763612f32565b602002602001015110156117895760405162461bcd60e51b815260040161037b9061302c565b7f00000000000000000000000000000000000000000000000000000000000000006001600160a01b031663d0e30db0836000815181106117cb576117cb612f32565b60200260200101516040518263ffffffff1660e01b81526004016000604051808303818588803b1580156117fe57600080fd5b505af1158015611812573d6000803e3d6000fd5b50505050507f00000000000000000000000000000000000000000000000000000000000000006001600160a01b031663a9059cbb61187d7f00000000000000000000000000000000000000000000000000000000000000008b8b6000818110610c8857610c88612f32565b8460008151811061189057611890612f32565b60200260200101516040518363ffffffff1660e01b81526004016118c99291906001600160a01b03929092168252602082015260400190565b6020604051808303816000875af11580156118e8573d6000803e3d6000fd5b505050506040513d601f19601f8201168201806040525081019061190c9190613071565b61191857611918612af4565b6113608289898080602002602001604051908101604052809392919081815260200183836020028082843760009201919091525050604080516020808d0282810182019093528c82529093508c92508b9182918501908490808284376000920191909152508a9250611f47915050565b80428110156119a95760405162461bcd60e51b815260040161037b90612f06565b6119bf8787600081811061142457611424612f32565b600087876119ce600182612fdc565b8181106119dd576119dd612f32565b90506020020160208101906119f29190612f89565b6040516370a0823160e01b81526001600160a01b03868116600483015291909116906370a0823190602401602060405180830381865afa158015611a3a573d6000803e3d6000fd5b505050506040513d601f19601f82011682018060405250810190611a5e9190613093565b9050611acf88888080602002602001604051908101604052809392919081815260200183836020028082843760009201919091525050604080516020808c0282810182019093528b82529093508b92508a918291850190849080828437600092019190915250899250612500915050565b88818989611ade600182612fdc565b818110611aed57611aed612f32565b9050602002016020810190611b029190612f89565b6040516370a0823160e01b81526001600160a01b03888116600483015291909116906370a0823190602401610ec4565b6060600283511015611b865760405162461bcd60e51b815260206004820181905260248201527f496f7461426565537761704c6962726172793a20494e56414c49445f50415448604482015260640161037b565b60018351611b949190612fdc565b825114611bb35760405162461bcd60e51b815260040161037b906130ac565b825167ffffffffffffffff811115611bcd57611bcd612d32565b604051908082528060200260200182016040528015611bf6578160200160208202803683370190505b509050838160018351611c099190612fdc565b81518110611c1957611c19612f32565b602002602001018181525050600060018451611c359190612fdc565b90505b8015611d2157600080611ca28887611c51600187612fdc565b81518110611c6157611c61612f32565b6020026020010151888681518110611c7b57611c7b612f32565b6020026020010151888781518110611c9557611c95612f32565b6020026020010151612847565b91509150611ce4848481518110611cbb57611cbb612f32565b60200260200101518383888781518110611cd757611cd7612f32565b6020026020010151612913565b84611cf0600186612fdc565b81518110611d0057611d00612f32565b60200260200101818152505050508080611d19906130ef565b915050611c38565b50949350505050565b6000806000611d3986866129fb565b604080516001600160a01b03808516602083015283169181019190915262ffffff871660608201529193509150879060800160408051601f19818403018152908290528051602091820120611de6939290917f043b4002c4ea75c66a18ea59a72518d6a30c4629242b442a2e9eba2893d801ad91016001600160f81b0319815260609390931b6bffffffffffffffffffffffff191660018401526015830191909152603582015260550190565b60408051601f198184030181529190528051602090910120979650505050505050565b604080516001600160a01b0385811660248301528481166044830152606480830185905283518084039091018152608490920183526020820180516001600160e01b03166323b872dd60e01b1790529151600092839290881691611e6d919061312a565b6000604051808303816000865af19150503d8060008114611eaa576040519150601f19603f3d011682016040523d82523d6000602084013e611eaf565b606091505b5091509150818015611ed9575080511580611ed9575080806020019051810190611ed99190613071565b611f3f5760405162461bcd60e51b815260206004820152603160248201527f5472616e7366657248656c7065723a3a7472616e7366657246726f6d3a207472604482015270185b9cd9995c919c9bdb4819985a5b1959607a1b606482015260840161037b565b505050505050565b60005b60018451611f589190612fdc565b81101561217c57600080858381518110611f7457611f74612f32565b602002602001015186846001611f8a9190613146565b81518110611f9a57611f9a612f32565b6020026020010151915091506000611fb283836129fb565b509050600088611fc3866001613146565b81518110611fd357611fd3612f32565b60200260200101519050600080836001600160a01b0316866001600160a01b03161461200157826000612005565b6000835b91509150600060028b516120199190612fdc565b88106120255788612099565b6120997f0000000000000000000000000000000000000000000000000000000000000000878d6120568c6002613146565b8151811061206657612066612f32565b60200260200101518d8c600161207c9190613146565b8151811061208c5761208c612f32565b6020026020010151611d2a565b90506120d37f000000000000000000000000000000000000000000000000000000000000000088888d8c8151811061208c5761208c612f32565b6001600160a01b031663022c0d9f84848460006040519080825280601f01601f191660200182016040528015612110576020820181803683370190505b506040518563ffffffff1660e01b81526004016121309493929190613159565b600060405180830381600087803b15801561214a57600080fd5b505af115801561215e573d6000803e3d6000fd5b50505050505050505050508080612174906131a9565b915050611f4a565b5050505050565b60008085116121d85760405162461bcd60e51b815260206004820152602d60248201526000805160206132be83398151915260448201526c17d25394155517d05353d55395609a1b606482015260840161037b565b6000841180156121e85750600083115b6122045760405162461bcd60e51b815260040161037b906131c2565b600061221383620186a06131fa565b6122229062ffffff168761321d565b90506000612230858361321d565b9050600082612242620186a08961321d565b61224c9190613146565b90506122588183613234565b98975050505050505050565b60606002835110156122b85760405162461bcd60e51b815260206004820181905260248201527f496f7461426565537761704c6962726172793a20494e56414c49445f50415448604482015260640161037b565b600183516122c69190612fdc565b8251146122e55760405162461bcd60e51b815260040161037b906130ac565b825167ffffffffffffffff8111156122ff576122ff612d32565b604051908082528060200260200182016040528015612328578160200160208202803683370190505b509050838160008151811061233f5761233f612f32565b60200260200101818152505060005b6001845161235c9190612fdc565b811015611d21576000806123a28887858151811061237c5761237c612f32565b6020026020010151888660016123929190613146565b81518110611c7b57611c7b612f32565b915091506123e48484815181106123bb576123bb612f32565b602002602001015183838887815181106123d7576123d7612f32565b6020026020010151612183565b846123f0856001613146565b8151811061240057612400612f32565b60200260200101818152505050508080612419906131a9565b91505061234e565b604080516000808252602082019092526001600160a01b03841690839060405161244b919061312a565b60006040518083038185875af1925050503d8060008114612488576040519150601f19603f3d011682016040523d82523d6000602084013e61248d565b606091505b50509050806124fb5760405162461bcd60e51b815260206004820152603460248201527f5472616e7366657248656c7065723a3a736166655472616e736665724554483a60448201527308115512081d1c985b9cd9995c8819985a5b195960621b606482015260840161037b565b505050565b60005b600184516125119190612fdc565b8110156127b15760008085838151811061252d5761252d612f32565b6020026020010151868460016125439190613146565b8151811061255357612553612f32565b602002602001015191509150600061256b83836129fb565b50905060006125a87f000000000000000000000000000000000000000000000000000000000000000085858a898151811061208c5761208c612f32565b90506000806000806125e87f000000000000000000000000000000000000000000000000000000000000000089898e8d81518110611c9557611c95612f32565b6040516370a0823160e01b81526001600160a01b03888116600483015292945090925083918a16906370a0823190602401602060405180830381865afa158015612636573d6000803e3d6000fd5b505050506040513d601f19601f8201168201806040525081019061265a9190613093565b6126649190612fdc565b935061267e8483838e8d815181106123d7576123d7612f32565b92505050600080856001600160a01b0316886001600160a01b0316146126a6578260006126aa565b6000835b91509150600060028d516126be9190612fdc565b8a106126ca578a612721565b6127217f0000000000000000000000000000000000000000000000000000000000000000898f6126fb8e6002613146565b8151811061270b5761270b612f32565b60200260200101518f8e600161207c9190613146565b6040805160008152602081019182905263022c0d9f60e01b9091529091506001600160a01b0387169063022c0d9f906127639086908690869060248101613159565b600060405180830381600087803b15801561277d57600080fd5b505af1158015612791573d6000803e3d6000fd5b5050505050505050505050505080806127a9906131a9565b915050612503565b50505050565b60008084116128065760405162461bcd60e51b815260206004820152602760248201526000805160206132be83398151915260448201526617d05353d5539560ca1b606482015260840161037b565b6000831180156128165750600082115b6128325760405162461bcd60e51b815260040161037b906131c2565b8261283d838661321d565b610f679190613234565b600080600061285686866129fb565b50905060008061286889898989611d2a565b6001600160a01b0316630902f1ac6040518163ffffffff1660e01b8152600401606060405180830381865afa1580156128a5573d6000803e3d6000fd5b505050506040513d601f19601f820116820180604052508101906128c9919061326d565b506001600160701b031691506001600160701b03169150826001600160a01b0316886001600160a01b031614612900578082612903565b81815b909a909950975050505050505050565b60008085116129695760405162461bcd60e51b815260206004820152602e60248201526000805160206132be83398151915260448201526d17d3d55514155517d05353d5539560921b606482015260840161037b565b6000841180156129795750600083115b6129955760405162461bcd60e51b815260040161037b906131c2565b6000620186a06129a5878761321d565b6129af919061321d565b905060006129c084620186a06131fa565b62ffffff166129cf8887612fdc565b6129d9919061321d565b90506129e58183613234565b6129f0906001613146565b979650505050505050565b600080826001600160a01b0316846001600160a01b031603612a6f5760405162461bcd60e51b815260206004820152602760248201527f496f7461426565537761704c6962726172793a204944454e544943414c5f41446044820152664452455353455360c81b606482015260840161037b565b826001600160a01b0316846001600160a01b031610612a8f578284612a92565b83835b90925090506001600160a01b038216612aed5760405162461bcd60e51b815260206004820181905260248201527f496f7461426565537761704c6962726172793a205a45524f5f41444452455353604482015260640161037b565b9250929050565b634e487b7160e01b600052600160045260246000fd5b60008083601f840112612b1c57600080fd5b50813567ffffffffffffffff811115612b3457600080fd5b6020830191508360208260051b8501011115612aed57600080fd5b80356001600160a01b0381168114612b6657600080fd5b919050565b60008060008060008060008060c0898b031215612b8757600080fd5b8835975060208901359650604089013567ffffffffffffffff80821115612bad57600080fd5b612bb98c838d01612b0a565b909850965060608b0135915080821115612bd257600080fd5b50612bdf8b828c01612b0a565b9095509350612bf2905060808a01612b4f565b915060a089013590509295985092959890939650565b6020808252825182820181905260009190848201906040850190845b81811015612c4057835183529284019291840191600101612c24565b50909695505050505050565b803562ffffff81168114612b6657600080fd5b60008060008060808587031215612c7557600080fd5b843593506020850135925060408501359150612c9360608601612c4c565b905092959194509250565b600080600080600080600060a0888a031215612cb957600080fd5b87359650602088013567ffffffffffffffff80821115612cd857600080fd5b612ce48b838c01612b0a565b909850965060408a0135915080821115612cfd57600080fd5b50612d0a8a828b01612b0a565b9095509350612d1d905060608901612b4f565b91506080880135905092959891949750929550565b634e487b7160e01b600052604160045260246000fd5b604051601f8201601f1916810167ffffffffffffffff81118282101715612d7157612d71612d32565b604052919050565b600067ffffffffffffffff821115612d9357612d93612d32565b5060051b60200190565b600082601f830112612dae57600080fd5b81356020612dc3612dbe83612d79565b612d48565b82815260059290921b84018101918181019086841115612de257600080fd5b8286015b84811015612e0457612df781612c4c565b8352918301918301612de6565b509695505050505050565b600080600060608486031215612e2457600080fd5b8335925060208085013567ffffffffffffffff80821115612e4457600080fd5b818701915087601f830112612e5857600080fd5b8135612e66612dbe82612d79565b81815260059190911b8301840190848101908a831115612e8557600080fd5b938501935b82851015612eaa57612e9b85612b4f565b82529385019390850190612e8a565b965050506040870135925080831115612ec257600080fd5b5050612ed086828701612d9d565b9150509250925092565b600080600060608486031215612eef57600080fd5b505081359360208301359350604090920135919050565b602080825260129082015271125094d49bdd5d195c8e881156141254915160721b604082015260600190565b634e487b7160e01b600052603260045260246000fd5b60208082526021908201527f494253526f757465723a204558434553534956455f494e5055545f414d4f554e6040820152601560fa1b606082015260800190565b600060208284031215612f9b57600080fd5b612fa482612b4f565b9392505050565b600060208284031215612fbd57600080fd5b612fa482612c4c565b634e487b7160e01b600052601160045260246000fd5b81810381811115612fef57612fef612fc6565b92915050565b60208082526017908201527f494253526f757465723a20494e56414c49445f50415448000000000000000000604082015260600190565b60208082526025908201527f494253526f757465723a20494e53554646494349454e545f4f55545055545f416040820152641353d5539560da1b606082015260800190565b60006020828403121561308357600080fd5b81518015158114612fa457600080fd5b6000602082840312156130a557600080fd5b5051919050565b60208082526023908201527f496f7461426565537761704c6962726172793a20494e56414c49445f4645455260408201526241544560e81b606082015260800190565b6000816130fe576130fe612fc6565b506000190190565b60005b83811015613121578181015183820152602001613109565b50506000910152565b6000825161313c818460208701613106565b9190910192915050565b80820180821115612fef57612fef612fc6565b84815283602082015260018060a01b038316604082015260806060820152600082518060808401526131928160a0850160208701613106565b601f01601f19169190910160a00195945050505050565b6000600182016131bb576131bb612fc6565b5060010190565b6020808252602a908201526000805160206132be8339815191526040820152695f4c495155494449545960b01b606082015260800190565b62ffffff82811682821603908082111561321657613216612fc6565b5092915050565b8082028115828204841417612fef57612fef612fc6565b60008261325157634e487b7160e01b600052601260045260246000fd5b500490565b80516001600160701b0381168114612b6657600080fd5b60008060006060848603121561328257600080fd5b61328b84613256565b925061329960208501613256565b9150604084015163ffffffff811681146132b257600080fd5b80915050925092509256fe496f7461426565537761704c6962726172793a20494e53554646494349454e54a264697066735822122058e8a33bc4658ba5192d58caf9bebacbf1a5d5e1bf2ce5b96c3900db5c3ddff764736f6c63430008110033",
    "sourcePath": "d:/contract/iotabee/periphery/IotaBeeSwapRouter.sol",
    "compiler": {
        "name": "solc",
        "version": "0.8.17+commit.8df45f5f"
    },
    "functionHashes": {
        "WETH()": "ad5c4648",
        "factory()": "c45a0155",
        "getAmountIn(uint256,uint256,uint256,uint24)": "67a86300",
        "getAmountOut(uint256,uint256,uint256,uint24)": "886ee7b5",
        "getAmountsIn(uint256,address[],uint24[])": "9ec505b5",
        "getAmountsOut(uint256,address[],uint24[])": "9f48b439",
        "quote(uint256,uint256,uint256)": "ad615dec",
        "swapETHForExactTokens(uint256,address[],uint24[],address,uint256)": "bf228ea8",
        "swapExactETHForTokens(uint256,address[],uint24[],address,uint256)": "e8677b0a",
        "swapExactETHForTokensSupportingFeeOnTransferTokens(uint256,address[],uint24[],address,uint256)": "9e881335",
        "swapExactTokensForETH(uint256,uint256,address[],uint24[],address,uint256)": "7d342839",
        "swapExactTokensForETHSupportingFeeOnTransferTokens(uint256,uint256,address[],uint24[],address,uint256)": "db24105d",
        "swapExactTokensForTokens(uint256,uint256,address[],uint24[],address,uint256)": "93a2e9ed",
        "swapExactTokensForTokensSupportingFeeOnTransferTokens(uint256,uint256,address[],uint24[],address,uint256)": "edcbbd46",
        "swapTokensForExactETH(uint256,uint256,address[],uint24[],address,uint256)": "899c25ce",
        "swapTokensForExactTokens(uint256,uint256,address[],uint24[],address,uint256)": "2be591cf"
    },
    "gasEstimates": {
        "creation": {
            "codeDepositCost": "2615000",
            "executionCost": "infinite",
            "totalCost": "infinite"
        },
        "external": {
            "WETH()": "infinite",
            "factory()": "infinite",
            "getAmountIn(uint256,uint256,uint256,uint24)": "infinite",
            "getAmountOut(uint256,uint256,uint256,uint24)": "infinite",
            "getAmountsIn(uint256,address[],uint24[])": "infinite",
            "getAmountsOut(uint256,address[],uint24[])": "infinite",
            "quote(uint256,uint256,uint256)": "infinite",
            "swapETHForExactTokens(uint256,address[],uint24[],address,uint256)": "infinite",
            "swapExactETHForTokens(uint256,address[],uint24[],address,uint256)": "infinite",
            "swapExactETHForTokensSupportingFeeOnTransferTokens(uint256,address[],uint24[],address,uint256)": "infinite",
            "swapExactTokensForETH(uint256,uint256,address[],uint24[],address,uint256)": "infinite",
            "swapExactTokensForETHSupportingFeeOnTransferTokens(uint256,uint256,address[],uint24[],address,uint256)": "infinite",
            "swapExactTokensForTokens(uint256,uint256,address[],uint24[],address,uint256)": "infinite",
            "swapExactTokensForTokensSupportingFeeOnTransferTokens(uint256,uint256,address[],uint24[],address,uint256)": "infinite",
            "swapTokensForExactETH(uint256,uint256,address[],uint24[],address,uint256)": "infinite",
            "swapTokensForExactTokens(uint256,uint256,address[],uint24[],address,uint256)": "infinite"
        },
        "internal": {
            "_swap(uint256[] memory,address[] memory,uint24[] memory,address)": "infinite",
            "_swapSupportingFeeOnTransferTokens(address[] memory,uint24[] memory,address)": "infinite"
        }
    }
}