{
    "contractName": "TokenERC20",
    "abi": [
        {
            "inputs": [],
            "stateMutability": "nonpayable",
            "type": "constructor"
        },
        {
            "anonymous": false,
            "inputs": [
                {
                    "indexed": true,
                    "internalType": "address",
                    "name": "owner",
                    "type": "address"
                },
                {
                    "indexed": true,
                    "internalType": "address",
                    "name": "spender",
                    "type": "address"
                },
                {
                    "indexed": false,
                    "internalType": "uint256",
                    "name": "value",
                    "type": "uint256"
                }
            ],
            "name": "Approval",
            "type": "event"
        },
        {
            "anonymous": false,
            "inputs": [
                {
                    "indexed": true,
                    "internalType": "address",
                    "name": "sender",
                    "type": "address"
                },
                {
                    "indexed": false,
                    "internalType": "uint256",
                    "name": "amount",
                    "type": "uint256"
                }
            ],
            "name": "Mint",
            "type": "event"
        },
        {
            "anonymous": false,
            "inputs": [
                {
                    "indexed": true,
                    "internalType": "address",
                    "name": "from",
                    "type": "address"
                },
                {
                    "indexed": true,
                    "internalType": "address",
                    "name": "to",
                    "type": "address"
                },
                {
                    "indexed": false,
                    "internalType": "uint256",
                    "name": "value",
                    "type": "uint256"
                }
            ],
            "name": "Transfer",
            "type": "event"
        },
        {
            "inputs": [
                {
                    "internalType": "address",
                    "name": "",
                    "type": "address"
                },
                {
                    "internalType": "address",
                    "name": "",
                    "type": "address"
                }
            ],
            "name": "allowance",
            "outputs": [
                {
                    "internalType": "uint256",
                    "name": "",
                    "type": "uint256"
                }
            ],
            "stateMutability": "view",
            "type": "function"
        },
        {
            "inputs": [
                {
                    "internalType": "address",
                    "name": "spender",
                    "type": "address"
                },
                {
                    "internalType": "uint256",
                    "name": "value",
                    "type": "uint256"
                }
            ],
            "name": "approve",
            "outputs": [
                {
                    "internalType": "bool",
                    "name": "",
                    "type": "bool"
                }
            ],
            "stateMutability": "nonpayable",
            "type": "function"
        },
        {
            "inputs": [
                {
                    "internalType": "address",
                    "name": "",
                    "type": "address"
                }
            ],
            "name": "balanceOf",
            "outputs": [
                {
                    "internalType": "uint256",
                    "name": "",
                    "type": "uint256"
                }
            ],
            "stateMutability": "view",
            "type": "function"
        },
        {
            "inputs": [],
            "name": "decimals",
            "outputs": [
                {
                    "internalType": "uint8",
                    "name": "",
                    "type": "uint8"
                }
            ],
            "stateMutability": "view",
            "type": "function"
        },
        {
            "inputs": [
                {
                    "internalType": "uint256",
                    "name": "amount",
                    "type": "uint256"
                }
            ],
            "name": "mint",
            "outputs": [],
            "stateMutability": "nonpayable",
            "type": "function"
        },
        {
            "inputs": [],
            "name": "minter",
            "outputs": [
                {
                    "internalType": "address",
                    "name": "",
                    "type": "address"
                }
            ],
            "stateMutability": "view",
            "type": "function"
        },
        {
            "inputs": [],
            "name": "name",
            "outputs": [
                {
                    "internalType": "string",
                    "name": "",
                    "type": "string"
                }
            ],
            "stateMutability": "view",
            "type": "function"
        },
        {
            "inputs": [],
            "name": "symbol",
            "outputs": [
                {
                    "internalType": "string",
                    "name": "",
                    "type": "string"
                }
            ],
            "stateMutability": "view",
            "type": "function"
        },
        {
            "inputs": [],
            "name": "totalSupply",
            "outputs": [
                {
                    "internalType": "uint256",
                    "name": "",
                    "type": "uint256"
                }
            ],
            "stateMutability": "view",
            "type": "function"
        },
        {
            "inputs": [
                {
                    "internalType": "address",
                    "name": "to",
                    "type": "address"
                },
                {
                    "internalType": "uint256",
                    "name": "value",
                    "type": "uint256"
                }
            ],
            "name": "transfer",
            "outputs": [
                {
                    "internalType": "bool",
                    "name": "",
                    "type": "bool"
                }
            ],
            "stateMutability": "nonpayable",
            "type": "function"
        },
        {
            "inputs": [
                {
                    "internalType": "address",
                    "name": "from",
                    "type": "address"
                },
                {
                    "internalType": "address",
                    "name": "to",
                    "type": "address"
                },
                {
                    "internalType": "uint256",
                    "name": "value",
                    "type": "uint256"
                }
            ],
            "name": "transferFrom",
            "outputs": [
                {
                    "internalType": "bool",
                    "name": "",
                    "type": "bool"
                }
            ],
            "stateMutability": "nonpayable",
            "type": "function"
        }
    ],
    "bytecode": "60c0604052600b60809081526a5553442072696e6b65627960a81b60a0526000906200002c90826200016c565b506040805180820190915260038152621554d160ea1b60208201526001906200005690826200016c565b506002805460ff191660061790553480156200007157600080fd5b50600254620000859060ff16600a6200034d565b62000096906402540be40062000362565b600381905533600081815260056020526040902091909155600480546001600160a01b03191690911790556200037c565b634e487b7160e01b600052604160045260246000fd5b600181811c90821680620000f257607f821691505b6020821081036200011357634e487b7160e01b600052602260045260246000fd5b50919050565b601f8211156200016757600081815260208120601f850160051c81016020861015620001425750805b601f850160051c820191505b8181101562000163578281556001016200014e565b5050505b505050565b81516001600160401b03811115620001885762000188620000c7565b620001a081620001998454620000dd565b8462000119565b602080601f831160018114620001d85760008415620001bf5750858301515b600019600386901b1c1916600185901b17855562000163565b600085815260208120601f198616915b828110156200020957888601518255948401946001909101908401620001e8565b5085821015620002285787850151600019600388901b60f8161c191681555b5050505050600190811b01905550565b634e487b7160e01b600052601160045260246000fd5b600181815b808511156200028f57816000190482111562000273576200027362000238565b808516156200028157918102915b93841c939080029062000253565b509250929050565b600082620002a85750600162000347565b81620002b75750600062000347565b8160018114620002d05760028114620002db57620002fb565b600191505062000347565b60ff841115620002ef57620002ef62000238565b50506001821b62000347565b5060208310610133831016604e8410600b841016171562000320575081810a62000347565b6200032c83836200024e565b806000190482111562000343576200034362000238565b0290505b92915050565b60006200035b838362000297565b9392505050565b808202811582820484141762000347576200034762000238565b610682806200038c6000396000f3fe608060405234801561001057600080fd5b50600436106100a95760003560e01c8063313ce56711610071578063313ce5671461014457806370a082311461016357806395d89b4114610183578063a0712d681461018b578063a9059cbb146101a0578063dd62ed3e146101b357600080fd5b806306fdde03146100ae57806307546172146100cc578063095ea7b3146100f757806318160ddd1461011a57806323b872dd14610131575b600080fd5b6100b66101de565b6040516100c39190610498565b60405180910390f35b6004546100df906001600160a01b031681565b6040516001600160a01b0390911681526020016100c3565b61010a610105366004610502565b61026c565b60405190151581526020016100c3565b61012360035481565b6040519081526020016100c3565b61010a61013f36600461052c565b610283565b6002546101519060ff1681565b60405160ff90911681526020016100c3565b610123610171366004610568565b60056020526000908152604090205481565b6100b66102fd565b61019e61019936600461058a565b61030a565b005b61010a6101ae366004610502565b610388565b6101236101c13660046105a3565b600660209081526000928352604080842090915290825290205481565b600080546101eb906105d6565b80601f0160208091040260200160405190810160405280929190818152602001828054610217906105d6565b80156102645780601f1061023957610100808354040283529160200191610264565b820191906000526020600020905b81548152906001019060200180831161024757829003601f168201915b505050505081565b6000610279338484610395565b5060015b92915050565b6001600160a01b0383166000908152600660209081526040808320338452909152812054600019146102e8576001600160a01b0384166000908152600660209081526040808320338452909152812080548492906102e2908490610626565b90915550505b6102f38484846103f7565b5060019392505050565b600180546101eb906105d6565b6004546001600160a01b0316331461032157600080fd5b6004546001600160a01b03166000908152600560205260408120805483929061034b908490610639565b909155505060405181815233907f0f6798a560793a54c3bcfe86a93cde1e73087d944c0ea20544137d41213968859060200160405180910390a250565b60006102793384846103f7565b6001600160a01b0383811660008181526006602090815260408083209487168084529482529182902085905590518481527f8c5be1e5ebec7d5bd14f71427d1e84f3dd0314c0f7b2291e5b200ac8c7c3b92591015b60405180910390a3505050565b6001600160a01b0383166000908152600560205260408120805483929061041f908490610626565b90915550506001600160a01b0382166000908152600560205260408120805483929061044c908490610639565b92505081905550816001600160a01b0316836001600160a01b03167fddf252ad1be2c89b69c2b068fc378daa952ba7f163c4a11628f55a4df523b3ef836040516103ea91815260200190565b600060208083528351808285015260005b818110156104c5578581018301518582016040015282016104a9565b506000604082860101526040601f19601f8301168501019250505092915050565b80356001600160a01b03811681146104fd57600080fd5b919050565b6000806040838503121561051557600080fd5b61051e836104e6565b946020939093013593505050565b60008060006060848603121561054157600080fd5b61054a846104e6565b9250610558602085016104e6565b9150604084013590509250925092565b60006020828403121561057a57600080fd5b610583826104e6565b9392505050565b60006020828403121561059c57600080fd5b5035919050565b600080604083850312156105b657600080fd5b6105bf836104e6565b91506105cd602084016104e6565b90509250929050565b600181811c908216806105ea57607f821691505b60208210810361060a57634e487b7160e01b600052602260045260246000fd5b50919050565b634e487b7160e01b600052601160045260246000fd5b8181038181111561027d5761027d610610565b8082018082111561027d5761027d61061056fea264697066735822122049cbe1c93e272d378d5153ccb9aade1b857cbab654db98ac9dd3810990cdc0eb64736f6c63430008110033",
    "sourcePath": "d:/contract/iotabee/periphery/usdt_test.sol",
    "compiler": {
        "name": "solc",
        "version": "0.8.17+commit.8df45f5f"
    },
    "functionHashes": {
        "allowance(address,address)": "dd62ed3e",
        "approve(address,uint256)": "095ea7b3",
        "balanceOf(address)": "70a08231",
        "decimals()": "313ce567",
        "mint(uint256)": "a0712d68",
        "minter()": "07546172",
        "name()": "06fdde03",
        "symbol()": "95d89b41",
        "totalSupply()": "18160ddd",
        "transfer(address,uint256)": "a9059cbb",
        "transferFrom(address,address,uint256)": "23b872dd"
    },
    "gasEstimates": {
        "creation": {
            "codeDepositCost": "333200",
            "executionCost": "infinite",
            "totalCost": "infinite"
        },
        "external": {
            "allowance(address,address)": "infinite",
            "approve(address,uint256)": "24573",
            "balanceOf(address)": "2541",
            "decimals()": "2313",
            "mint(uint256)": "30356",
            "minter()": "2360",
            "name()": "infinite",
            "symbol()": "infinite",
            "totalSupply()": "2362",
            "transfer(address,uint256)": "infinite",
            "transferFrom(address,address,uint256)": "infinite"
        },
        "internal": {
            "_approve(address,address,uint256)": "infinite",
            "_transfer(address,address,uint256)": "infinite"
        }
    }
}