{
  "_format": "hh-sol-artifact-1",
  "contractName": "TestErc20",
  "sourceName": "contracts/test/TT_faucet.sol",
  "abi": [
    {
      "inputs": [
        {
          "internalType": "string",
          "name": "_name",
          "type": "string"
        },
        {
          "internalType": "string",
          "name": "_symbol",
          "type": "string"
        },
        {
          "internalType": "uint8",
          "name": "d",
          "type": "uint8"
        }
      ],
      "stateMutability": "nonpayable",
      "type": "constructor"
    },
    {
      "anonymous": false,
      "inputs": [
        {
          "indexed": true,
          "internalType": "address",
          "name": "owner",
          "type": "address"
        },
        {
          "indexed": true,
          "internalType": "address",
          "name": "spender",
          "type": "address"
        },
        {
          "indexed": false,
          "internalType": "uint256",
          "name": "value",
          "type": "uint256"
        }
      ],
      "name": "Approval",
      "type": "event"
    },
    {
      "anonymous": false,
      "inputs": [
        {
          "indexed": true,
          "internalType": "address",
          "name": "sender",
          "type": "address"
        },
        {
          "indexed": true,
          "internalType": "address",
          "name": "to",
          "type": "address"
        },
        {
          "indexed": false,
          "internalType": "uint256",
          "name": "amount",
          "type": "uint256"
        }
      ],
      "name": "Faucet",
      "type": "event"
    },
    {
      "anonymous": false,
      "inputs": [
        {
          "indexed": true,
          "internalType": "address",
          "name": "sender",
          "type": "address"
        },
        {
          "indexed": false,
          "internalType": "uint256",
          "name": "amount",
          "type": "uint256"
        }
      ],
      "name": "Mint",
      "type": "event"
    },
    {
      "anonymous": false,
      "inputs": [
        {
          "indexed": true,
          "internalType": "address",
          "name": "from",
          "type": "address"
        },
        {
          "indexed": true,
          "internalType": "address",
          "name": "to",
          "type": "address"
        },
        {
          "indexed": false,
          "internalType": "uint256",
          "name": "value",
          "type": "uint256"
        }
      ],
      "name": "Transfer",
      "type": "event"
    },
    {
      "inputs": [
        {
          "internalType": "address",
          "name": "",
          "type": "address"
        },
        {
          "internalType": "address",
          "name": "",
          "type": "address"
        }
      ],
      "name": "allowance",
      "outputs": [
        {
          "internalType": "uint256",
          "name": "",
          "type": "uint256"
        }
      ],
      "stateMutability": "view",
      "type": "function"
    },
    {
      "inputs": [
        {
          "internalType": "address",
          "name": "spender",
          "type": "address"
        },
        {
          "internalType": "uint256",
          "name": "value",
          "type": "uint256"
        }
      ],
      "name": "approve",
      "outputs": [
        {
          "internalType": "bool",
          "name": "",
          "type": "bool"
        }
      ],
      "stateMutability": "nonpayable",
      "type": "function"
    },
    {
      "inputs": [
        {
          "internalType": "address",
          "name": "",
          "type": "address"
        }
      ],
      "name": "balanceOf",
      "outputs": [
        {
          "internalType": "uint256",
          "name": "",
          "type": "uint256"
        }
      ],
      "stateMutability": "view",
      "type": "function"
    },
    {
      "inputs": [],
      "name": "decimals",
      "outputs": [
        {
          "internalType": "uint8",
          "name": "",
          "type": "uint8"
        }
      ],
      "stateMutability": "view",
      "type": "function"
    },
    {
      "inputs": [
        {
          "internalType": "address",
          "name": "to",
          "type": "address"
        }
      ],
      "name": "faucet",
      "outputs": [
        {
          "internalType": "bool",
          "name": "",
          "type": "bool"
        }
      ],
      "stateMutability": "nonpayable",
      "type": "function"
    },
    {
      "inputs": [],
      "name": "faucetAmount",
      "outputs": [
        {
          "internalType": "uint256",
          "name": "",
          "type": "uint256"
        }
      ],
      "stateMutability": "view",
      "type": "function"
    },
    {
      "inputs": [
        {
          "internalType": "address",
          "name": "",
          "type": "address"
        }
      ],
      "name": "faucetLastOf",
      "outputs": [
        {
          "internalType": "uint256",
          "name": "",
          "type": "uint256"
        }
      ],
      "stateMutability": "view",
      "type": "function"
    },
    {
      "inputs": [
        {
          "internalType": "uint256",
          "name": "amount",
          "type": "uint256"
        }
      ],
      "name": "mint",
      "outputs": [],
      "stateMutability": "nonpayable",
      "type": "function"
    },
    {
      "inputs": [],
      "name": "minter",
      "outputs": [
        {
          "internalType": "address",
          "name": "",
          "type": "address"
        }
      ],
      "stateMutability": "view",
      "type": "function"
    },
    {
      "inputs": [],
      "name": "name",
      "outputs": [
        {
          "internalType": "string",
          "name": "",
          "type": "string"
        }
      ],
      "stateMutability": "view",
      "type": "function"
    },
    {
      "inputs": [
        {
          "internalType": "uint256",
          "name": "amount",
          "type": "uint256"
        }
      ],
      "name": "setFaucetAmount",
      "outputs": [
        {
          "internalType": "bool",
          "name": "",
          "type": "bool"
        }
      ],
      "stateMutability": "nonpayable",
      "type": "function"
    },
    {
      "inputs": [],
      "name": "symbol",
      "outputs": [
        {
          "internalType": "string",
          "name": "",
          "type": "string"
        }
      ],
      "stateMutability": "view",
      "type": "function"
    },
    {
      "inputs": [],
      "name": "totalSupply",
      "outputs": [
        {
          "internalType": "uint256",
          "name": "",
          "type": "uint256"
        }
      ],
      "stateMutability": "view",
      "type": "function"
    },
    {
      "inputs": [
        {
          "internalType": "address",
          "name": "to",
          "type": "address"
        },
        {
          "internalType": "uint256",
          "name": "value",
          "type": "uint256"
        }
      ],
      "name": "transfer",
      "outputs": [
        {
          "internalType": "bool",
          "name": "",
          "type": "bool"
        }
      ],
      "stateMutability": "nonpayable",
      "type": "function"
    },
    {
      "inputs": [
        {
          "internalType": "address",
          "name": "from",
          "type": "address"
        },
        {
          "internalType": "address",
          "name": "to",
          "type": "address"
        },
        {
          "internalType": "uint256",
          "name": "value",
          "type": "uint256"
        }
      ],
      "name": "transferFrom",
      "outputs": [
        {
          "internalType": "bool",
          "name": "",
          "type": "bool"
        }
      ],
      "stateMutability": "nonpayable",
      "type": "function"
    }
  ],
  "bytecode": "0x60a060405260646007553480156200001657600080fd5b5060405162000e7f38038062000e7f833981016040819052620000399162000175565b6200004960ff8216600a6200030f565b6200005a906402540be40062000324565b600281905533600081815260046020526040812092909255600380546001600160a01b0319169091179055620000918482620003cd565b506001620000a08382620003cd565b5060ff1660805250620004999050565b634e487b7160e01b600052604160045260246000fd5b600082601f830112620000d857600080fd5b81516001600160401b0380821115620000f557620000f5620000b0565b604051601f8301601f19908116603f01168101908282118183101715620001205762000120620000b0565b816040528381526020925086838588010111156200013d57600080fd5b600091505b8382101562000161578582018301518183018401529082019062000142565b600093810190920192909252949350505050565b6000806000606084860312156200018b57600080fd5b83516001600160401b0380821115620001a357600080fd5b620001b187838801620000c6565b94506020860151915080821115620001c857600080fd5b50620001d786828701620000c6565b925050604084015160ff81168114620001ef57600080fd5b809150509250925092565b634e487b7160e01b600052601160045260246000fd5b600181815b8085111562000251578160001904821115620002355762000235620001fa565b808516156200024357918102915b93841c939080029062000215565b509250929050565b6000826200026a5750600162000309565b81620002795750600062000309565b81600181146200029257600281146200029d57620002bd565b600191505062000309565b60ff841115620002b157620002b1620001fa565b50506001821b62000309565b5060208310610133831016604e8410600b8410161715620002e2575081810a62000309565b620002ee838362000210565b8060001904821115620003055762000305620001fa565b0290505b92915050565b60006200031d838362000259565b9392505050565b8082028115828204841417620003095762000309620001fa565b600181811c908216806200035357607f821691505b6020821081036200037457634e487b7160e01b600052602260045260246000fd5b50919050565b601f821115620003c857600081815260208120601f850160051c81016020861015620003a35750805b601f850160051c820191505b81811015620003c457828155600101620003af565b5050505b505050565b81516001600160401b03811115620003e957620003e9620000b0565b6200040181620003fa84546200033e565b846200037a565b602080601f831160018114620004395760008415620004205750858301515b600019600386901b1c1916600185901b178555620003c4565b600085815260208120601f198616915b828110156200046a5788860151825594840194600190910190840162000449565b5085821015620004895787850151600019600388901b60f8161c191681555b5050505050600190811b01905550565b6080516109c3620004bc6000396000818161019501526104ee01526109c36000f3fe608060405234801561001057600080fd5b50600436106100f55760003560e01c80637dd8786f11610097578063a0712d6811610066578063a0712d681461022d578063a9059cbb14610242578063b86d1d6314610255578063dd62ed3e1461026857600080fd5b80637dd8786f146101e957806381d2fd9c1461020957806395d89b411461021c5780639c2814301461022457600080fd5b806318160ddd116100d357806318160ddd1461016657806323b872dd1461017d578063313ce5671461019057806370a08231146101c957600080fd5b806306fdde03146100fa5780630754617214610118578063095ea7b314610143575b600080fd5b610102610293565b60405161010f91906106cf565b60405180910390f35b60035461012b906001600160a01b031681565b6040516001600160a01b03909116815260200161010f565b610156610151366004610739565b610321565b604051901515815260200161010f565b61016f60025481565b60405190815260200161010f565b61015661018b366004610763565b610338565b6101b77f000000000000000000000000000000000000000000000000000000000000000081565b60405160ff909116815260200161010f565b61016f6101d736600461079f565b60046020526000908152604090205481565b61016f6101f736600461079f565b60066020526000908152604090205481565b6101566102173660046107c1565b6103b2565b6101026103d5565b61016f60075481565b61024061023b3660046107c1565b6103e2565b005b610156610250366004610739565b610477565b61015661026336600461079f565b610484565b61016f6102763660046107da565b600560209081526000928352604080842090915290825290205481565b600080546102a09061080d565b80601f01602080910402602001604051908101604052809291908181526020018280546102cc9061080d565b80156103195780601f106102ee57610100808354040283529160200191610319565b820191906000526020600020905b8154815290600101906020018083116102fc57829003601f168201915b505050505081565b600061032e3384846105cc565b5060015b92915050565b6001600160a01b03831660009081526005602090815260408083203384529091528120546000191461039d576001600160a01b03841660009081526005602090815260408083203384529091528120805484929061039790849061085d565b90915550505b6103a884848461062e565b5060019392505050565b6003546000906001600160a01b031633146103cc57600080fd5b50600755600190565b600180546102a09061080d565b6003546001600160a01b031633146103f957600080fd5b806002600082825461040b9190610870565b90915550506003546001600160a01b03166000908152600460205260408120805483929061043a908490610870565b909155505060405181815233907f0f6798a560793a54c3bcfe86a93cde1e73087d944c0ea20544137d41213968859060200160405180910390a250565b600061032e33848461062e565b6001600160a01b0381166000908152600660205260408120546104a990610258610870565b42116104e75760405162461bcd60e51b81526020600482015260096024820152681d1a5b59481dd85a5d60ba1b604482015260640160405180910390fd5b60006105147f0000000000000000000000000000000000000000000000000000000000000000600a610967565b6007546105219190610976565b6001600160a01b03841660009081526004602052604081208054929350839290919061054e908490610870565b9250508190555080600260008282546105679190610870565b90915550506001600160a01b038316600081815260066020526040908190204290555133907f8df9ef7404c42e7288b0a32e4eabb433f845a4bbdf35bec2b0aebf43ca498d0c906105bb9085815260200190565b60405180910390a350600192915050565b6001600160a01b0383811660008181526005602090815260408083209487168084529482529182902085905590518481527f8c5be1e5ebec7d5bd14f71427d1e84f3dd0314c0f7b2291e5b200ac8c7c3b92591015b60405180910390a3505050565b6001600160a01b0383166000908152600460205260408120805483929061065690849061085d565b90915550506001600160a01b03821660009081526004602052604081208054839290610683908490610870565b92505081905550816001600160a01b0316836001600160a01b03167fddf252ad1be2c89b69c2b068fc378daa952ba7f163c4a11628f55a4df523b3ef8360405161062191815260200190565b600060208083528351808285015260005b818110156106fc578581018301518582016040015282016106e0565b506000604082860101526040601f19601f8301168501019250505092915050565b80356001600160a01b038116811461073457600080fd5b919050565b6000806040838503121561074c57600080fd5b6107558361071d565b946020939093013593505050565b60008060006060848603121561077857600080fd5b6107818461071d565b925061078f6020850161071d565b9150604084013590509250925092565b6000602082840312156107b157600080fd5b6107ba8261071d565b9392505050565b6000602082840312156107d357600080fd5b5035919050565b600080604083850312156107ed57600080fd5b6107f68361071d565b91506108046020840161071d565b90509250929050565b600181811c9082168061082157607f821691505b60208210810361084157634e487b7160e01b600052602260045260246000fd5b50919050565b634e487b7160e01b600052601160045260246000fd5b8181038181111561033257610332610847565b8082018082111561033257610332610847565b600181815b808511156108be5781600019048211156108a4576108a4610847565b808516156108b157918102915b93841c9390800290610888565b509250929050565b6000826108d557506001610332565b816108e257506000610332565b81600181146108f857600281146109025761091e565b6001915050610332565b60ff84111561091357610913610847565b50506001821b610332565b5060208310610133831016604e8410600b8410161715610941575081810a610332565b61094b8383610883565b806000190482111561095f5761095f610847565b029392505050565b60006107ba60ff8416836108c6565b80820281158282048414176103325761033261084756fea26469706673582212205c9f32aebbf02a838da4f5f254da7f21017c800c488377fa4c272175bd3fabdb64736f6c63430008110033",
  "linkReferences": {},
  "deployedLinkReferences": {}
}